{
  "contractName": "AuthenticatedProxy",
  "abi": [
    {
      "constant": true,
      "inputs": [],
      "name": "proxyType",
      "outputs": [
        {
          "name": "proxyTypeId",
          "type": "uint256"
        }
      ],
      "payable": false,
      "stateMutability": "pure",
      "type": "function"
    },
    {
      "constant": true,
      "inputs": [],
      "name": "user",
      "outputs": [
        {
          "name": "",
          "type": "address"
        }
      ],
      "payable": false,
      "stateMutability": "view",
      "type": "function"
    },
    {
      "constant": true,
      "inputs": [],
      "name": "implementation",
      "outputs": [
        {
          "name": "",
          "type": "address"
        }
      ],
      "payable": false,
      "stateMutability": "view",
      "type": "function"
    },
    {
      "constant": true,
      "inputs": [],
      "name": "revoked",
      "outputs": [
        {
          "name": "",
          "type": "bool"
        }
      ],
      "payable": false,
      "stateMutability": "view",
      "type": "function"
    },
    {
      "constant": true,
      "inputs": [],
      "name": "upgradeabilityOwner",
      "outputs": [
        {
          "name": "",
          "type": "address"
        }
      ],
      "payable": false,
      "stateMutability": "view",
      "type": "function"
    },
    {
      "constant": true,
      "inputs": [],
      "name": "registry",
      "outputs": [
        {
          "name": "",
          "type": "address"
        }
      ],
      "payable": false,
      "stateMutability": "view",
      "type": "function"
    },
    {
      "constant": false,
      "inputs": [
        {
          "name": "from",
          "type": "address"
        },
        {
          "name": "value",
          "type": "uint256"
        },
        {
          "name": "token",
          "type": "address"
        },
        {
          "name": "extraData",
          "type": "bytes"
        }
      ],
      "name": "receiveApproval",
      "outputs": [],
      "payable": false,
      "stateMutability": "nonpayable",
      "type": "function"
    },
    {
      "payable": true,
      "stateMutability": "payable",
      "type": "fallback"
    },
    {
      "anonymous": false,
      "inputs": [
        {
          "indexed": false,
          "name": "revoked",
          "type": "bool"
        }
      ],
      "name": "Revoked",
      "type": "event"
    },
    {
      "anonymous": false,
      "inputs": [
        {
          "indexed": true,
          "name": "sender",
          "type": "address"
        },
        {
          "indexed": false,
          "name": "amount",
          "type": "uint256"
        }
      ],
      "name": "ReceivedEther",
      "type": "event"
    },
    {
      "anonymous": false,
      "inputs": [
        {
          "indexed": true,
          "name": "from",
          "type": "address"
        },
        {
          "indexed": false,
          "name": "value",
          "type": "uint256"
        },
        {
          "indexed": true,
          "name": "token",
          "type": "address"
        },
        {
          "indexed": false,
          "name": "extraData",
          "type": "bytes"
        }
      ],
      "name": "ReceivedTokens",
      "type": "event"
    },
    {
      "constant": false,
      "inputs": [
        {
          "name": "addrUser",
          "type": "address"
        },
        {
          "name": "addrRegistry",
          "type": "address"
        }
      ],
      "name": "initialize",
      "outputs": [],
      "payable": false,
      "stateMutability": "nonpayable",
      "type": "function"
    },
    {
      "constant": false,
      "inputs": [
        {
          "name": "revoke",
          "type": "bool"
        }
      ],
      "name": "setRevoke",
      "outputs": [],
      "payable": false,
      "stateMutability": "nonpayable",
      "type": "function"
    },
    {
      "constant": false,
      "inputs": [
        {
          "name": "dest",
          "type": "address"
        },
        {
          "name": "howToCall",
          "type": "uint8"
        },
        {
          "name": "calldata",
          "type": "bytes"
        }
      ],
      "name": "proxy",
      "outputs": [
        {
          "name": "result",
          "type": "bool"
        }
      ],
      "payable": false,
      "stateMutability": "nonpayable",
      "type": "function"
    },
    {
      "constant": false,
      "inputs": [
        {
          "name": "dest",
          "type": "address"
        },
        {
          "name": "howToCall",
          "type": "uint8"
        },
        {
          "name": "calldata",
          "type": "bytes"
        }
      ],
      "name": "proxyAssert",
      "outputs": [],
      "payable": false,
      "stateMutability": "nonpayable",
      "type": "function"
    }
  ],
  "bytecode": "0x60806040526001805460a060020a60ff021916905534801561002057600080fd5b50610822806100306000396000f3006080604052600436106100ae5763ffffffff7c01000000000000000000000000000000000000000000000000000000006000350416631b0f7ba981146100ef5780633f801f911461016f5780634555d5c9146101dd578063485cc955146102045780634c93505f1461022b5780634f8632ba146102455780635c60da1b1461027657806363d256ce1461028b5780636fde8202146102a05780637b103999146102b55780638f4ffcb1146102ca575b604080513481529051600160a060020a033316917fa419615bc8fda4c87663805ee2a3597a6d71c1d476911d9892f340d965bc7bf1919081900360200190a2005b3480156100fb57600080fd5b50604080516020600460443581810135601f810184900484028501840190955284845261015b948235600160a060020a0316946024803560ff169536959460649492019190819084018382808284375094975061033a9650505050505050565b604080519115158252519081900360200190f35b34801561017b57600080fd5b50604080516020600460443581810135601f81018490048402850184019095528484526101db948235600160a060020a0316946024803560ff169536959460649492019190819084018382808284375094975061052e9650505050505050565b005b3480156101e957600080fd5b506101f2610549565b60408051918252519081900360200190f35b34801561021057600080fd5b506101db600160a060020a036004358116906024351661054e565b34801561023757600080fd5b506101db60043515156105c4565b34801561025157600080fd5b5061025a610643565b60408051600160a060020a039092168252519081900360200190f35b34801561028257600080fd5b5061025a610652565b34801561029757600080fd5b5061015b610661565b3480156102ac57600080fd5b5061025a610671565b3480156102c157600080fd5b5061025a610680565b3480156102d657600080fd5b50604080516020601f6064356004818101359283018490048402850184019095528184526101db94600160a060020a0381358116956024803596604435909316953695608494920191819084018382808284375094975061068f9650505050505050565b60025460009033600160a060020a03908116911614806103ff575060035460a060020a900460ff161580156103ff5750600354604080517f69dc9ff3000000000000000000000000000000000000000000000000000000008152600160a060020a033381166004830152915191909216916369dc9ff39160248083019260209291908290030181600087803b1580156103d257600080fd5b505af11580156103e6573d6000803e3d6000fd5b505050506040513d60208110156103fc57600080fd5b50515b151561040a57600080fd5b600083600181111561041857fe5b141561049c5783600160a060020a03168260405180828051906020019080838360005b8381101561045357818101518382015260200161043b565b50505050905090810190601f1680156104805780820380516001836020036101000a031916815260200191505b509150506000604051808303816000865af19150509050610527565b60018360018111156104aa57fe5b14156105275783600160a060020a03168260405180828051906020019080838360005b838110156104e55781810151838201526020016104cd565b50505050905090810190601f1680156105125780820380516001836020036101000a031916815260200191505b50915050600060405180830381855af4925050505b9392505050565b61053983838361033a565b151561054457600080fd5b505050565b600290565b60015460a060020a900460ff161561056557600080fd5b6001805474ff0000000000000000000000000000000000000000191660a060020a17905560028054600160a060020a0393841673ffffffffffffffffffffffffffffffffffffffff199182161790915560038054929093169116179055565b60025433600160a060020a039081169116146105df57600080fd5b6003805482151560a060020a810274ff0000000000000000000000000000000000000000199092169190911790915560408051918252517f2165014523a6f4135deffed62d70149aad59b64de5aac51e3abbcbe2a83e2f7e9181900360200190a150565b600254600160a060020a031681565b600054600160a060020a031690565b60035460a060020a900460ff1681565b600154600160a060020a031690565b600354600160a060020a031681565b604080517f23b872dd000000000000000000000000000000000000000000000000000000008152600160a060020a038681166004830152308116602483015260448201869052915184928316916323b872dd9160648083019260209291908290030181600087803b15801561070357600080fd5b505af1158015610717573d6000803e3d6000fd5b505050506040513d602081101561072d57600080fd5b5051151561073a57600080fd5b82600160a060020a031685600160a060020a03167fd65b48fd35864b3528d38e44760be5553248f89bf3ff6b06cca57817cc2650bf86856040518083815260200180602001828103825283818151815260200191508051906020019080838360005b838110156107b457818101518382015260200161079c565b50505050905090810190601f1680156107e15780820380516001836020036101000a031916815260200191505b50935050505060405180910390a350505050505600a165627a7a7230582095c77051474abf87cae8f45939fbf88ac51bc261b8a50da46b2b2b615f61771d0029",
  "source": "/* \n\n  Proxy contract to hold access to assets on behalf of a user (e.g. ERC20 approve) and execute calls under particular conditions.\n\n*/\n\npragma solidity 0.4.23;\n\nimport \"./ProxyRegistry.sol\";\nimport \"../common/TokenRecipient.sol\";\nimport \"./proxy/OwnedUpgradeabilityStorage.sol\";\n\n/**\n * @title AuthenticatedProxy\n * @author Project Wyvern Developers\n */\ncontract AuthenticatedProxy is TokenRecipient, OwnedUpgradeabilityStorage {\n\n    /* Whether initialized. */\n    bool initialized = false;\n\n    /* Address which owns this proxy. */\n    address public user;\n\n    /* Associated registry with contract authentication information. */\n    ProxyRegistry public registry;\n\n    /* Whether access has been revoked. */\n    bool public revoked;\n\n    /* Delegate call could be used to atomically transfer multiple assets owned by the proxy contract with one order. */\n    enum HowToCall { Call, DelegateCall }\n\n    /* Event fired when the proxy access is revoked or unrevoked. */\n    event Revoked(bool revoked);\n\n    /**\n     * Initialize an AuthenticatedProxy\n     *\n     * @param addrUser Address of user on whose behalf this proxy will act\n     * @param addrRegistry Address of ProxyRegistry contract which will manage this proxy\n     */\n    function initialize (address addrUser, ProxyRegistry addrRegistry)\n        public\n    {\n        require(!initialized);\n        initialized = true;\n        user = addrUser;\n        registry = addrRegistry;\n    }\n\n    /**\n     * Set the revoked flag (allows a user to revoke ProxyRegistry access)\n     *\n     * @dev Can be called by the user only\n     * @param revoke Whether or not to revoke access\n     */\n    function setRevoke(bool revoke)\n        public\n    {\n        require(msg.sender == user);\n        revoked = revoke;\n        emit Revoked(revoke);\n    }\n\n    /**\n     * Execute a message call from the proxy contract\n     *\n     * @dev Can be called by the user, or by a contract authorized by the registry as long as the user has not revoked access\n     * @param dest Address to which the call will be sent\n     * @param howToCall Which kind of call to make\n     * @param calldata Calldata to send\n     * @return Result of the call (success or failure)\n     */\n    function proxy(address dest, HowToCall howToCall, bytes calldata)\n        public\n        returns (bool result)\n    {\n        require(msg.sender == user || (!revoked && registry.contracts(msg.sender)));\n        if (howToCall == HowToCall.Call) {\n            result = dest.call(calldata);\n        } else if (howToCall == HowToCall.DelegateCall) {\n            result = dest.delegatecall(calldata);\n        }\n        return result;\n    }\n\n    /**\n     * Execute a message call and assert success\n     * \n     * @dev Same functionality as `proxy`, just asserts the return value\n     * @param dest Address to which the call will be sent\n     * @param howToCall What kind of call to make\n     * @param calldata Calldata to send\n     */\n    function proxyAssert(address dest, HowToCall howToCall, bytes calldata)\n        public\n    {\n        require(proxy(dest, howToCall, calldata));\n    }\n\n}\n",
  "sourcePath": "/workspace/contracts/registry/AuthenticatedProxy.sol",
  "compiler": {
    "name": "solc",
    "version": "0.4.23+commit.124ca40d.Emscripten.clang"
  },
  "schemaVersion": "2.0.0",
  "updatedAt": "2023-04-27T06:47:32.278Z"
}