{
  "contractName": "Exchange",
  "abi": [
    {
      "constant": true,
      "inputs": [],
      "name": "tokenTransferProxy",
      "outputs": [
        {
          "name": "",
          "type": "address"
        }
      ],
      "payable": false,
      "stateMutability": "view",
      "type": "function"
    },
    {
      "constant": true,
      "inputs": [
        {
          "name": "target",
          "type": "address"
        },
        {
          "name": "calldata",
          "type": "bytes"
        },
        {
          "name": "extradata",
          "type": "bytes"
        }
      ],
      "name": "staticCall",
      "outputs": [
        {
          "name": "result",
          "type": "bool"
        }
      ],
      "payable": false,
      "stateMutability": "view",
      "type": "function"
    },
    {
      "constant": false,
      "inputs": [
        {
          "name": "newMinimumMakerProtocolFee",
          "type": "uint256"
        }
      ],
      "name": "changeMinimumMakerProtocolFee",
      "outputs": [],
      "payable": false,
      "stateMutability": "nonpayable",
      "type": "function"
    },
    {
      "constant": false,
      "inputs": [
        {
          "name": "newMinimumTakerProtocolFee",
          "type": "uint256"
        }
      ],
      "name": "changeMinimumTakerProtocolFee",
      "outputs": [],
      "payable": false,
      "stateMutability": "nonpayable",
      "type": "function"
    },
    {
      "constant": true,
      "inputs": [],
      "name": "minimumTakerProtocolFee",
      "outputs": [
        {
          "name": "",
          "type": "uint256"
        }
      ],
      "payable": false,
      "stateMutability": "view",
      "type": "function"
    },
    {
      "constant": false,
      "inputs": [
        {
          "name": "newProtocolFeeRecipient",
          "type": "address"
        }
      ],
      "name": "changeProtocolFeeRecipient",
      "outputs": [],
      "payable": false,
      "stateMutability": "nonpayable",
      "type": "function"
    },
    {
      "constant": true,
      "inputs": [],
      "name": "protocolFeeRecipient",
      "outputs": [
        {
          "name": "",
          "type": "address"
        }
      ],
      "payable": false,
      "stateMutability": "view",
      "type": "function"
    },
    {
      "constant": false,
      "inputs": [],
      "name": "renounceOwnership",
      "outputs": [],
      "payable": false,
      "stateMutability": "nonpayable",
      "type": "function"
    },
    {
      "constant": true,
      "inputs": [],
      "name": "registry",
      "outputs": [
        {
          "name": "",
          "type": "address"
        }
      ],
      "payable": false,
      "stateMutability": "view",
      "type": "function"
    },
    {
      "constant": true,
      "inputs": [],
      "name": "minimumMakerProtocolFee",
      "outputs": [
        {
          "name": "",
          "type": "uint256"
        }
      ],
      "payable": false,
      "stateMutability": "view",
      "type": "function"
    },
    {
      "constant": true,
      "inputs": [
        {
          "name": "",
          "type": "bytes32"
        }
      ],
      "name": "cancelledOrFinalized",
      "outputs": [
        {
          "name": "",
          "type": "bool"
        }
      ],
      "payable": false,
      "stateMutability": "view",
      "type": "function"
    },
    {
      "constant": true,
      "inputs": [],
      "name": "owner",
      "outputs": [
        {
          "name": "",
          "type": "address"
        }
      ],
      "payable": false,
      "stateMutability": "view",
      "type": "function"
    },
    {
      "constant": true,
      "inputs": [],
      "name": "exchangeToken",
      "outputs": [
        {
          "name": "",
          "type": "address"
        }
      ],
      "payable": false,
      "stateMutability": "view",
      "type": "function"
    },
    {
      "constant": true,
      "inputs": [],
      "name": "INVERSE_BASIS_POINT",
      "outputs": [
        {
          "name": "",
          "type": "uint256"
        }
      ],
      "payable": false,
      "stateMutability": "view",
      "type": "function"
    },
    {
      "constant": true,
      "inputs": [
        {
          "name": "",
          "type": "bytes32"
        }
      ],
      "name": "approvedOrders",
      "outputs": [
        {
          "name": "",
          "type": "bool"
        }
      ],
      "payable": false,
      "stateMutability": "view",
      "type": "function"
    },
    {
      "constant": false,
      "inputs": [
        {
          "name": "newOwner",
          "type": "address"
        }
      ],
      "name": "transferOwnership",
      "outputs": [],
      "payable": false,
      "stateMutability": "nonpayable",
      "type": "function"
    },
    {
      "anonymous": false,
      "inputs": [
        {
          "indexed": true,
          "name": "hash",
          "type": "bytes32"
        },
        {
          "indexed": false,
          "name": "exchange",
          "type": "address"
        },
        {
          "indexed": true,
          "name": "maker",
          "type": "address"
        },
        {
          "indexed": false,
          "name": "taker",
          "type": "address"
        },
        {
          "indexed": false,
          "name": "paymentRecipient",
          "type": "address"
        },
        {
          "indexed": false,
          "name": "makerRelayerFee",
          "type": "uint256"
        },
        {
          "indexed": false,
          "name": "takerRelayerFee",
          "type": "uint256"
        },
        {
          "indexed": false,
          "name": "makerProtocolFee",
          "type": "uint256"
        },
        {
          "indexed": false,
          "name": "takerProtocolFee",
          "type": "uint256"
        },
        {
          "indexed": true,
          "name": "feeRecipient",
          "type": "address"
        },
        {
          "indexed": false,
          "name": "feeMethod",
          "type": "uint8"
        },
        {
          "indexed": false,
          "name": "side",
          "type": "uint8"
        },
        {
          "indexed": false,
          "name": "saleKind",
          "type": "uint8"
        },
        {
          "indexed": false,
          "name": "target",
          "type": "address"
        }
      ],
      "name": "OrderApprovedPartOne",
      "type": "event"
    },
    {
      "anonymous": false,
      "inputs": [
        {
          "indexed": true,
          "name": "hash",
          "type": "bytes32"
        },
        {
          "indexed": false,
          "name": "howToCall",
          "type": "uint8"
        },
        {
          "indexed": false,
          "name": "calldata",
          "type": "bytes"
        },
        {
          "indexed": false,
          "name": "replacementPattern",
          "type": "bytes"
        },
        {
          "indexed": false,
          "name": "staticTarget",
          "type": "address"
        },
        {
          "indexed": false,
          "name": "staticExtradata",
          "type": "bytes"
        },
        {
          "indexed": false,
          "name": "paymentToken",
          "type": "address"
        },
        {
          "indexed": false,
          "name": "basePrice",
          "type": "uint256"
        },
        {
          "indexed": false,
          "name": "extra",
          "type": "uint256"
        },
        {
          "indexed": false,
          "name": "listingTime",
          "type": "uint256"
        },
        {
          "indexed": false,
          "name": "expirationTime",
          "type": "uint256"
        },
        {
          "indexed": false,
          "name": "salt",
          "type": "uint256"
        },
        {
          "indexed": false,
          "name": "orderbookInclusionDesired",
          "type": "bool"
        }
      ],
      "name": "OrderApprovedPartTwo",
      "type": "event"
    },
    {
      "anonymous": false,
      "inputs": [
        {
          "indexed": true,
          "name": "hash",
          "type": "bytes32"
        }
      ],
      "name": "OrderCancelled",
      "type": "event"
    },
    {
      "anonymous": false,
      "inputs": [
        {
          "indexed": false,
          "name": "buyHash",
          "type": "bytes32"
        },
        {
          "indexed": false,
          "name": "sellHash",
          "type": "bytes32"
        },
        {
          "indexed": true,
          "name": "maker",
          "type": "address"
        },
        {
          "indexed": true,
          "name": "taker",
          "type": "address"
        },
        {
          "indexed": false,
          "name": "paymentRecipient",
          "type": "address"
        },
        {
          "indexed": false,
          "name": "price",
          "type": "uint256"
        },
        {
          "indexed": true,
          "name": "metadata",
          "type": "bytes32"
        }
      ],
      "name": "OrdersMatched",
      "type": "event"
    },
    {
      "anonymous": false,
      "inputs": [
        {
          "indexed": true,
          "name": "previousOwner",
          "type": "address"
        }
      ],
      "name": "OwnershipRenounced",
      "type": "event"
    },
    {
      "anonymous": false,
      "inputs": [
        {
          "indexed": true,
          "name": "previousOwner",
          "type": "address"
        },
        {
          "indexed": true,
          "name": "newOwner",
          "type": "address"
        }
      ],
      "name": "OwnershipTransferred",
      "type": "event"
    },
    {
      "constant": true,
      "inputs": [
        {
          "name": "array",
          "type": "bytes"
        },
        {
          "name": "desired",
          "type": "bytes"
        },
        {
          "name": "mask",
          "type": "bytes"
        }
      ],
      "name": "guardedArrayReplace",
      "outputs": [
        {
          "name": "",
          "type": "bytes"
        }
      ],
      "payable": false,
      "stateMutability": "pure",
      "type": "function"
    },
    {
      "constant": true,
      "inputs": [
        {
          "name": "arrToCopy",
          "type": "bytes"
        }
      ],
      "name": "testCopy",
      "outputs": [
        {
          "name": "",
          "type": "bytes"
        }
      ],
      "payable": false,
      "stateMutability": "pure",
      "type": "function"
    },
    {
      "constant": true,
      "inputs": [
        {
          "name": "addr",
          "type": "address"
        }
      ],
      "name": "testCopyAddress",
      "outputs": [
        {
          "name": "",
          "type": "bytes"
        }
      ],
      "payable": false,
      "stateMutability": "pure",
      "type": "function"
    },
    {
      "constant": true,
      "inputs": [
        {
          "name": "side",
          "type": "uint8"
        },
        {
          "name": "saleKind",
          "type": "uint8"
        },
        {
          "name": "basePrice",
          "type": "uint256"
        },
        {
          "name": "extra",
          "type": "uint256"
        },
        {
          "name": "listingTime",
          "type": "uint256"
        },
        {
          "name": "expirationTime",
          "type": "uint256"
        }
      ],
      "name": "calculateFinalPrice",
      "outputs": [
        {
          "name": "",
          "type": "uint256"
        }
      ],
      "payable": false,
      "stateMutability": "view",
      "type": "function"
    },
    {
      "constant": true,
      "inputs": [
        {
          "name": "addrs",
          "type": "address[8]"
        },
        {
          "name": "uints",
          "type": "uint256[9]"
        },
        {
          "name": "feeMethod",
          "type": "uint8"
        },
        {
          "name": "side",
          "type": "uint8"
        },
        {
          "name": "saleKind",
          "type": "uint8"
        },
        {
          "name": "howToCall",
          "type": "uint8"
        },
        {
          "name": "calldata",
          "type": "bytes"
        },
        {
          "name": "replacementPattern",
          "type": "bytes"
        },
        {
          "name": "staticExtradata",
          "type": "bytes"
        }
      ],
      "name": "hashOrder_",
      "outputs": [
        {
          "name": "",
          "type": "bytes32"
        }
      ],
      "payable": false,
      "stateMutability": "pure",
      "type": "function"
    },
    {
      "constant": true,
      "inputs": [
        {
          "name": "addrs",
          "type": "address[8]"
        },
        {
          "name": "uints",
          "type": "uint256[9]"
        },
        {
          "name": "feeMethod",
          "type": "uint8"
        },
        {
          "name": "side",
          "type": "uint8"
        },
        {
          "name": "saleKind",
          "type": "uint8"
        },
        {
          "name": "howToCall",
          "type": "uint8"
        },
        {
          "name": "calldata",
          "type": "bytes"
        },
        {
          "name": "replacementPattern",
          "type": "bytes"
        },
        {
          "name": "staticExtradata",
          "type": "bytes"
        }
      ],
      "name": "hashToSign_",
      "outputs": [
        {
          "name": "",
          "type": "bytes32"
        }
      ],
      "payable": false,
      "stateMutability": "pure",
      "type": "function"
    },
    {
      "constant": true,
      "inputs": [
        {
          "name": "addrs",
          "type": "address[8]"
        },
        {
          "name": "uints",
          "type": "uint256[9]"
        },
        {
          "name": "feeMethod",
          "type": "uint8"
        },
        {
          "name": "side",
          "type": "uint8"
        },
        {
          "name": "saleKind",
          "type": "uint8"
        },
        {
          "name": "howToCall",
          "type": "uint8"
        },
        {
          "name": "calldata",
          "type": "bytes"
        },
        {
          "name": "replacementPattern",
          "type": "bytes"
        },
        {
          "name": "staticExtradata",
          "type": "bytes"
        }
      ],
      "name": "validateOrderParameters_",
      "outputs": [
        {
          "name": "",
          "type": "bool"
        }
      ],
      "payable": false,
      "stateMutability": "view",
      "type": "function"
    },
    {
      "constant": true,
      "inputs": [
        {
          "name": "addrs",
          "type": "address[8]"
        },
        {
          "name": "uints",
          "type": "uint256[9]"
        },
        {
          "name": "feeMethod",
          "type": "uint8"
        },
        {
          "name": "side",
          "type": "uint8"
        },
        {
          "name": "saleKind",
          "type": "uint8"
        },
        {
          "name": "howToCall",
          "type": "uint8"
        },
        {
          "name": "calldata",
          "type": "bytes"
        },
        {
          "name": "replacementPattern",
          "type": "bytes"
        },
        {
          "name": "staticExtradata",
          "type": "bytes"
        },
        {
          "name": "v",
          "type": "uint8"
        },
        {
          "name": "r",
          "type": "bytes32"
        },
        {
          "name": "s",
          "type": "bytes32"
        }
      ],
      "name": "validateOrder_",
      "outputs": [
        {
          "name": "",
          "type": "bool"
        }
      ],
      "payable": false,
      "stateMutability": "view",
      "type": "function"
    },
    {
      "constant": false,
      "inputs": [
        {
          "name": "addrs",
          "type": "address[8]"
        },
        {
          "name": "uints",
          "type": "uint256[9]"
        },
        {
          "name": "feeMethod",
          "type": "uint8"
        },
        {
          "name": "side",
          "type": "uint8"
        },
        {
          "name": "saleKind",
          "type": "uint8"
        },
        {
          "name": "howToCall",
          "type": "uint8"
        },
        {
          "name": "calldata",
          "type": "bytes"
        },
        {
          "name": "replacementPattern",
          "type": "bytes"
        },
        {
          "name": "staticExtradata",
          "type": "bytes"
        },
        {
          "name": "orderbookInclusionDesired",
          "type": "bool"
        }
      ],
      "name": "approveOrder_",
      "outputs": [],
      "payable": false,
      "stateMutability": "nonpayable",
      "type": "function"
    },
    {
      "constant": false,
      "inputs": [
        {
          "name": "addrs",
          "type": "address[8]"
        },
        {
          "name": "uints",
          "type": "uint256[9]"
        },
        {
          "name": "feeMethod",
          "type": "uint8"
        },
        {
          "name": "side",
          "type": "uint8"
        },
        {
          "name": "saleKind",
          "type": "uint8"
        },
        {
          "name": "howToCall",
          "type": "uint8"
        },
        {
          "name": "calldata",
          "type": "bytes"
        },
        {
          "name": "replacementPattern",
          "type": "bytes"
        },
        {
          "name": "staticExtradata",
          "type": "bytes"
        },
        {
          "name": "v",
          "type": "uint8"
        },
        {
          "name": "r",
          "type": "bytes32"
        },
        {
          "name": "s",
          "type": "bytes32"
        }
      ],
      "name": "cancelOrder_",
      "outputs": [],
      "payable": false,
      "stateMutability": "nonpayable",
      "type": "function"
    },
    {
      "constant": true,
      "inputs": [
        {
          "name": "addrs",
          "type": "address[8]"
        },
        {
          "name": "uints",
          "type": "uint256[9]"
        },
        {
          "name": "feeMethod",
          "type": "uint8"
        },
        {
          "name": "side",
          "type": "uint8"
        },
        {
          "name": "saleKind",
          "type": "uint8"
        },
        {
          "name": "howToCall",
          "type": "uint8"
        },
        {
          "name": "calldata",
          "type": "bytes"
        },
        {
          "name": "replacementPattern",
          "type": "bytes"
        },
        {
          "name": "staticExtradata",
          "type": "bytes"
        }
      ],
      "name": "calculateCurrentPrice_",
      "outputs": [
        {
          "name": "",
          "type": "uint256"
        }
      ],
      "payable": false,
      "stateMutability": "view",
      "type": "function"
    },
    {
      "constant": true,
      "inputs": [
        {
          "name": "addrs",
          "type": "address[16]"
        },
        {
          "name": "uints",
          "type": "uint256[18]"
        },
        {
          "name": "feeMethodsSidesKindsHowToCalls",
          "type": "uint8[8]"
        },
        {
          "name": "calldataBuy",
          "type": "bytes"
        },
        {
          "name": "calldataSell",
          "type": "bytes"
        },
        {
          "name": "replacementPatternBuy",
          "type": "bytes"
        },
        {
          "name": "replacementPatternSell",
          "type": "bytes"
        },
        {
          "name": "staticExtradataBuy",
          "type": "bytes"
        },
        {
          "name": "staticExtradataSell",
          "type": "bytes"
        }
      ],
      "name": "ordersCanMatch_",
      "outputs": [
        {
          "name": "",
          "type": "bool"
        }
      ],
      "payable": false,
      "stateMutability": "view",
      "type": "function"
    },
    {
      "constant": true,
      "inputs": [
        {
          "name": "buyCalldata",
          "type": "bytes"
        },
        {
          "name": "buyReplacementPattern",
          "type": "bytes"
        },
        {
          "name": "sellCalldata",
          "type": "bytes"
        },
        {
          "name": "sellReplacementPattern",
          "type": "bytes"
        }
      ],
      "name": "orderCalldataCanMatch",
      "outputs": [
        {
          "name": "",
          "type": "bool"
        }
      ],
      "payable": false,
      "stateMutability": "pure",
      "type": "function"
    },
    {
      "constant": true,
      "inputs": [
        {
          "name": "addrs",
          "type": "address[16]"
        },
        {
          "name": "uints",
          "type": "uint256[18]"
        },
        {
          "name": "feeMethodsSidesKindsHowToCalls",
          "type": "uint8[8]"
        },
        {
          "name": "calldataBuy",
          "type": "bytes"
        },
        {
          "name": "calldataSell",
          "type": "bytes"
        },
        {
          "name": "replacementPatternBuy",
          "type": "bytes"
        },
        {
          "name": "replacementPatternSell",
          "type": "bytes"
        },
        {
          "name": "staticExtradataBuy",
          "type": "bytes"
        },
        {
          "name": "staticExtradataSell",
          "type": "bytes"
        }
      ],
      "name": "calculateMatchPrice_",
      "outputs": [
        {
          "name": "",
          "type": "uint256"
        }
      ],
      "payable": false,
      "stateMutability": "view",
      "type": "function"
    },
    {
      "constant": false,
      "inputs": [
        {
          "name": "addrs",
          "type": "address[16]"
        },
        {
          "name": "uints",
          "type": "uint256[18]"
        },
        {
          "name": "feeMethodsSidesKindsHowToCalls",
          "type": "uint8[8]"
        },
        {
          "name": "calldataBuy",
          "type": "bytes"
        },
        {
          "name": "calldataSell",
          "type": "bytes"
        },
        {
          "name": "replacementPatternBuy",
          "type": "bytes"
        },
        {
          "name": "replacementPatternSell",
          "type": "bytes"
        },
        {
          "name": "staticExtradataBuy",
          "type": "bytes"
        },
        {
          "name": "staticExtradataSell",
          "type": "bytes"
        },
        {
          "name": "vs",
          "type": "uint8[2]"
        },
        {
          "name": "rssMetadata",
          "type": "bytes32[5]"
        }
      ],
      "name": "atomicMatch_",
      "outputs": [],
      "payable": true,
      "stateMutability": "payable",
      "type": "function"
    }
  ],
  "bytecode": "0x60806040526000805460068290556007829055600160a060020a03331661010002600160a860020a0319909116179055614e368061003e6000396000f3006080604052600436106101715763ffffffff60e060020a6000350416630789d1c781146101765780630eefdbad1461038f57806310796a47146103c057806314350c2414610479578063156d6f57146104935780631a6b13e2146105e957806321bee27c14610601578063239e83df1461074c57806323c137201461089657806328a8ee68146109dd5780632cb5734e146109f25780633464af6a14610c355780633e1e292a14610c5657806344a86e6214610caf578063514f033014610eb6578063562b2ebc14610ed757806363d36c0b14610fea57806364df049e146110175780637085816b1461102c578063715018a6146111825780637b103999146111975780637ccefc52146111ac5780638076f005146111c15780638be95fed146111d95780638da5cb5b14611320578063a25eb5d914611335578063bc24e8f91461134a578063bea7889b14611491578063cae6047f146115d8578063e57d4adb146115ed578063f2fde38b14611605575b600080fd5b34801561018257600080fd5b506040805161020081810190925261037d9136916004916102049190839060109083908390808284375050604080516102408181019092529497969581810195945092506012915083908390808284375050604080516101008181019092529497969581810195945092506008915083908390808284375050604080516020601f88358a0180359182018390048302840183019094528083529699989781019691955091820193509150819084018382808284375050604080516020601f89358b018035918201839004830284018301909452808352979a99988101979196509182019450925082915084018382808284375050604080516020601f89358b018035918201839004830284018301909452808352979a99988101979196509182019450925082915084018382808284375050604080516020601f89358b018035918201839004830284018301909452808352979a99988101979196509182019450925082915084018382808284375050604080516020601f89358b018035918201839004830284018301909452808352979a99988101979196509182019450925082915084018382808284375050604080516020601f89358b018035918201839004830284018301909452808352979a9998810197919650918201945092508291508401838280828437509497506116269650505050505050565b60408051918252519081900360200190f35b34801561039b57600080fd5b506103a4611a45565b60408051600160a060020a039092168252519081900360200190f35b3480156103cc57600080fd5b5060408051602060046024803582810135601f8101859004850286018501909652858552610465958335600160a060020a031695369560449491939091019190819084018382808284375050604080516020601f89358b018035918201839004830284018301909452808352979a999881019791965091820194509250829150840183828082843750949750611a549650505050505050565b604080519115158252519081900360200190f35b34801561048557600080fd5b50610491600435611ac3565b005b34801561049f57600080fd5b50604080516101008181019092526104659136916004916101049190839060089083908390808284375050604080516101208181019092529497969581810195945092506009915083908390808284375050604080516020601f60808901358a0180359182018390048302840183018552818452979a60ff8a3581169b848c013582169b9687013582169a6060880135909216995091975090955060a090940193820191819084018382808284375050604080516020601f89358b018035918201839004830284018301909452808352979a99988101979196509182019450925082915084018382808284375050604080516020601f89358b018035918201839004830284018301909452808352979a9998810197919650918201945092508291508401838280828437509497505050833560ff1694505050602082013591604001359050611ae8565b3480156105f557600080fd5b50610491600435611cf0565b34801561060d57600080fd5b50604080516101008181019092526104919136916004916101049190839060089083908390808284375050604080516101208181019092529497969581810195945092506009915083908390808284375050604080516020601f60808901358a0180359182018390048302840183018552818452979a60ff8a3581169b848c013582169b9687013582169a6060880135909216995091975090955060a090940193820191819084018382808284375050604080516020601f89358b018035918201839004830284018301909452808352979a99988101979196509182019450925082915084018382808284375050604080516020601f89358b018035918201839004830284018301909452808352979a999881019791965091820194509250829150840183828082843750949750505050913515159250611d15915050565b34801561075857600080fd5b506040805160206004803580820135601f810184900484028501840190955284845261082194369492936024939284019190819084018382808284375050604080516020601f89358b018035918201839004830284018301909452808352979a99988101979196509182019450925082915084018382808284375050604080516020601f89358b018035918201839004830284018301909452808352979a999881019791965091820194509250829150840183828082843750949750611ecb9650505050505050565b6040805160208082528351818301528351919283929083019185019080838360005b8381101561085b578181015183820152602001610843565b50505050905090810190601f1680156108885780820380516001836020036101000a031916815260200191505b509250505060405180910390f35b3480156108a257600080fd5b506040805161010081810190925261037d9136916004916101049190839060089083908390808284375050604080516101208181019092529497969581810195945092506009915083908390808284375050604080516020601f60808901358a0180359182018390048302840183018552818452979a60ff8a3581169b848c013582169b9687013582169a6060880135909216995091975090955060a090940193820191819084018382808284375050604080516020601f89358b018035918201839004830284018301909452808352979a99988101979196509182019450925082915084018382808284375050604080516020601f89358b018035918201839004830284018301909452808352979a999881019791965091820194509250829150840183828082843750949750611ee29650505050505050565b3480156109e957600080fd5b5061037d61203e565b604080516102008181019092526104919136916004916102049190839060109083908390808284375050604080516102408181019092529497969581810195945092506012915083908390808284375050604080516101008181019092529497969581810195945092506008915083908390808284375050604080516020601f88358a0180359182018390048302840183019094528083529699989781019691955091820193509150819084018382808284375050604080516020601f89358b018035918201839004830284018301909452808352979a99988101979196509182019450925082915084018382808284375050604080516020601f89358b018035918201839004830284018301909452808352979a99988101979196509182019450925082915084018382808284375050604080516020601f89358b018035918201839004830284018301909452808352979a99988101979196509182019450925082915084018382808284375050604080516020601f89358b018035918201839004830284018301909452808352979a99988101979196509182019450925082915084018382808284375050604080516020601f89358b018035918201839004830284018301909452808352979a999881019791965091820194509250829150840183828082843750506040805180820182529598979681810196955093506002925084915083908082843750506040805160a08181019092529497969581810195945092506005915083908390808284375093965061204495505050505050565b348015610c4157600080fd5b50610821600160a060020a03600435166124db565b348015610c6257600080fd5b506040805160206004803580820135601f810184900484028501840190955284845261082194369492936024939284019190819084018382808284375094975061251b9650505050505050565b348015610cbb57600080fd5b50604080516102008181019092526104659136916004916102049190839060109083908390808284375050604080516102408181019092529497969581810195945092506012915083908390808284375050604080516101008181019092529497969581810195945092506008915083908390808284375050604080516020601f88358a0180359182018390048302840183019094528083529699989781019691955091820193509150819084018382808284375050604080516020601f89358b018035918201839004830284018301909452808352979a99988101979196509182019450925082915084018382808284375050604080516020601f89358b018035918201839004830284018301909452808352979a99988101979196509182019450925082915084018382808284375050604080516020601f89358b018035918201839004830284018301909452808352979a99988101979196509182019450925082915084018382808284375050604080516020601f89358b018035918201839004830284018301909452808352979a99988101979196509182019450925082915084018382808284375050604080516020601f89358b018035918201839004830284018301909452808352979a9998810197919650918201945092508291508401838280828437509497506125619650505050505050565b348015610ec257600080fd5b50610491600160a060020a0360043516612970565b348015610ee357600080fd5b506040805160206004803580820135601f810184900484028501840190955284845261046594369492936024939284019190819084018382808284375050604080516020601f89358b018035918201839004830284018301909452808352979a99988101979196509182019450925082915084018382808284375050604080516020601f89358b018035918201839004830284018301909452808352979a99988101979196509182019450925082915084018382808284375050604080516020601f89358b018035918201839004830284018301909452808352979a9998810197919650918201945092508291508401838280828437509497506129bf9650505050505050565b348015610ff657600080fd5b5061037d60ff6004358116906024351660443560643560843560a4356129fd565b34801561102357600080fd5b506103a4612a18565b34801561103857600080fd5b50604080516101008181019092526104919136916004916101049190839060089083908390808284375050604080516101208181019092529497969581810195945092506009915083908390808284375050604080516020601f60808901358a0180359182018390048302840183018552818452979a60ff8a3581169b848c013582169b9687013582169a6060880135909216995091975090955060a090940193820191819084018382808284375050604080516020601f89358b018035918201839004830284018301909452808352979a99988101979196509182019450925082915084018382808284375050604080516020601f89358b018035918201839004830284018301909452808352979a9998810197919650918201945092508291508401838280828437509497505050833560ff1694505050602082013591604001359050612a27565b34801561118e57600080fd5b50610491612c08565b3480156111a357600080fd5b506103a4612c82565b3480156111b857600080fd5b5061037d612c91565b3480156111cd57600080fd5b50610465600435612c97565b3480156111e557600080fd5b50604080516101008181019092526104659136916004916101049190839060089083908390808284375050604080516101208181019092529497969581810195945092506009915083908390808284375050604080516020601f60808901358a0180359182018390048302840183018552818452979a60ff8a3581169b848c013582169b9687013582169a6060880135909216995091975090955060a090940193820191819084018382808284375050604080516020601f89358b018035918201839004830284018301909452808352979a99988101979196509182019450925082915084018382808284375050604080516020601f89358b018035918201839004830284018301909452808352979a999881019791965091820194509250829150840183828082843750949750612cac9650505050505050565b34801561132c57600080fd5b506103a4612e65565b34801561134157600080fd5b506103a4612e79565b34801561135657600080fd5b506040805161010081810190925261037d9136916004916101049190839060089083908390808284375050604080516101208181019092529497969581810195945092506009915083908390808284375050604080516020601f60808901358a0180359182018390048302840183018552818452979a60ff8a3581169b848c013582169b9687013582169a6060880135909216995091975090955060a090940193820191819084018382808284375050604080516020601f89358b018035918201839004830284018301909452808352979a99988101979196509182019450925082915084018382808284375050604080516020601f89358b018035918201839004830284018301909452808352979a999881019791965091820194509250829150840183828082843750949750612e889650505050505050565b34801561149d57600080fd5b506040805161010081810190925261037d9136916004916101049190839060089083908390808284375050604080516101208181019092529497969581810195945092506009915083908390808284375050604080516020601f60808901358a0180359182018390048302840183018552818452979a60ff8a3581169b848c013582169b9687013582169a6060880135909216995091975090955060a090940193820191819084018382808284375050604080516020601f89358b018035918201839004830284018301909452808352979a99988101979196509182019450925082915084018382808284375050604080516020601f89358b018035918201839004830284018301909452808352979a999881019791965091820194509250829150840183828082843750949750612fd69650505050505050565b3480156115e457600080fd5b5061037d613124565b3480156115f957600080fd5b5061046560043561312a565b34801561161157600080fd5b50610491600160a060020a036004351661313f565b6000611630614d3e565b611638614d3e565b604080516103008101909152808d600060209081029190910151600160a060020a03168252018d600160209081029190910151600160a060020a03168252018d600260209081029190910151600160a060020a03168252018d600360209081029190910151600160a060020a03168252018c6000602090810291909101518252018c6001602090810291909101518252018c6002602090810291909101518252018c6003602090810291909101518252018d600460209081029190910151600160a060020a03168252018b6000602002015160ff16600181111561171857fe5b600181111561172357fe5b81526020018b6001602002015160ff16600181111561173e57fe5b600181111561174957fe5b81526020018b6002602002015160ff16600181111561176457fe5b600181111561176f57fe5b815260a08e0151600160a060020a0316602082015260608c015160409091019060ff16600181111561179d57fe5b60018111156117a857fe5b8152602081018b90526040810189905260c08e0151600160a060020a031660608201526080810187905260a0018d600760209081029190910151600160a060020a03168252018c6004602090810291909101518252018c6005602090810291909101518252018c6006602090810291909101518252018c6007602090810291909101518252018c600860200201519052604080516103008101909152909250808d600860209081029190910151600160a060020a03168252018d600960209081029190910151600160a060020a03168252018d600a60209081029190910151600160a060020a03168252018d600b60209081029190910151600160a060020a03168252018c6009602090810291909101518252018c600a602090810291909101518252018c600b602090810291909101518252018c600c602090810291909101518252018d600c60209081029190910151600160a060020a03168252018b6004602002015160ff16600181111561191b57fe5b600181111561192657fe5b81526020018b6005602002015160ff16600181111561194157fe5b600181111561194c57fe5b81526020018b6006602002015160ff16600181111561196757fe5b600181111561197257fe5b81526101a08e0151600160a060020a0316602082015260e08c015160409091019060ff1660018111156119a157fe5b60018111156119ac57fe5b8152602081018a9052604081018890526101c08e0151600160a060020a031660608201526080810186905260a0018d600f60209081029190910151600160a060020a031682526101a08e0151908201526101c08d015160408201526101e08d015160608201526102008d015160808201526102208d015160a0909101529050611a3582826131e7565b9c9b505050505050505050505050565b600354600160a060020a031681565b60006060600083518551016040519080825280601f01601f191660200182016040528015611a8c578160200160208202803883390190505b5091505060208101611a9e8185613278565b9050611aaa8186613278565b506000604051835160208501895afa9695505050505050565b60005433600160a060020a039081166101009092041614611ae357600080fd5b600655565b6000611af2614d3e565b604080516103008101909152808f600060209081029190910151600160a060020a03168252018f600160209081029190910151600160a060020a03168252018f600260209081029190910151600160a060020a03168252018f600360209081029190910151600160a060020a03168252018e6000602090810291909101518252018e6001602090810291909101518252018e6002602090810291909101518252018e6003602090810291909101518252018f60046020020151600160a060020a031681526020018d6001811115611bc557fe5b81526020018c6001811115611bd657fe5b81526020018b6001811115611be757fe5b81526020018f60056020020151600160a060020a031681526020018a6001811115611c0e57fe5b8152602081018a9052604081018990526060018f60066020020151600160a060020a031681526020018781526020018f6007600881101515611c4c57fe5b60209081029190910151600160a060020a03168252018e6004602090810291909101518252018e6005602090810291909101518252018e6006602090810291909101518252018e6007602090810291909101518252018e6008602002015190529050611cde611cba826132be565b6040805160608101825260ff8916815260208101889052908101869052839061330a565b9e9d5050505050505050505050505050565b60005433600160a060020a039081166101009092041614611d1057600080fd5b600755565b611d1d614d3e565b604080516103008101909152808c600060209081029190910151600160a060020a03168252018c600160209081029190910151600160a060020a03168252018c600260209081029190910151600160a060020a03168252018c600360209081029190910151600160a060020a03168252018b6000602090810291909101518252018b6001602090810291909101518252018b6002602090810291909101518252018b6003602090810291909101518252018c60046020020151600160a060020a031681526020018a6001811115611df057fe5b8152602001896001811115611e0157fe5b8152602001886001811115611e1257fe5b815260a08d0151600160a060020a03166020820152604001876001811115611e3657fe5b8152602081018790526040810186905260c08d0151600160a060020a031660608201526080810185905260a0018c600760209081029190910151600160a060020a031682526080808e01519183019190915260a0808e0151604084015260c08e0151606084015260e08e0151918301919091526101008d01519101529050611ebe81836133ff565b5050505050505050505050565b6060611ed8848484613476565b50825b9392505050565b60408051610300810182528a51600160a060020a0390811682526020808d01518216818401528c8401518216838501526060808e01518316818501528c51608080860191909152918d015160a0850152938c015160c0840152928b015160e0830152918b01519091166101008201526000906120309061012081018a6001811115611f6957fe5b8152602001896001811115611f7a57fe5b8152602001886001811115611f8b57fe5b815260a08d0151600160a060020a03166020820152604001876001811115611faf57fe5b8152602081018790526040810186905260c08d0151600160a060020a031660608201526080810185905260a0018c600760209081029190910151600160a060020a031682526080808e01519183019190915260a0808e0151604084015260c08e0151606084015260e08e0151918301919091526101008d01519101526135fd565b9a9950505050505050505050565b60075481565b604080516103008101909152611ebe90808d600060209081029190910151600160a060020a03168252018d600160209081029190910151600160a060020a03168252018d600260209081029190910151600160a060020a03168252018d600360209081029190910151600160a060020a03168252018c6000602090810291909101518252018c6001602090810291909101518252018c6002602090810291909101518252018c6003602090810291909101518252018d600460209081029190910151600160a060020a03168252018b6000602002015160ff16600181111561212857fe5b600181111561213357fe5b81526020018b6001602002015160ff16600181111561214e57fe5b600181111561215957fe5b81526020018b6002602002015160ff16600181111561217457fe5b600181111561217f57fe5b815260a08e0151600160a060020a0316602082015260608c015160409091019060ff1660018111156121ad57fe5b60018111156121b857fe5b8152602081018b90526040810189905260c08e0151600160a060020a031660608201526080810187905260a0018d600760209081029190910151600160a060020a03168252018c6004602090810291909101518252018c6005602090810291909101518252018c6006602090810291909101518252018c6007602090810291909101518252018c6008602002015190526040805160608101909152808560006020908102919091015160ff168252018460006020908102919091015182520184600160200201519052604080516103008101909152808f600860209081029190910151600160a060020a03168252018f600960209081029190910151600160a060020a03168252018f600a60209081029190910151600160a060020a03168252018f600b60209081029190910151600160a060020a03168252018e6009602090810291909101518252018e600a602090810291909101518252018e600b602090810291909101518252018e600c602090810291909101518252018f600c60209081029190910151600160a060020a03168252018d6004602002015160ff16600181111561236157fe5b600181111561236c57fe5b81526020018d6005602002015160ff16600181111561238757fe5b600181111561239257fe5b81526020018d6006602002015160ff1660018111156123ad57fe5b60018111156123b857fe5b81526020018f600d60209081029190910151600160a060020a03168252018d6007602002015160ff1660018111156123ec57fe5b60018111156123f757fe5b8152602081018c9052604081018a90526060018f600e6020020151600160a060020a031681526020018781526020018f600f60108110151561243557fe5b60209081029190910151600160a060020a03168252018e600d602090810291909101518252018e600e602090810291909101518252018e600f602090810291909101518252018e6010602090810291909101518252018e6011602002015190526040805160608101909152808760016020908102919091015160ff16825201866002602090810291909101518252018660036020020151905285600460200201516137fd565b6040805160148082528183019092526060918291600091602082016102808038833901905050915050602081016125128185613de9565b50909392505050565b606080600083516040519080825280601f01601f19166020018201604052801561254f578160200160208202803883390190505b50915050602081016125128185613278565b600061256b614d3e565b612573614d3e565b604080516103008101909152808d600060209081029190910151600160a060020a03168252018d600160209081029190910151600160a060020a03168252018d600260209081029190910151600160a060020a03168252018d600360209081029190910151600160a060020a03168252018c6000602090810291909101518252018c6001602090810291909101518252018c6002602090810291909101518252018c6003602090810291909101518252018d600460209081029190910151600160a060020a03168252018b6000602002015160ff16600181111561265357fe5b600181111561265e57fe5b81526020018b6001602002015160ff16600181111561267957fe5b600181111561268457fe5b81526020018b6002602002015160ff16600181111561269f57fe5b60018111156126aa57fe5b815260a08e0151600160a060020a0316602082015260608c015160409091019060ff1660018111156126d857fe5b60018111156126e357fe5b8152602081018b90526040810189905260c08e0151600160a060020a031660608201526080810187905260a0018d600760209081029190910151600160a060020a03168252018c6004602090810291909101518252018c6005602090810291909101518252018c6006602090810291909101518252018c6007602090810291909101518252018c600860200201519052604080516103008101909152909250808d600860209081029190910151600160a060020a03168252018d600960209081029190910151600160a060020a03168252018d600a60209081029190910151600160a060020a03168252018d600b60209081029190910151600160a060020a03168252018c6009602090810291909101518252018c600a602090810291909101518252018c600b602090810291909101518252018c600c602090810291909101518252018d600c60209081029190910151600160a060020a03168252018b6004602002015160ff16600181111561285657fe5b600181111561286157fe5b81526020018b6005602002015160ff16600181111561287c57fe5b600181111561288757fe5b81526020018b6006602002015160ff1660018111156128a257fe5b60018111156128ad57fe5b81526101a08e0151600160a060020a0316602082015260e08c015160409091019060ff1660018111156128dc57fe5b60018111156128e757fe5b8152602081018a9052604081018890526101c08e0151600160a060020a031660608201526080810186905260a0018d600f60209081029190910151600160a060020a031682526101a08e0151908201526101c08d015160408201526101e08d015160608201526102008d015160808201526102208d015160a0909101529050611a358282613e09565b60005433600160a060020a03908116610100909204161461299057600080fd5b6008805473ffffffffffffffffffffffffffffffffffffffff1916600160a060020a0392909216919091179055565b600080845111156129d5576129d5858486613476565b6000825111156129ea576129ea838684613476565b6129f48584613fe7565b95945050505050565b6000612a0d87878787878761404b565b979650505050505050565b600854600160a060020a031681565b604080516103008101909152612bfa90808e600060209081029190910151600160a060020a03168252018e600160209081029190910151600160a060020a03168252018e600260209081029190910151600160a060020a03168252018e600360209081029190910151600160a060020a03168252018d6000602090810291909101518252018d6001602090810291909101518252018d6002602090810291909101518252018d6003602090810291909101518252018e60046020020151600160a060020a031681526020018c6001811115612afe57fe5b81526020018b6001811115612b0f57fe5b81526020018a6001811115612b2057fe5b815260a08f0151600160a060020a03166020820152604001896001811115612b4457fe5b8152602081018990526040810188905260c08f0151600160a060020a031660608201526080810187905260a0018e600760209081029190910151600160a060020a03168252018d6004602090810291909101518252018d6005602090810291909101518252018d6006602090810291909101518252018d6007602090810291909101518252018d6008602090810291909101519091526040805160608101825260ff8816815291820186905281018490526140de565b505050505050505050505050565b60005433600160a060020a039081166101009092041614612c2857600080fd5b60008054604051610100909104600160a060020a0316917ff8df31144d9c2f0f6b59d69b8b98abd5459d07f2742c4df920b25aae33c6482091a26000805474ffffffffffffffffffffffffffffffffffffffff0019169055565b600254600160a060020a031681565b60065481565b60046020526000908152604090205460ff1681565b6000612cb6614d3e565b604080516103008101909152808c600060209081029190910151600160a060020a03168252018c600160209081029190910151600160a060020a03168252018c600260209081029190910151600160a060020a03168252018c600360209081029190910151600160a060020a03168252018b6000602090810291909101518252018b6001602090810291909101518252018b6002602090810291909101518252018b6003602090810291909101518252018c60046020020151600160a060020a031681526020018a6001811115612d8957fe5b8152602001896001811115612d9a57fe5b8152602001886001811115612dab57fe5b815260a08d0151600160a060020a03166020820152604001876001811115612dcf57fe5b8152602081018790526040810186905260c08d0151600160a060020a031660608201526080810185905260a0018c600760209081029190910151600160a060020a031682526080808e01519183019190915260a0808e0151604084015260c08e0151606084015260e08e0151918301919091526101008d01519101529050612e5681614155565b9b9a5050505050505050505050565b6000546101009004600160a060020a031681565b600154600160a060020a031681565b60408051610300810182528a51600160a060020a0390811682526020808d01518216818401528c8401518216838501526060808e01518316818501528c51608080860191909152918d015160a0850152938c015160c0840152928b015160e0830152918b01519091166101008201526000906120309061012081018a6001811115612f0f57fe5b8152602001896001811115612f2057fe5b8152602001886001811115612f3157fe5b815260a08d0151600160a060020a03166020820152604001876001811115612f5557fe5b8152602081018790526040810186905260c08d0151600160a060020a031660608201526080810185905260a0018c600760209081029190910151600160a060020a031682526080808e01519183019190915260a0808e0151604084015260c08e0151606084015260e08e0151918301919091526101008d01519101526141e9565b60408051610300810182528a51600160a060020a0390811682526020808d01518216818401528c8401518216838501526060808e01518316818501528c51608080860191909152918d015160a0850152938c015160c0840152928b015160e0830152918b01519091166101008201526000906120309061012081018a600181111561305d57fe5b815260200189600181111561306e57fe5b815260200188600181111561307f57fe5b815260a08d0151600160a060020a031660208201526040018760018111156130a357fe5b8152602081018790526040810186905260c08d0151600160a060020a031660608201526080810185905260a0018c600760209081029190910151600160a060020a031682526080808e01519183019190915260a0808e0151604084015260c08e0151606084015260e08e0151918301919091526101008d01519101526132be565b61271081565b60056020526000908152604090205460ff1681565b60005433600160a060020a03908116610100909204161461315f57600080fd5b600160a060020a038116151561317457600080fd5b60008054604051600160a060020a038085169361010090930416917f8be0079c531659141344cd1fd0a4f28419497f9722a3daafe3b4186f6b6457e091a360008054600160a060020a039092166101000274ffffffffffffffffffffffffffffffffffffffff0019909216919091179055565b6000806000613218846101400151856101600151866102600151876102800151886102a00151896102c0015161404b565b9150613246856101400151866101600151876102600151886102800151896102a001518a6102c0015161404b565b90508181101561325557600080fd5b610100840151600160a060020a0316151561327057806129f4565b509392505050565b600080825111156132b557815180602001830160208401855b600183831014156132ac578151815260209182019101613291565b50505092909201915b50815b92915050565b60006132c9826135fd565b604080517f19457468657265756d205369676e6564204d6573736167653a0a3332000000008152601c8101929092525190819003603c01902090505b919050565b600061331583614155565b151561332357506000611edb565b60008481526004602052604090205460ff161561334257506000611edb565b60008481526005602052604090205460ff161561336157506001611edb565b602080840151835184830151604080870151815160008082528188018085528c905260ff909516818401526060810193909352608083015251600160a060020a039093169360019360a0808401949293601f19830193908390039091019190865af11580156133d4573d6000803e3d6000fd5b50505060206040510351600160a060020a031614156133f557506001611edb565b5060009392505050565b60008260200151600160a060020a031633600160a060020a031614151561342557600080fd5b61342e836132be565b60008181526005602052604090205490915060ff161561344d57600080fd5b6000818152600560205260409020805460ff19166001179055613471818484614217565b505050565b60008060008451865114151561348b57600080fd5b835186511461349957600080fd5b85516020900492506020808402925083908304146134b357fe5b5060005b828110156134e357600101602081028481015186820151918801805192821691199092161790526134b7565b600083111561351357829050806001016020028085015181870151811682890151821916178289015250506135f5565b50805b85518110156135f557848181518110151561352d57fe5b90602001015160f860020a900460f860020a02848281518110151561354e57fe5b90602001015160f860020a900460f860020a0216868281518110151561357057fe5b90602001015160f860020a900460f860020a02858381518110151561359157fe5b90602001015160f860020a900460f860020a0260ff60f860020a0218161786828151811015156135bd57fe5b9060200101907effffffffffffffffffffffffffffffffffffffffffffffffffffffffffffff1916908160001a905350600101613516565b505050505050565b6000806060600061360d85614582565b9250826040519080825280601f01601f19166020018201604052801561363d578160200160208202803883390190505b509150602082019050613654818660000151613de9565b9050613664818660200151613de9565b9050613674818660400151613de9565b9050613684818660600151613de9565b90506136948186608001516145a2565b90506136a4818660a001516145a2565b90506136b4818660c001516145a2565b90506136c4818660e001516145a2565b90506136d581866101000151613de9565b90506136f18186610120015160018111156136ec57fe5b6145aa565b90506137088186610140015160018111156136ec57fe5b905061371f8186610160015160018111156136ec57fe5b905061373081866101800151613de9565b905061374781866101a0015160018111156136ec57fe5b905061375881866101c00151613278565b905061376981866101e00151613278565b905061377a81866102000151613de9565b905061378b81866102200151613278565b905061379c81866102400151613de9565b90506137ad818661026001516145a2565b90506137be818661028001516145a2565b90506137cf81866102a001516145a2565b90506137e081866102c001516145a2565b90506137f181866102e001516145a2565b50506020012092915050565b6000805481908190819081908190819060ff161561381a57600080fd5b6000805460ff1916600117905560208c0151600160a060020a039081163391909116141561385b5761384b8c614155565b151561385657600080fd5b613868565b6138658c8c6145b7565b96505b33600160a060020a03168a60200151600160a060020a0316141561389f5761388f8a614155565b151561389a57600080fd5b6138ac565b6138a98a8a6145b7565b95505b6138b68c8b613e09565b15156138c157600080fd5b6101808a0151803b95509350600085116138da57600080fd5b60008c6101e00151511115613903576139038c6101c001518b6101c001518e6101e00151613476565b60008a6101e0015151111561392c5761392c8a6101c001518d6101c001518c6101e00151613476565b6139408c6101c001518b6101c00151613fe7565b151561394b57600080fd5b6002546020808c0151604080517fc4552791000000000000000000000000000000000000000000000000000000008152600160a060020a0392831660048201529051919093169263c45527919260248083019391928290030181600087803b1580156139b657600080fd5b505af11580156139ca573d6000803e3d6000fd5b505050506040513d60208110156139e057600080fd5b50519250600160a060020a03831615156139f957600080fd5b600260009054906101000a9004600160a060020a0316600160a060020a03166397204d8e6040518163ffffffff1660e060020a028152600401602060405180830381600087803b158015613a4c57600080fd5b505af1158015613a60573d6000803e3d6000fd5b505050506040513d6020811015613a7657600080fd5b5051604080517f5c60da1b0000000000000000000000000000000000000000000000000000000081529051600160a060020a0392831692861691635c60da1b9160048083019260209291908290030181600087803b158015613ad757600080fd5b505af1158015613aeb573d6000803e3d6000fd5b505050506040513d6020811015613b0157600080fd5b5051600160a060020a031614613b1657600080fd5b8291508b60200151600160a060020a031633600160a060020a0316141515613b52576000878152600460205260409020805460ff191660011790555b8960200151600160a060020a031633600160a060020a0316141515613b8b576000868152600460205260409020805460ff191660011790555b613b958c8b6145db565b905081600160a060020a0316631b0f7ba98b61018001518c6101a001518d6101c001516040518463ffffffff1660e060020a0281526004018084600160a060020a0316600160a060020a03168152602001836001811115613bf257fe5b60ff16815260200180602001828103825283818151815260200191508051906020019080838360005b83811015613c33578181015183820152602001613c1b565b50505050905090810190601f168015613c605780820380516001836020036101000a031916815260200191505b50945050505050602060405180830381600087803b158015613c8157600080fd5b505af1158015613c95573d6000803e3d6000fd5b505050506040513d6020811015613cab57600080fd5b50511515613cb857600080fd5b6102008c0151600160a060020a031615613cf157613ce68c61020001518b6101c001518e6102200151611a54565b1515613cf157600080fd5b6102008a0151600160a060020a031615613d2a57613d1f8a61020001518b6101c001518c6102200151611a54565b1515613d2a57600080fd5b6101008a01518890600160a060020a03161515613d4b578a60200151613d51565b8c602001515b6101008c0151600160a060020a0391821691161515613d74578d60200151613d7a565b8b602001515b6060808e0151604080518d8152602081018d9052600160a060020a0392831681830152928301879052519216917fdb77b519bead271b959f1e56721e822436efe1d7341c6a32ce4a5e3948c49def9181900360800190a450506000805460ff1916905550505050505050505050565b600160a060020a03166c0100000000000000000000000002815260140190565b6000808361014001516001811115613e1d57fe5b148015613e3a575060018261014001516001811115613e3857fe5b145b8015613e6557508161012001516001811115613e5257fe5b8361012001516001811115613e6357fe5b145b8015613e8c5750816102400151600160a060020a0316836102400151600160a060020a0316145b8015613ec657506040820151600160a060020a03161580613ec657508260200151600160a060020a03168260400151600160a060020a0316145b8015613f0057506040830151600160a060020a03161580613f0057508160200151600160a060020a03168360400151600160a060020a0316145b8015613f5f5750610100820151600160a060020a0316158015613f305750610100830151600160a060020a031615155b80613f5f5750610100820151600160a060020a031615801590613f5f5750610100830151600160a060020a0316155b8015613f865750816101800151600160a060020a0316836101800151600160a060020a0316145b8015613fb15750816101a001516001811115613f9e57fe5b836101a001516001811115613faf57fe5b145b8015613fcc5750613fcc836102a00151846102c00151614bc9565b8015611edb5750611edb826102a00151836102c00151614bc9565b8151815160009160019181148083146140035760009250614041565b600160208701838101602088015b60028483851001141561403c5780518351146140305760009650600093505b60209283019201614011565b505050505b5090949350505050565b6000808087600181111561405b57fe5b1415614069578591506140d3565b600187600181111561407757fe5b14156140d3576140a26140938661408e4288614be5565b614bf7565b61409d8587614be5565b614c20565b905060018860018111156140b257fe5b14156140c9576140c28682614be5565b91506140d3565b6140c28682614c35565b509695505050505050565b60006140ea83836145b7565b90508260200151600160a060020a031633600160a060020a031614151561411057600080fd5b600081815260046020526040808220805460ff191660011790555182917f5152abf959f6564662358c2e52b702259b78bac5ee7842a0f01937e670efcc7d91a2505050565b600030600160a060020a03168260000151600160a060020a031614151561417e57506000613305565b614192826101600151836102c00151614c42565b15156141a057506000613305565b600182610120015160018111156141b357fe5b1480156141d457506006548260c0015110806141d457506007548260e00151105b156141e157506000613305565b506001919050565b60006132b8826101400151836101600151846102600151856102800151866102a00151876102c0015161404b565b816101000151600160a060020a03168260200151600160a060020a031684600019167fef8d1dda8668b1fc00006f34d1d9ca05f7e3e39bb4ec3a457371726a6856299285600001518660400151876060015188608001518960a001518a60c001518b60e001518c61012001518d61014001518e61016001518f6101800151604051808c600160a060020a0316600160a060020a031681526020018b600160a060020a0316600160a060020a031681526020018a600160a060020a0316600160a060020a0316815260200189815260200188815260200187815260200186815260200185600181111561430557fe5b60ff16815260200184600181111561431957fe5b60ff16815260200183600181111561432d57fe5b60ff168152600160a060020a039092166020830152506040805191829003019a5098505050505050505050a482600019167fe55393c778364e440d958b39ac1debd99dcfae3775a8a04d1e79124adf6a2d08836101a00151846101c00151856101e001518661020001518761022001518861024001518961026001518a61028001518b6102a001518c6102c001518d6102e001518d604051808d60018111156143d257fe5b60ff16815260200180602001806020018c600160a060020a0316600160a060020a03168152602001806020018b600160a060020a0316600160a060020a031681526020018a81526020018981526020018881526020018781526020018681526020018515151515815260200184810384528f818151815260200191508051906020019080838360005b8381101561447357818101518382015260200161445b565b50505050905090810190601f1680156144a05780820380516001836020036101000a031916815260200191505b5084810383528e818151815260200191508051906020019080838360005b838110156144d65781810151838201526020016144be565b50505050905090810190601f1680156145035780820380516001836020036101000a031916815260200191505b5084810382528c5181528c516020918201918e019080838360005b8381101561453657818101518382015260200161451e565b50505050905090810190601f1680156145635780820380516001836020036101000a031916815260200191505b509f5050505050505050505050505050505060405180910390a2505050565b610220810151516101e0820151516101c08301515101016101c401919050565b815260200190565b6000818353505060010190565b6000806145c3846132be565b90506145d081858561330a565b1515611edb57600080fd5b6000806000806000806000806000806000600160a060020a03168b6102400151600160a060020a031614151561461657341561461657600080fd5b6146208c8c6131e7565b985060008911801561463f57506102408b0151600160a060020a031615155b1561465d5761465d8b61024001518d602001518d602001518c614c61565b6101008b0151899850889750600160a060020a0316156149805760a0808d0151908c0151111561468c57600080fd5b60018b6101200151600181111561469f57fe5b141561494b5760e0808d0151908c015111156146ba57600080fd5b60008b608001511115614760576146e06146d88c608001518b614bf7565b612710614c20565b6102408c0151909650600160a060020a03161515614746576147028887614be5565b6101008c0151604051919950600160a060020a03169087156108fc029088906000818181858888f19350505050158015614740573d6000803e3d6000fd5b50614760565b6147608b61024001518c602001518d610100015189614c61565b60008b60a0015111156147fe5761477e6146d88c60a001518b614bf7565b6102408c0151909550600160a060020a031615156147e4576147a08786614c35565b6101008c0151604051919850600160a060020a03169086156108fc029087906000818181858888f193505050501580156147de573d6000803e3d6000fd5b506147fe565b6147fe8b61024001518d602001518d610100015188614c61565b60008b60c0015111156148a25761481c6146d88c60c001518b614bf7565b6102408c0151909450600160a060020a0316151561487f5761483e8885614be5565b600854604051919950600160a060020a03169085156108fc029086906000818181858888f19350505050158015614879573d6000803e3d6000fd5b506148a2565b6102408b015160208c01516008546148a2929190600160a060020a031687614c61565b60008b60e001511115614946576148c06146d88c60e001518b614bf7565b6102408c0151909350600160a060020a03161515614923576148e28784614c35565b600854604051919850600160a060020a03169084156108fc029085906000818181858888f1935050505015801561491d573d6000803e3d6000fd5b50614946565b6102408b015160208d0151600854614946929190600160a060020a031686614c61565b61497b565b6149638b602001518c61010001518d60800151614d26565b61497b8c602001518c61010001518d60a00151614d26565b614b05565b60a0808c0151908d0151111561499557600080fd5b60018b610120015160018111156149a857fe5b1415614ad5576102408b0151600160a060020a031615156149c857600080fd5b60e0808c0151908d015111156149dd57600080fd5b60008c608001511115614a17576149fb6146d88d608001518b614bf7565b9550614a178b61024001518d602001518e610100015189614c61565b60008c60a001511115614a5157614a356146d88d60a001518b614bf7565b9450614a518b61024001518c602001518e610100015188614c61565b60008c60c001511115614a9357614a6f6146d88d60c001518b614bf7565b6102408c015160208e0151600854929650614a9392600160a060020a031687614c61565b60008c60e00151111561497b57614ab16146d88d60e001518b614bf7565b6102408c015160208d015160085492955061497b92600160a060020a031686614c61565b614aed8c602001518d61010001518e60800151614d26565b614b058b602001518d61010001518e60a00151614d26565b6102408b0151600160a060020a03161515614bb95734871115614b2757600080fd5b60608b01519150604051600160a060020a0383169089156108fc02908a906000818181858888f19350505050158015614b64573d6000803e3d6000fd5b50614b6f3488614be5565b90506000811115614bb9578b60200151600160a060020a03166108fc829081150290604051600060405180830381858888f19350505050158015614bb7573d6000803e3d6000fd5b505b50969a9950505050505050505050565b60004283108015611edb5750811580611edb5750504210919050565b600082821115614bf157fe5b50900390565b6000821515614c08575060006132b8565b50818102818382811515614c1857fe5b04146132b857fe5b60008183811515614c2d57fe5b049392505050565b818101828110156132b857fe5b600080836001811115614c5157fe5b1480611edb575050600010919050565b6000811115614d2057600354604080517f15dacbea000000000000000000000000000000000000000000000000000000008152600160a060020a0387811660048301528681166024830152858116604483015260648201859052915191909216916315dacbea9160848083019260209291908290030181600087803b158015614ce957600080fd5b505af1158015614cfd573d6000803e3d6000fd5b505050506040513d6020811015614d1357600080fd5b50511515614d2057600080fd5b50505050565b60015461347190600160a060020a0316848484614c61565b6040805161030081018252600080825260208201819052918101829052606081018290526080810182905260a0810182905260c0810182905260e0810182905261010081018290529061012082019081526020016000815260200160008152600060208201819052604090910190815260200160608152602001606081526020016000600160a060020a03168152602001606081526020016000600160a060020a03168152602001600081526020016000815260200160008152602001600081526020016000815250905600a165627a7a7230582059bf3305941ac5b751432b562c8955dd54cc1684bf3ab9308a8560df44cfc0c80029",
  "source": "/*\n  \n  Exchange contract. This is an outer contract with public or convenience functions and includes no state-modifying functions.\n \n*/\n\npragma solidity 0.4.23;\n\nimport \"./ExchangeCore.sol\";\n\n/**\n * @title Exchange\n * @author Project Wyvern Developers\n */\ncontract Exchange is ExchangeCore {\n\n    /**\n     * @dev Call guardedArrayReplace - library function exposed for testing.\n     */\n    function guardedArrayReplace(bytes array, bytes desired, bytes mask)\n        public\n        pure\n        returns (bytes)\n    {\n        ArrayUtils.guardedArrayReplace(array, desired, mask);\n        return array;\n    }\n\n    /**\n     * Test copy byte array\n     *\n     * @param arrToCopy Array to copy\n     * @return byte array\n     */\n    function testCopy(bytes arrToCopy)\n        public\n        pure\n        returns (bytes)\n    {\n        bytes memory arr = new bytes(arrToCopy.length);\n        uint index;\n        assembly {\n            index := add(arr, 0x20)\n        }\n        ArrayUtils.unsafeWriteBytes(index, arrToCopy);\n        return arr;\n    }\n\n    /**\n     * Test write address to bytes\n     *\n     * @param addr Address to write\n     * @return byte array\n     */\n    function testCopyAddress(address addr)\n        public\n        pure\n        returns (bytes)\n    {\n        bytes memory arr = new bytes(0x14);\n        uint index;\n        assembly {\n            index := add(arr, 0x20)\n        }\n        ArrayUtils.unsafeWriteAddress(index, addr);\n        return arr;\n    }\n\n    /**\n     * @dev Call calculateFinalPrice - library function exposed for testing.\n     */\n    function calculateFinalPrice(SaleKindInterface.Side side, SaleKindInterface.SaleKind saleKind, uint basePrice, uint extra, uint listingTime, uint expirationTime)\n        public\n        view\n        returns (uint)\n    {\n        return SaleKindInterface.calculateFinalPrice(side, saleKind, basePrice, extra, listingTime, expirationTime);\n    }\n\n    /**\n     * @dev Call hashOrder - Solidity ABI encoding limitation workaround, hopefully temporary.\n     */\n    function hashOrder_(\n        address[8] addrs,\n        uint[9] uints,\n        FeeMethod feeMethod,\n        SaleKindInterface.Side side,\n        SaleKindInterface.SaleKind saleKind,\n        AuthenticatedProxy.HowToCall howToCall,\n        bytes calldata,\n        bytes replacementPattern,\n        bytes staticExtradata)\n        public\n        pure\n        returns (bytes32)\n    {\n        return hashOrder(\n          Order(addrs[0], addrs[1], addrs[2], addrs[3], uints[0], uints[1], uints[2], uints[3], addrs[4], feeMethod, side, saleKind, addrs[5], howToCall, calldata, replacementPattern, addrs[6], staticExtradata, ERC20(addrs[7]), uints[4], uints[5], uints[6], uints[7], uints[8])\n        );\n    }\n\n    /**\n     * @dev Call hashToSign - Solidity ABI encoding limitation workaround, hopefully temporary.\n     */\n    function hashToSign_(\n        address[8] addrs,\n        uint[9] uints,\n        FeeMethod feeMethod,\n        SaleKindInterface.Side side,\n        SaleKindInterface.SaleKind saleKind,\n        AuthenticatedProxy.HowToCall howToCall,\n        bytes calldata,\n        bytes replacementPattern,\n        bytes staticExtradata)\n        public\n        pure\n        returns (bytes32)\n    { \n        return hashToSign(\n          Order(addrs[0], addrs[1], addrs[2], addrs[3], uints[0], uints[1], uints[2], uints[3], addrs[4], feeMethod, side, saleKind, addrs[5], howToCall, calldata, replacementPattern, addrs[6], staticExtradata, ERC20(addrs[7]), uints[4], uints[5], uints[6], uints[7], uints[8])\n        );\n    }\n\n    /**\n     * @dev Call validateOrderParameters - Solidity ABI encoding limitation workaround, hopefully temporary.\n     */\n    function validateOrderParameters_ (\n        address[8] addrs,\n        uint[9] uints,\n        FeeMethod feeMethod,\n        SaleKindInterface.Side side,\n        SaleKindInterface.SaleKind saleKind,\n        AuthenticatedProxy.HowToCall howToCall,\n        bytes calldata,\n        bytes replacementPattern,\n        bytes staticExtradata)\n        view\n        public\n        returns (bool)\n    {\n        Order memory order = Order(addrs[0], addrs[1], addrs[2], addrs[3], uints[0], uints[1], uints[2], uints[3], addrs[4], feeMethod, side, saleKind, addrs[5], howToCall, calldata, replacementPattern, addrs[6], staticExtradata, ERC20(addrs[7]), uints[4], uints[5], uints[6], uints[7], uints[8]);\n        return validateOrderParameters(\n          order\n        );\n    }\n\n    /**\n     * @dev Call validateOrder - Solidity ABI encoding limitation workaround, hopefully temporary.\n     */\n    function validateOrder_ (\n        address[8] addrs,\n        uint[9] uints,\n        FeeMethod feeMethod,\n        SaleKindInterface.Side side,\n        SaleKindInterface.SaleKind saleKind,\n        AuthenticatedProxy.HowToCall howToCall,\n        bytes calldata,\n        bytes replacementPattern,\n        bytes staticExtradata,\n        uint8 v,\n        bytes32 r,\n        bytes32 s)\n        view\n        public\n        returns (bool)\n    {\n        Order memory order = Order(addrs[0], addrs[1], addrs[2], addrs[3], uints[0], uints[1], uints[2], uints[3], addrs[4], feeMethod, side, saleKind, addrs[5], howToCall, calldata, replacementPattern, addrs[6], staticExtradata, ERC20(addrs[7]), uints[4], uints[5], uints[6], uints[7], uints[8]);\n        return validateOrder(\n          hashToSign(order),\n          order,\n          Sig(v, r, s)\n        );\n    }\n\n    /**\n     * @dev Call approveOrder - Solidity ABI encoding limitation workaround, hopefully temporary.\n     */\n    function approveOrder_ (\n        address[8] addrs,\n        uint[9] uints,\n        FeeMethod feeMethod,\n        SaleKindInterface.Side side,\n        SaleKindInterface.SaleKind saleKind,\n        AuthenticatedProxy.HowToCall howToCall,\n        bytes calldata,\n        bytes replacementPattern,\n        bytes staticExtradata,\n        bool orderbookInclusionDesired) \n        public\n    {\n        Order memory order = Order(addrs[0], addrs[1], addrs[2], addrs[3], uints[0], uints[1], uints[2], uints[3], addrs[4], feeMethod, side, saleKind, addrs[5], howToCall, calldata, replacementPattern, addrs[6], staticExtradata, ERC20(addrs[7]), uints[4], uints[5], uints[6], uints[7], uints[8]);\n        return approveOrder(order, orderbookInclusionDesired);\n    }\n\n    /**\n     * @dev Call cancelOrder - Solidity ABI encoding limitation workaround, hopefully temporary.\n     */\n    function cancelOrder_(\n        address[8] addrs,\n        uint[9] uints,\n        FeeMethod feeMethod,\n        SaleKindInterface.Side side,\n        SaleKindInterface.SaleKind saleKind,\n        AuthenticatedProxy.HowToCall howToCall,\n        bytes calldata,\n        bytes replacementPattern,\n        bytes staticExtradata,\n        uint8 v,\n        bytes32 r,\n        bytes32 s)\n        public\n    {\n\n        return cancelOrder(\n          Order(addrs[0], addrs[1], addrs[2], addrs[3], uints[0], uints[1], uints[2], uints[3], addrs[4], feeMethod, side, saleKind, addrs[5], howToCall, calldata, replacementPattern, addrs[6], staticExtradata, ERC20(addrs[7]), uints[4], uints[5], uints[6], uints[7], uints[8]),\n          Sig(v, r, s)\n        );\n    }\n\n    /**\n     * @dev Call calculateCurrentPrice - Solidity ABI encoding limitation workaround, hopefully temporary.\n     */\n    function calculateCurrentPrice_(\n        address[8] addrs,\n        uint[9] uints,\n        FeeMethod feeMethod,\n        SaleKindInterface.Side side,\n        SaleKindInterface.SaleKind saleKind,\n        AuthenticatedProxy.HowToCall howToCall,\n        bytes calldata,\n        bytes replacementPattern,\n        bytes staticExtradata)\n        public\n        view\n        returns (uint)\n    {\n        return calculateCurrentPrice(\n          Order(addrs[0], addrs[1], addrs[2], addrs[3], uints[0], uints[1], uints[2], uints[3], addrs[4], feeMethod, side, saleKind, addrs[5], howToCall, calldata, replacementPattern, addrs[6], staticExtradata, ERC20(addrs[7]), uints[4], uints[5], uints[6], uints[7], uints[8])\n        );\n    }\n\n    /**\n     * @dev Call ordersCanMatch - Solidity ABI encoding limitation workaround, hopefully temporary.\n     */\n    function ordersCanMatch_(\n        address[16] addrs,\n        uint[18] uints,\n        uint8[8] feeMethodsSidesKindsHowToCalls,\n        bytes calldataBuy,\n        bytes calldataSell,\n        bytes replacementPatternBuy,\n        bytes replacementPatternSell,\n        bytes staticExtradataBuy,\n        bytes staticExtradataSell)\n        public\n        view\n        returns (bool)\n    {\n        Order memory buy = Order(addrs[0], addrs[1], addrs[2], addrs[3], uints[0], uints[1], uints[2], uints[3], addrs[4], FeeMethod(feeMethodsSidesKindsHowToCalls[0]), SaleKindInterface.Side(feeMethodsSidesKindsHowToCalls[1]), SaleKindInterface.SaleKind(feeMethodsSidesKindsHowToCalls[2]), addrs[5], AuthenticatedProxy.HowToCall(feeMethodsSidesKindsHowToCalls[3]), calldataBuy, replacementPatternBuy, addrs[6], staticExtradataBuy, ERC20(addrs[7]), uints[4], uints[5], uints[6], uints[7], uints[8]);\n        Order memory sell = Order(addrs[8], addrs[9], addrs[10], addrs[11], uints[9], uints[10], uints[11], uints[12], addrs[12], FeeMethod(feeMethodsSidesKindsHowToCalls[4]), SaleKindInterface.Side(feeMethodsSidesKindsHowToCalls[5]), SaleKindInterface.SaleKind(feeMethodsSidesKindsHowToCalls[6]), addrs[13], AuthenticatedProxy.HowToCall(feeMethodsSidesKindsHowToCalls[7]), calldataSell, replacementPatternSell, addrs[14], staticExtradataSell, ERC20(addrs[15]), uints[13], uints[14], uints[15], uints[16], uints[17]);\n        return ordersCanMatch(\n          buy,\n          sell\n        );\n    }\n\n    /**\n     * @dev Return whether or not two orders' calldata specifications can match\n     * @param buyCalldata Buy-side order calldata\n     * @param buyReplacementPattern Buy-side order calldata replacement mask\n     * @param sellCalldata Sell-side order calldata\n     * @param sellReplacementPattern Sell-side order calldata replacement mask\n     * @return Whether the orders' calldata can be matched\n     */\n    function orderCalldataCanMatch(bytes buyCalldata, bytes buyReplacementPattern, bytes sellCalldata, bytes sellReplacementPattern)\n        public\n        pure\n        returns (bool)\n    {\n        if (buyReplacementPattern.length > 0) {\n          ArrayUtils.guardedArrayReplace(buyCalldata, sellCalldata, buyReplacementPattern);\n        }\n        if (sellReplacementPattern.length > 0) {\n          ArrayUtils.guardedArrayReplace(sellCalldata, buyCalldata, sellReplacementPattern);\n        }\n        return ArrayUtils.arrayEq(buyCalldata, sellCalldata);\n    }\n\n    /**\n     * @dev Call calculateMatchPrice - Solidity ABI encoding limitation workaround, hopefully temporary.\n     */\n    function calculateMatchPrice_(\n        address[16] addrs,\n        uint[18] uints,\n        uint8[8] feeMethodsSidesKindsHowToCalls,\n        bytes calldataBuy,\n        bytes calldataSell,\n        bytes replacementPatternBuy,\n        bytes replacementPatternSell,\n        bytes staticExtradataBuy,\n        bytes staticExtradataSell)\n        public\n        view\n        returns (uint)\n    {\n        Order memory buy = Order(addrs[0], addrs[1], addrs[2], addrs[3], uints[0], uints[1], uints[2], uints[3], addrs[4], FeeMethod(feeMethodsSidesKindsHowToCalls[0]), SaleKindInterface.Side(feeMethodsSidesKindsHowToCalls[1]), SaleKindInterface.SaleKind(feeMethodsSidesKindsHowToCalls[2]), addrs[5], AuthenticatedProxy.HowToCall(feeMethodsSidesKindsHowToCalls[3]), calldataBuy, replacementPatternBuy, addrs[6], staticExtradataBuy, ERC20(addrs[7]), uints[4], uints[5], uints[6], uints[7], uints[8]);\n        Order memory sell = Order(addrs[8], addrs[9], addrs[10], addrs[11], uints[9], uints[10], uints[11], uints[12], addrs[12], FeeMethod(feeMethodsSidesKindsHowToCalls[4]), SaleKindInterface.Side(feeMethodsSidesKindsHowToCalls[5]), SaleKindInterface.SaleKind(feeMethodsSidesKindsHowToCalls[6]), addrs[13], AuthenticatedProxy.HowToCall(feeMethodsSidesKindsHowToCalls[7]), calldataSell, replacementPatternSell, addrs[14], staticExtradataSell, ERC20(addrs[15]), uints[13], uints[14], uints[15], uints[16], uints[17]);\n        return calculateMatchPrice(\n          buy,\n          sell\n        );\n    }\n\n    /**\n     * @dev Call atomicMatch - Solidity ABI encoding limitation workaround, hopefully temporary.\n     */\n    function atomicMatch_(\n        address[16] addrs,\n        uint[18] uints,\n        uint8[8] feeMethodsSidesKindsHowToCalls,\n        bytes calldataBuy,\n        bytes calldataSell,\n        bytes replacementPatternBuy,\n        bytes replacementPatternSell,\n        bytes staticExtradataBuy,\n        bytes staticExtradataSell,\n        uint8[2] vs,\n        bytes32[5] rssMetadata)\n        public\n        payable\n    {\n\n        return atomicMatch(\n          Order(addrs[0], addrs[1], addrs[2], addrs[3], uints[0], uints[1], uints[2], uints[3], addrs[4], FeeMethod(feeMethodsSidesKindsHowToCalls[0]), SaleKindInterface.Side(feeMethodsSidesKindsHowToCalls[1]), SaleKindInterface.SaleKind(feeMethodsSidesKindsHowToCalls[2]), addrs[5], AuthenticatedProxy.HowToCall(feeMethodsSidesKindsHowToCalls[3]), calldataBuy, replacementPatternBuy, addrs[6], staticExtradataBuy, ERC20(addrs[7]), uints[4], uints[5], uints[6], uints[7], uints[8]),\n          Sig(vs[0], rssMetadata[0], rssMetadata[1]),\n          Order(addrs[8], addrs[9], addrs[10], addrs[11], uints[9], uints[10], uints[11], uints[12], addrs[12], FeeMethod(feeMethodsSidesKindsHowToCalls[4]), SaleKindInterface.Side(feeMethodsSidesKindsHowToCalls[5]), SaleKindInterface.SaleKind(feeMethodsSidesKindsHowToCalls[6]), addrs[13], AuthenticatedProxy.HowToCall(feeMethodsSidesKindsHowToCalls[7]), calldataSell, replacementPatternSell, addrs[14], staticExtradataSell, ERC20(addrs[15]), uints[13], uints[14], uints[15], uints[16], uints[17]),\n          Sig(vs[1], rssMetadata[2], rssMetadata[3]),\n          rssMetadata[4]\n        );\n    }\n\n}\n",
  "sourcePath": "/workspace/contracts/exchange/Exchange.sol",
  "compiler": {
    "name": "solc",
    "version": "0.4.23+commit.124ca40d.Emscripten.clang"
  },
  "schemaVersion": "2.0.0",
  "updatedAt": "2023-04-20T07:54:24.419Z"
}