{
  "contractName": "ExchangeCore",
  "abi": [
    {
      "constant": true,
      "inputs": [
        {
          "name": "addr",
          "type": "address"
        },
        {
          "name": "roleName",
          "type": "string"
        }
      ],
      "name": "checkRole",
      "outputs": [],
      "payable": false,
      "stateMutability": "view",
      "type": "function"
    },
    {
      "constant": true,
      "inputs": [],
      "name": "tokenTransferProxy",
      "outputs": [
        {
          "name": "",
          "type": "address"
        }
      ],
      "payable": false,
      "stateMutability": "view",
      "type": "function"
    },
    {
      "constant": true,
      "inputs": [],
      "name": "ROLE_WHITELISTED",
      "outputs": [
        {
          "name": "",
          "type": "string"
        }
      ],
      "payable": false,
      "stateMutability": "view",
      "type": "function"
    },
    {
      "constant": true,
      "inputs": [
        {
          "name": "addr",
          "type": "address"
        },
        {
          "name": "roleName",
          "type": "string"
        }
      ],
      "name": "hasRole",
      "outputs": [
        {
          "name": "",
          "type": "bool"
        }
      ],
      "payable": false,
      "stateMutability": "view",
      "type": "function"
    },
    {
      "constant": false,
      "inputs": [
        {
          "name": "addrs",
          "type": "address[]"
        }
      ],
      "name": "removeAddressesFromWhitelist",
      "outputs": [],
      "payable": false,
      "stateMutability": "nonpayable",
      "type": "function"
    },
    {
      "constant": false,
      "inputs": [
        {
          "name": "addr",
          "type": "address"
        }
      ],
      "name": "removeAddressFromWhitelist",
      "outputs": [],
      "payable": false,
      "stateMutability": "nonpayable",
      "type": "function"
    },
    {
      "constant": true,
      "inputs": [],
      "name": "minimumTakerProtocolFee",
      "outputs": [
        {
          "name": "",
          "type": "uint256"
        }
      ],
      "payable": false,
      "stateMutability": "view",
      "type": "function"
    },
    {
      "constant": true,
      "inputs": [],
      "name": "protocolFeeRecipient",
      "outputs": [
        {
          "name": "",
          "type": "address"
        }
      ],
      "payable": false,
      "stateMutability": "view",
      "type": "function"
    },
    {
      "constant": false,
      "inputs": [],
      "name": "renounceOwnership",
      "outputs": [],
      "payable": false,
      "stateMutability": "nonpayable",
      "type": "function"
    },
    {
      "constant": true,
      "inputs": [],
      "name": "registry",
      "outputs": [
        {
          "name": "",
          "type": "address"
        }
      ],
      "payable": false,
      "stateMutability": "view",
      "type": "function"
    },
    {
      "constant": false,
      "inputs": [
        {
          "name": "addr",
          "type": "address"
        }
      ],
      "name": "addAddressToWhitelist",
      "outputs": [],
      "payable": false,
      "stateMutability": "nonpayable",
      "type": "function"
    },
    {
      "constant": true,
      "inputs": [],
      "name": "minimumMakerProtocolFee",
      "outputs": [
        {
          "name": "",
          "type": "uint256"
        }
      ],
      "payable": false,
      "stateMutability": "view",
      "type": "function"
    },
    {
      "constant": true,
      "inputs": [
        {
          "name": "",
          "type": "bytes32"
        }
      ],
      "name": "cancelledOrFinalized",
      "outputs": [
        {
          "name": "",
          "type": "bool"
        }
      ],
      "payable": false,
      "stateMutability": "view",
      "type": "function"
    },
    {
      "constant": true,
      "inputs": [],
      "name": "owner",
      "outputs": [
        {
          "name": "",
          "type": "address"
        }
      ],
      "payable": false,
      "stateMutability": "view",
      "type": "function"
    },
    {
      "constant": true,
      "inputs": [
        {
          "name": "addr",
          "type": "address"
        }
      ],
      "name": "whitelist",
      "outputs": [
        {
          "name": "",
          "type": "bool"
        }
      ],
      "payable": false,
      "stateMutability": "view",
      "type": "function"
    },
    {
      "constant": true,
      "inputs": [],
      "name": "exchangeToken",
      "outputs": [
        {
          "name": "",
          "type": "address"
        }
      ],
      "payable": false,
      "stateMutability": "view",
      "type": "function"
    },
    {
      "constant": true,
      "inputs": [],
      "name": "INVERSE_BASIS_POINT",
      "outputs": [
        {
          "name": "",
          "type": "uint256"
        }
      ],
      "payable": false,
      "stateMutability": "view",
      "type": "function"
    },
    {
      "constant": false,
      "inputs": [
        {
          "name": "addrs",
          "type": "address[]"
        }
      ],
      "name": "addAddressesToWhitelist",
      "outputs": [],
      "payable": false,
      "stateMutability": "nonpayable",
      "type": "function"
    },
    {
      "constant": true,
      "inputs": [
        {
          "name": "",
          "type": "bytes32"
        }
      ],
      "name": "approvedOrders",
      "outputs": [
        {
          "name": "",
          "type": "bool"
        }
      ],
      "payable": false,
      "stateMutability": "view",
      "type": "function"
    },
    {
      "constant": false,
      "inputs": [
        {
          "name": "newOwner",
          "type": "address"
        }
      ],
      "name": "transferOwnership",
      "outputs": [],
      "payable": false,
      "stateMutability": "nonpayable",
      "type": "function"
    },
    {
      "anonymous": false,
      "inputs": [
        {
          "indexed": true,
          "name": "hash",
          "type": "bytes32"
        },
        {
          "indexed": false,
          "name": "exchange",
          "type": "address"
        },
        {
          "indexed": true,
          "name": "maker",
          "type": "address"
        },
        {
          "indexed": false,
          "name": "taker",
          "type": "address"
        },
        {
          "indexed": false,
          "name": "paymentRecipient",
          "type": "address"
        },
        {
          "indexed": false,
          "name": "makerRelayerFee",
          "type": "uint256"
        },
        {
          "indexed": false,
          "name": "takerRelayerFee",
          "type": "uint256"
        },
        {
          "indexed": false,
          "name": "makerProtocolFee",
          "type": "uint256"
        },
        {
          "indexed": false,
          "name": "takerProtocolFee",
          "type": "uint256"
        },
        {
          "indexed": true,
          "name": "feeRecipient",
          "type": "address"
        },
        {
          "indexed": false,
          "name": "feeMethod",
          "type": "uint8"
        },
        {
          "indexed": false,
          "name": "side",
          "type": "uint8"
        },
        {
          "indexed": false,
          "name": "saleKind",
          "type": "uint8"
        },
        {
          "indexed": false,
          "name": "target",
          "type": "address"
        }
      ],
      "name": "OrderApprovedPartOne",
      "type": "event"
    },
    {
      "anonymous": false,
      "inputs": [
        {
          "indexed": true,
          "name": "hash",
          "type": "bytes32"
        },
        {
          "indexed": false,
          "name": "howToCall",
          "type": "uint8"
        },
        {
          "indexed": false,
          "name": "calldata",
          "type": "bytes"
        },
        {
          "indexed": false,
          "name": "replacementPattern",
          "type": "bytes"
        },
        {
          "indexed": false,
          "name": "staticTarget",
          "type": "address"
        },
        {
          "indexed": false,
          "name": "staticExtradata",
          "type": "bytes"
        },
        {
          "indexed": false,
          "name": "paymentToken",
          "type": "address"
        },
        {
          "indexed": false,
          "name": "basePrice",
          "type": "uint256"
        },
        {
          "indexed": false,
          "name": "extra",
          "type": "uint256"
        },
        {
          "indexed": false,
          "name": "listingTime",
          "type": "uint256"
        },
        {
          "indexed": false,
          "name": "expirationTime",
          "type": "uint256"
        },
        {
          "indexed": false,
          "name": "salt",
          "type": "uint256"
        },
        {
          "indexed": false,
          "name": "orderbookInclusionDesired",
          "type": "bool"
        }
      ],
      "name": "OrderApprovedPartTwo",
      "type": "event"
    },
    {
      "anonymous": false,
      "inputs": [
        {
          "indexed": true,
          "name": "hash",
          "type": "bytes32"
        }
      ],
      "name": "OrderCancelled",
      "type": "event"
    },
    {
      "anonymous": false,
      "inputs": [
        {
          "indexed": false,
          "name": "buyHash",
          "type": "bytes32"
        },
        {
          "indexed": false,
          "name": "sellHash",
          "type": "bytes32"
        },
        {
          "indexed": true,
          "name": "maker",
          "type": "address"
        },
        {
          "indexed": true,
          "name": "taker",
          "type": "address"
        },
        {
          "indexed": false,
          "name": "paymentRecipient",
          "type": "address"
        },
        {
          "indexed": false,
          "name": "price",
          "type": "uint256"
        },
        {
          "indexed": true,
          "name": "metadata",
          "type": "bytes32"
        }
      ],
      "name": "OrdersMatched",
      "type": "event"
    },
    {
      "anonymous": false,
      "inputs": [
        {
          "indexed": false,
          "name": "addr",
          "type": "address"
        }
      ],
      "name": "WhitelistedAddressAdded",
      "type": "event"
    },
    {
      "anonymous": false,
      "inputs": [
        {
          "indexed": false,
          "name": "addr",
          "type": "address"
        }
      ],
      "name": "WhitelistedAddressRemoved",
      "type": "event"
    },
    {
      "anonymous": false,
      "inputs": [
        {
          "indexed": false,
          "name": "addr",
          "type": "address"
        },
        {
          "indexed": false,
          "name": "roleName",
          "type": "string"
        }
      ],
      "name": "RoleAdded",
      "type": "event"
    },
    {
      "anonymous": false,
      "inputs": [
        {
          "indexed": false,
          "name": "addr",
          "type": "address"
        },
        {
          "indexed": false,
          "name": "roleName",
          "type": "string"
        }
      ],
      "name": "RoleRemoved",
      "type": "event"
    },
    {
      "anonymous": false,
      "inputs": [
        {
          "indexed": true,
          "name": "previousOwner",
          "type": "address"
        }
      ],
      "name": "OwnershipRenounced",
      "type": "event"
    },
    {
      "anonymous": false,
      "inputs": [
        {
          "indexed": true,
          "name": "previousOwner",
          "type": "address"
        },
        {
          "indexed": true,
          "name": "newOwner",
          "type": "address"
        }
      ],
      "name": "OwnershipTransferred",
      "type": "event"
    },
    {
      "constant": false,
      "inputs": [
        {
          "name": "newMinimumMakerProtocolFee",
          "type": "uint256"
        }
      ],
      "name": "changeMinimumMakerProtocolFee",
      "outputs": [],
      "payable": false,
      "stateMutability": "nonpayable",
      "type": "function"
    },
    {
      "constant": false,
      "inputs": [
        {
          "name": "newMinimumTakerProtocolFee",
          "type": "uint256"
        }
      ],
      "name": "changeMinimumTakerProtocolFee",
      "outputs": [],
      "payable": false,
      "stateMutability": "nonpayable",
      "type": "function"
    },
    {
      "constant": false,
      "inputs": [
        {
          "name": "newProtocolFeeRecipient",
          "type": "address"
        }
      ],
      "name": "changeProtocolFeeRecipient",
      "outputs": [],
      "payable": false,
      "stateMutability": "nonpayable",
      "type": "function"
    },
    {
      "constant": true,
      "inputs": [
        {
          "name": "target",
          "type": "address"
        },
        {
          "name": "calldata",
          "type": "bytes"
        },
        {
          "name": "extradata",
          "type": "bytes"
        }
      ],
      "name": "staticCall",
      "outputs": [
        {
          "name": "result",
          "type": "bool"
        }
      ],
      "payable": false,
      "stateMutability": "view",
      "type": "function"
    }
  ],
  "bytecode": "0x60806040526000805460078290556008829055600160a060020a03331661010002600160a860020a0319909116179055610eb18061003e6000396000f30060806040526004361061013d5763ffffffff7c01000000000000000000000000000000000000000000000000000000006000350416630988ca8c81146101425780630eefdbad146101ab57806310796a47146101dc57806314350c241461029557806318b919e9146102ad5780631a6b13e214610337578063217fe6c61461034f57806324953eaa146103b6578063286dd3f51461040b57806328a8ee681461042c578063514f03301461045357806364df049e14610474578063715018a6146104895780637b1039991461049e5780637b9417c8146104b35780637ccefc52146104d45780638076f005146104e95780638da5cb5b146105015780639b19251a14610516578063a25eb5d914610537578063cae6047f1461054c578063e2ec6ec314610561578063e57d4adb146105b6578063f2fde38b146105ce575b600080fd5b34801561014e57600080fd5b5060408051602060046024803582810135601f81018590048502860185019096528585526101a9958335600160a060020a03169536956044949193909101919081908401838280828437509497506105ef9650505050505050565b005b3480156101b757600080fd5b506101c061065d565b60408051600160a060020a039092168252519081900360200190f35b3480156101e857600080fd5b5060408051602060046024803582810135601f8101859004850286018501909652858552610281958335600160a060020a031695369560449491939091019190819084018382808284375050604080516020601f89358b018035918201839004830284018301909452808352979a99988101979196509182019450925082915084018382808284375094975061066c9650505050505050565b604080519115158252519081900360200190f35b3480156102a157600080fd5b506101a96004356106db565b3480156102b957600080fd5b506102c2610700565b6040805160208082528351818301528351919283929083019185019080838360005b838110156102fc5781810151838201526020016102e4565b50505050905090810190601f1680156103295780820380516001836020036101000a031916815260200191505b509250505060405180910390f35b34801561034357600080fd5b506101a9600435610725565b34801561035b57600080fd5b5060408051602060046024803582810135601f8101859004850286018501909652858552610281958335600160a060020a031695369560449491939091019190819084018382808284375094975061074a9650505050505050565b3480156103c257600080fd5b50604080516020600480358082013583810280860185019096528085526101a9953695939460249493850192918291850190849080828437509497506107bd9650505050505050565b34801561041757600080fd5b506101a9600160a060020a0360043516610813565b34801561043857600080fd5b5061044161089f565b60408051918252519081900360200190f35b34801561045f57600080fd5b506101a9600160a060020a03600435166108a5565b34801561048057600080fd5b506101c06108f4565b34801561049557600080fd5b506101a9610903565b3480156104aa57600080fd5b506101c061097d565b3480156104bf57600080fd5b506101a9600160a060020a036004351661098c565b3480156104e057600080fd5b50610441610a18565b3480156104f557600080fd5b50610281600435610a1e565b34801561050d57600080fd5b506101c0610a33565b34801561052257600080fd5b50610281600160a060020a0360043516610a47565b34801561054357600080fd5b506101c0610a7c565b34801561055857600080fd5b50610441610a8b565b34801561056d57600080fd5b50604080516020600480358082013583810280860185019096528085526101a995369593946024949385019291829185019084908082843750949750610a919650505050505050565b3480156105c257600080fd5b50610281600435610ae7565b3480156105da57600080fd5b506101a9600160a060020a0360043516610afc565b610659826001836040518082805190602001908083835b602083106106255780518252601f199092019160209182019101610606565b51815160209384036101000a6000190180199092169116179052920194855250604051938490030190922092915050610ba4565b5050565b600454600160a060020a031681565b60006060600083518551016040519080825280601f01601f1916602001820160405280156106a4578160200160208202803883390190505b50915050602081016106b68185610bb9565b90506106c28186610bb9565b506000604051835160208501895afa9695505050505050565b60005433600160a060020a0390811661010090920416146106fb57600080fd5b600755565b6040805180820190915260098152600080516020610e66833981519152602082015281565b60005433600160a060020a03908116610100909204161461074557600080fd5b600855565b60006107b6836001846040518082805190602001908083835b602083106107825780518252601f199092019160209182019101610763565b51815160209384036101000a6000190180199092169116179052920194855250604051938490030190922092915050610bfd565b9392505050565b6000805433600160a060020a0390811661010090920416146107de57600080fd5b5060005b81518110156106595761080b82828151811015156107fc57fe5b90602001906020020151610813565b6001016107e2565b60005433600160a060020a03908116610100909204161461083357600080fd5b61086081604080519081016040528060098152602001600080516020610e66833981519152815250610c1c565b60408051600160a060020a038316815290517ff1abf01a1043b7c244d128e8595cf0c1d10743b022b03a02dffd8ca3bf729f5a9181900360200190a150565b60085481565b60005433600160a060020a0390811661010090920416146108c557600080fd5b6009805473ffffffffffffffffffffffffffffffffffffffff1916600160a060020a0392909216919091179055565b600954600160a060020a031681565b60005433600160a060020a03908116610100909204161461092357600080fd5b60008054604051610100909104600160a060020a0316917ff8df31144d9c2f0f6b59d69b8b98abd5459d07f2742c4df920b25aae33c6482091a26000805474ffffffffffffffffffffffffffffffffffffffff0019169055565b600354600160a060020a031681565b60005433600160a060020a0390811661010090920416146109ac57600080fd5b6109d981604080519081016040528060098152602001600080516020610e66833981519152815250610d3d565b60408051600160a060020a038316815290517fd1bba68c128cc3f427e5831b3c6f99f480b6efa6b9e80c757768f6124158cc3f9181900360200190a150565b60075481565b60056020526000908152604090205460ff1681565b6000546101009004600160a060020a031681565b6000610a7682604080519081016040528060098152602001600080516020610e6683398151915281525061074a565b92915050565b600254600160a060020a031681565b61271081565b6000805433600160a060020a039081166101009092041614610ab257600080fd5b5060005b815181101561065957610adf8282815181101515610ad057fe5b9060200190602002015161098c565b600101610ab6565b60066020526000908152604090205460ff1681565b60005433600160a060020a039081166101009092041614610b1c57600080fd5b600160a060020a0381161515610b3157600080fd5b60008054604051600160a060020a038085169361010090930416917f8be0079c531659141344cd1fd0a4f28419497f9722a3daafe3b4186f6b6457e091a360008054600160a060020a039092166101000274ffffffffffffffffffffffffffffffffffffffff0019909216919091179055565b610bae8282610bfd565b151561065957600080fd5b60008082511115610bf657815180602001830160208401855b60018383101415610bed578151815260209182019101610bd2565b50505092909201915b5090919050565b600160a060020a03166000908152602091909152604090205460ff1690565b610c86826001836040518082805190602001908083835b60208310610c525780518252601f199092019160209182019101610c33565b51815160209384036101000a6000190180199092169116179052920194855250604051938490030190922092915050610e1e565b7fd211483f91fc6eff862467f8de606587a30c8fc9981056f051b897a418df803a82826040518083600160a060020a0316600160a060020a0316815260200180602001828103825283818151815260200191508051906020019080838360005b83811015610cfe578181015183820152602001610ce6565b50505050905090810190601f168015610d2b5780820380516001836020036101000a031916815260200191505b50935050505060405180910390a15050565b610da7826001836040518082805190602001908083835b60208310610d735780518252601f199092019160209182019101610d54565b51815160209384036101000a6000190180199092169116179052920194855250604051938490030190922092915050610e40565b7fbfec83d64eaa953f2708271a023ab9ee82057f8f3578d548c1a4ba0b5b70048982826040518083600160a060020a0316600160a060020a03168152602001806020018281038252838181518152602001915080519060200190808383600083811015610cfe578181015183820152602001610ce6565b600160a060020a0316600090815260209190915260409020805460ff19169055565b600160a060020a0316600090815260209190915260409020805460ff19166001179055560077686974656c6973740000000000000000000000000000000000000000000000a165627a7a72305820603e9ce269ca040b825955cf0dffef9a60ef863ad25175ef88ffde95481ec8eb0029",
  "source": "/*\n\n  Decentralized digital asset exchange. Supports any digital asset that can be represented on the Ethereum blockchain (i.e. - transferred in an Ethereum transaction or sequence of transactions).\n\n  Let us suppose two agents interacting with a distributed ledger have utility functions preferencing certain states of that ledger over others.\n  Aiming to maximize their utility, these agents may construct with their utility functions along with the present ledger state a mapping of state transitions (transactions) to marginal utilities.\n  Any composite state transition with positive marginal utility for and enactable by the combined permissions of both agents thus is a mutually desirable trade, and the trustless \n  code execution provided by a distributed ledger renders the requisite atomicity trivial.\n\n  Relative to this model, this instantiation makes two concessions to practicality:\n  - State transition preferences are not matched directly but instead intermediated by a standard of tokenized value.\n  - A small fee can be charged in WYV for order settlement in an amount configurable by the frontend hosting the orderbook.\n\n  Solidity presently possesses neither a first-class functional typesystem nor runtime reflection (ABI encoding in Solidity), so we must be a bit clever in implementation and work at a lower level of abstraction than would be ideal.\n\n  We elect to utilize the following structure for the initial version of the protocol:\n  - Buy-side and sell-side orders each provide calldata (bytes) - for a sell-side order, the state transition for sale, for a buy-side order, the state transition to be bought.\n    Along with the calldata, orders provide `replacementPattern`: a bytemask indicating which bytes of the calldata can be changed (e.g. NFT destination address).\n    When a buy-side and sell-side order are matched, the desired calldatas are unified, masked with the bytemasks, and checked for agreement.\n    This alone is enough to implement common simple state transitions, such as \"transfer my CryptoKitty to any address\" or \"buy any of this kind of nonfungible token\".\n  - Orders (of either side) can optionally specify a static (no state modification) callback function, which receives configurable data along with the actual calldata as a parameter.\n    Although it requires some encoding acrobatics, this allows for arbitrary transaction validation functions.\n    For example, a buy-sider order could express the intent to buy any CryptoKitty with a particular set of characteristics (checked in the static call),\n    or a sell-side order could express the intent to sell any of three ENS names, but not two others.\n    Use of the EVM's STATICCALL opcode, added in Ethereum Metropolis, allows the static calldata to be safely specified separately and thus this kind of matching to happen correctly\n    - that is to say, wherever the two (transaction => bool) functions intersect.\n\n  Future protocol versions may improve upon this structure in capability or usability according to protocol user feedback demand, with upgrades enacted by the Wyvern DAO.\n \n*/\n\npragma solidity 0.4.23;\n\nimport \"openzeppelin-solidity/contracts/token/ERC20/ERC20.sol\";\nimport \"openzeppelin-solidity/contracts/math/SafeMath.sol\";\nimport \"openzeppelin-solidity/contracts/ownership/Whitelist.sol\";\n\nimport \"../registry/ProxyRegistry.sol\";\nimport \"../registry/TokenTransferProxy.sol\";\nimport \"../registry/AuthenticatedProxy.sol\";\nimport \"../common/ArrayUtils.sol\";\nimport \"../common/ReentrancyGuarded.sol\";\nimport \"./SaleKindInterface.sol\";\n\n/**\n * @title ExchangeCore\n * @author Project Wyvern Developers\n */\ncontract ExchangeCore is ReentrancyGuarded, Whitelist {\n\n    /* The token used to pay exchange fees. */\n    ERC20 public exchangeToken;\n\n    /* User registry. */\n    ProxyRegistry public registry;\n\n    /* Token transfer proxy. */\n    TokenTransferProxy public tokenTransferProxy;\n\n    /* Cancelled / finalized orders, by hash. */\n    mapping(bytes32 => bool) public cancelledOrFinalized;\n\n    /* Orders verified by on-chain approval (alternative to ECDSA signatures so that smart contracts can place orders directly). */\n    mapping(bytes32 => bool) public approvedOrders;\n\n    /* For split fee orders, minimum required protocol maker fee, in basis points. Paid to owner (who can change it). */\n    uint public minimumMakerProtocolFee = 0;\n\n    /* For split fee orders, minimum required protocol taker fee, in basis points. Paid to owner (who can change it). */\n    uint public minimumTakerProtocolFee = 0;\n\n    /* Recipient of protocol fees. */\n    address public protocolFeeRecipient;\n\n    /* Fee method: protocol fee or split fee. */\n    enum FeeMethod { ProtocolFee, SplitFee }\n\n    /* Inverse basis point. */\n    uint public constant INVERSE_BASIS_POINT = 10000;\n\n    /* An ECDSA signature. */ \n    struct Sig {\n        /* v parameter */\n        uint8 v;\n        /* r parameter */\n        bytes32 r;\n        /* s parameter */\n        bytes32 s;\n    }\n\n    /* An order on the exchange. */\n    struct Order {\n        /* Exchange address, intended as a versioning mechanism. */\n        address exchange;\n        /* Order maker address. */\n        address maker;\n        /* Order taker address, if specified. */\n        address taker;\n        /* Payment recipient address. */\n        address paymentRecipient;\n        /* Maker relayer fee of the order, unused for taker order. */\n        uint makerRelayerFee;\n        /* Taker relayer fee of the order, or maximum taker fee for a taker order. */\n        uint takerRelayerFee;\n        /* Maker protocol fee of the order, unused for taker order. */\n        uint makerProtocolFee;\n        /* Taker protocol fee of the order, or maximum taker fee for a taker order. */\n        uint takerProtocolFee;\n        /* Order fee recipient or zero address for taker order. */\n        address feeRecipient;\n        /* Fee method (protocol token or split fee). */\n        FeeMethod feeMethod;\n        /* Side (buy/sell). */\n        SaleKindInterface.Side side;\n        /* Kind of sale. */\n        SaleKindInterface.SaleKind saleKind;\n        /* Target. */\n        address target;\n        /* HowToCall. */\n        AuthenticatedProxy.HowToCall howToCall;\n        /* Calldata. */\n        bytes calldata;\n        /* Calldata replacement pattern, or an empty byte array for no replacement. */\n        bytes replacementPattern;\n        /* Static call target, zero-address for no static call. */\n        address staticTarget;\n        /* Static call extra data. */\n        bytes staticExtradata;\n        /* Token used to pay for the order, or the zero-address as a sentinel value for Ether. */\n        address paymentToken;\n        /* Base price of the order (in paymentTokens). */\n        uint basePrice;\n        /* Auction extra parameter - minimum bid increment for English auctions, starting/ending price difference. */\n        uint extra;\n        /* Listing timestamp. */\n        uint listingTime;\n        /* Expiration timestamp - 0 for no expiry. */\n        uint expirationTime;\n        /* Order salt, used to prevent duplicate hashes. */\n        uint salt;\n    }\n    \n    event OrderApprovedPartOne    (bytes32 indexed hash, address exchange, address indexed maker, address taker, address paymentRecipient, uint makerRelayerFee, uint takerRelayerFee, uint makerProtocolFee, uint takerProtocolFee, address indexed feeRecipient, FeeMethod feeMethod, SaleKindInterface.Side side, SaleKindInterface.SaleKind saleKind, address target);\n    event OrderApprovedPartTwo    (bytes32 indexed hash, AuthenticatedProxy.HowToCall howToCall, bytes calldata, bytes replacementPattern, address staticTarget, bytes staticExtradata, address paymentToken, uint basePrice, uint extra, uint listingTime, uint expirationTime, uint salt, bool orderbookInclusionDesired);\n    event OrderCancelled          (bytes32 indexed hash);\n    event OrdersMatched           (bytes32 buyHash, bytes32 sellHash, address indexed maker, address indexed taker, address paymentRecipient, uint price, bytes32 indexed metadata);\n\n    /**\n     * @dev Change the minimum maker fee paid to the protocol (owner only)\n     * @param newMinimumMakerProtocolFee New fee to set in basis points\n     */\n    function changeMinimumMakerProtocolFee(uint newMinimumMakerProtocolFee)\n        public\n        onlyOwner\n    {\n        minimumMakerProtocolFee = newMinimumMakerProtocolFee;\n    }\n\n    /**\n     * @dev Change the minimum taker fee paid to the protocol (owner only)\n     * @param newMinimumTakerProtocolFee New fee to set in basis points\n     */\n    function changeMinimumTakerProtocolFee(uint newMinimumTakerProtocolFee)\n        public\n        onlyOwner\n    {\n        minimumTakerProtocolFee = newMinimumTakerProtocolFee;\n    }\n\n    /**\n     * @dev Change the protocol fee recipient (owner only)\n     * @param newProtocolFeeRecipient New protocol fee recipient address\n     */\n    function changeProtocolFeeRecipient(address newProtocolFeeRecipient)\n        public\n        onlyOwner\n    {\n        protocolFeeRecipient = newProtocolFeeRecipient;\n    }\n\n    /**\n     * @dev Transfer tokens\n     * @param token Token to transfer\n     * @param from Address to charge fees\n     * @param to Address to receive fees\n     * @param amount Amount of protocol tokens to charge\n     */\n    function transferTokens(address token, address from, address to, uint amount)\n        internal\n    {\n        if (amount > 0) {\n            require(tokenTransferProxy.transferFrom(token, from, to, amount));\n        }\n    }\n\n    /**\n     * @dev Charge a fee in protocol tokens\n     * @param from Address to charge fees\n     * @param to Address to receive fees\n     * @param amount Amount of protocol tokens to charge\n     */\n    function chargeProtocolFee(address from, address to, uint amount)\n        internal\n    {\n        transferTokens(exchangeToken, from, to, amount);\n    }\n\n    /**\n     * @dev Execute a STATICCALL (introduced with Ethereum Metropolis, non-state-modifying external call)\n     * @param target Contract to call\n     * @param calldata Calldata (appended to extradata)\n     * @param extradata Base data for STATICCALL (probably function selector and argument encoding)\n     * @return The result of the call (success or failure)\n     */\n    function staticCall(address target, bytes memory calldata, bytes memory extradata)\n        public\n        view\n        returns (bool result)\n    {\n        bytes memory combined = new bytes(calldata.length + extradata.length);\n        uint index;\n        assembly {\n            index := add(combined, 0x20)\n        }\n        index = ArrayUtils.unsafeWriteBytes(index, extradata);\n        ArrayUtils.unsafeWriteBytes(index, calldata);\n        assembly {\n            result := staticcall(gas, target, add(combined, 0x20), mload(combined), mload(0x40), 0)\n        }\n        return result;\n    }\n\n    /**\n     * Calculate size of an order struct when tightly packed\n     *\n     * @param order Order to calculate size of\n     * @return Size in bytes\n     */\n    function sizeOf(Order memory order)\n        internal\n        pure\n        returns (uint)\n    {\n        return ((0x14 * 8) + (0x20 * 9) + 4 + order.calldata.length + order.replacementPattern.length + order.staticExtradata.length);\n    }\n\n    /**\n     * @dev Hash an order, returning the canonical order hash, without the message prefix\n     * @param order Order to hash\n     * @return Hash of order\n     */\n    function hashOrder(Order memory order)\n        internal\n        pure\n        returns (bytes32 hash)\n    {\n        /* Unfortunately abi.encodePacked doesn't work here, stack size constraints. */\n        uint size = sizeOf(order);\n        bytes memory array = new bytes(size);\n        uint index;\n        assembly {\n            index := add(array, 0x20)\n        }\n        index = ArrayUtils.unsafeWriteAddress(index, order.exchange);\n        index = ArrayUtils.unsafeWriteAddress(index, order.maker);\n        index = ArrayUtils.unsafeWriteAddress(index, order.taker);\n        index = ArrayUtils.unsafeWriteAddress(index, order.paymentRecipient);\n        index = ArrayUtils.unsafeWriteUint(index, order.makerRelayerFee);\n        index = ArrayUtils.unsafeWriteUint(index, order.takerRelayerFee);\n        index = ArrayUtils.unsafeWriteUint(index, order.makerProtocolFee);\n        index = ArrayUtils.unsafeWriteUint(index, order.takerProtocolFee);\n        index = ArrayUtils.unsafeWriteAddress(index, order.feeRecipient);\n        index = ArrayUtils.unsafeWriteUint8(index, uint8(order.feeMethod));\n        index = ArrayUtils.unsafeWriteUint8(index, uint8(order.side));\n        index = ArrayUtils.unsafeWriteUint8(index, uint8(order.saleKind));\n        index = ArrayUtils.unsafeWriteAddress(index, order.target);\n        index = ArrayUtils.unsafeWriteUint8(index, uint8(order.howToCall));\n        index = ArrayUtils.unsafeWriteBytes(index, order.calldata);\n        index = ArrayUtils.unsafeWriteBytes(index, order.replacementPattern);\n        index = ArrayUtils.unsafeWriteAddress(index, order.staticTarget);\n        index = ArrayUtils.unsafeWriteBytes(index, order.staticExtradata);\n        index = ArrayUtils.unsafeWriteAddress(index, order.paymentToken);\n        index = ArrayUtils.unsafeWriteUint(index, order.basePrice);\n        index = ArrayUtils.unsafeWriteUint(index, order.extra);\n        index = ArrayUtils.unsafeWriteUint(index, order.listingTime);\n        index = ArrayUtils.unsafeWriteUint(index, order.expirationTime);\n        index = ArrayUtils.unsafeWriteUint(index, order.salt);\n        assembly {\n            hash := keccak256(add(array, 0x20), size)\n        }\n        return hash;\n    }\n\n    /**\n     * @dev Hash an order, returning the hash that a client must sign, including the standard message prefix\n     * @param order Order to hash\n     * @return Hash of message prefix and order hash per Ethereum format\n     */\n    function hashToSign(Order memory order)\n        internal\n        pure\n        returns (bytes32)\n    {\n        return keccak256(\"\\x19Ethereum Signed Message:\\n32\", hashOrder(order));\n    }\n\n    /**\n     * @dev Assert an order is valid and return its hash\n     * @param order Order to validate\n     * @param sig ECDSA signature\n     */\n    function requireValidOrder(Order memory order, Sig memory sig)\n        internal\n        view\n        returns (bytes32)\n    {\n        bytes32 hash = hashToSign(order);\n        require(validateOrder(hash, order, sig));\n        return hash;\n    }\n\n    /**\n     * @dev Validate order parameters (does *not* check signature validity)\n     * @param order Order to validate\n     */\n    function validateOrderParameters(Order memory order)\n        internal\n        view\n        returns (bool)\n    {\n        /* Order must be targeted at this protocol version (this Exchange contract). */\n        if (order.exchange != address(this)) {\n            return false;\n        }\n\n        /* Order must have a valid payment recipient address. It must either be a zero address, a whitelisted address, or the same as the maker's address. */\n        if (order.paymentRecipient != address(0) && order.paymentRecipient != order.maker && !whitelist(order.maker)) {\n            return false;\n        }\n\n        /* Order must possess valid sale kind parameter combination. */\n        if (!SaleKindInterface.validateParameters(order.saleKind, order.expirationTime)) {\n            return false;\n        }\n\n        /* If using the split fee method, order must have sufficient protocol fees. */\n        if (order.feeMethod == FeeMethod.SplitFee && (order.makerProtocolFee < minimumMakerProtocolFee || order.takerProtocolFee < minimumTakerProtocolFee)) {\n            return false;\n        }\n\n        return true;\n    }\n\n    /**\n     * @dev Validate a provided previously approved / signed order, hash, and signature.\n     * @param hash Order hash (already calculated, passed to avoid recalculation)\n     * @param order Order to validate\n     * @param sig ECDSA signature\n     */\n    function validateOrder(bytes32 hash, Order memory order, Sig memory sig) \n        internal\n        view\n        returns (bool)\n    {\n        /* Not done in an if-conditional to prevent unnecessary ecrecover evaluation, which seems to happen even though it should short-circuit. */\n\n        /* Order must have valid parameters. */\n        if (!validateOrderParameters(order)) {\n            return false;\n        }\n\n        /* Order must have not been canceled or already filled. */\n        if (cancelledOrFinalized[hash]) {\n            return false;\n        }\n        \n        /* Order authentication. Order must be either:\n        /* (a) previously approved */\n        if (approvedOrders[hash]) {\n            return true;\n        }\n\n        /* or (b) ECDSA-signed by maker. */\n        if (ecrecover(hash, sig.v, sig.r, sig.s) == order.maker) {\n            return true;\n        }\n\n        return false;\n    }\n\n    /**\n     * @dev Approve an order and optionally mark it for orderbook inclusion. Must be called by the maker of the order\n     * @param order Order to approve\n     * @param orderbookInclusionDesired Whether orderbook providers should include the order in their orderbooks\n     */\n    function approveOrder(Order memory order, bool orderbookInclusionDesired)\n        internal\n    {\n        /* CHECKS */\n\n        /* Assert sender is authorized to approve order. */\n        require(msg.sender == order.maker);\n\n        /* Calculate order hash. */\n        bytes32 hash = hashToSign(order);\n\n        /* Assert order has not already been approved. */\n        require(!approvedOrders[hash]);\n\n        /* EFFECTS */\n    \n        /* Mark order as approved. */\n        approvedOrders[hash] = true;\n  \n        /* Log approval event. Must be split in two due to Solidity stack size limitations. */\n        emitOrderApproved(hash, order, orderbookInclusionDesired);\n    }\n\n    function emitOrderApproved(bytes32 hash, Order memory order, bool orderbookInclusionDesired)\n        internal\n    {\n        /* Log approval event. Must be split in two due to Solidity stack size limitations. */\n        {\n            emit OrderApprovedPartOne(hash, order.exchange, order.maker, order.taker, order.paymentRecipient, order.makerRelayerFee, order.takerRelayerFee, order.makerProtocolFee, order.takerProtocolFee, order.feeRecipient, order.feeMethod, order.side, order.saleKind, order.target);\n        }\n        {   \n            emit OrderApprovedPartTwo(hash, order.howToCall, order.calldata, order.replacementPattern, order.staticTarget, order.staticExtradata, order.paymentToken, order.basePrice, order.extra, order.listingTime, order.expirationTime, order.salt, orderbookInclusionDesired);\n        }\n    }\n\n    /**\n     * @dev Cancel an order, preventing it from being matched. Must be called by the maker of the order\n     * @param order Order to cancel\n     * @param sig ECDSA signature\n     */\n    function cancelOrder(Order memory order, Sig memory sig) \n        internal\n    {\n        /* CHECKS */\n\n        /* Calculate order hash. */\n        bytes32 hash = requireValidOrder(order, sig);\n\n        /* Assert sender is authorized to cancel order. */\n        require(msg.sender == order.maker);\n  \n        /* EFFECTS */\n      \n        /* Mark order as cancelled, preventing it from being matched. */\n        cancelledOrFinalized[hash] = true;\n\n        /* Log cancel event. */\n        emit OrderCancelled(hash);\n    }\n\n    /**\n     * @dev Calculate the current price of an order (convenience function)\n     * @param order Order to calculate the price of\n     * @return The current price of the order\n     */\n    function calculateCurrentPrice (Order memory order)\n        internal  \n        view\n        returns (uint)\n    {\n        return SaleKindInterface.calculateFinalPrice(order.side, order.saleKind, order.basePrice, order.extra, order.listingTime, order.expirationTime);\n    }\n\n    /**\n     * @dev Calculate the price two orders would match at, if in fact they would match (otherwise fail)\n     * @param buy Buy-side order\n     * @param sell Sell-side order\n     * @return Match price\n     */\n    function calculateMatchPrice(Order memory buy, Order memory sell)\n        view\n        internal\n        returns (uint)\n    {\n        /* Calculate sell price. */\n        uint sellPrice = SaleKindInterface.calculateFinalPrice(sell.side, sell.saleKind, sell.basePrice, sell.extra, sell.listingTime, sell.expirationTime);\n\n        /* Calculate buy price. */\n        uint buyPrice = SaleKindInterface.calculateFinalPrice(buy.side, buy.saleKind, buy.basePrice, buy.extra, buy.listingTime, buy.expirationTime);\n\n        /* Require price cross. */\n        require(buyPrice >= sellPrice);\n        \n        /* Maker/taker priority. */\n        return sell.feeRecipient != address(0) ? sellPrice : buyPrice;\n    }\n\n    /**\n     * @dev Execute all ERC20 token / Ether transfers associated with an order match (fees and buyer => seller transfer)\n     * @param buy Buy-side order\n     * @param sell Sell-side order\n     */\n    function executeFundsTransfer(Order memory buy, Order memory sell)\n        internal\n        returns (uint)\n    {\n        /* Only payable in the special case of unwrapped Ether. */\n        if (sell.paymentToken != address(0)) {\n            require(msg.value == 0);\n        }\n\n        /* Calculate match price. */\n        uint price = calculateMatchPrice(buy, sell);\n\n        /* If paying using a token (not Ether), transfer tokens. This is done prior to fee payments to that a seller will have tokens before being charged fees. */\n        if (price > 0 && sell.paymentToken != address(0)) {\n            transferTokens(sell.paymentToken, buy.maker, sell.maker, price);\n        }\n\n        /* Amount that will be received by seller (for Ether). */\n        uint receiveAmount = price;\n\n        /* Amount that must be sent by buyer (for Ether). */\n        uint requiredAmount = price;\n\n        /* Determine maker/taker and charge fees accordingly. */\n        if (sell.feeRecipient != address(0)) {\n            /* Sell-side order is maker. */\n      \n            /* Assert taker fee is less than or equal to maximum fee specified by buyer. */\n            require(sell.takerRelayerFee <= buy.takerRelayerFee);\n\n            if (sell.feeMethod == FeeMethod.SplitFee) {\n                /* Assert taker fee is less than or equal to maximum fee specified by buyer. */\n                require(sell.takerProtocolFee <= buy.takerProtocolFee);\n\n                /* Maker fees are deducted from the token amount that the maker receives. Taker fees are extra tokens that must be paid by the taker. */\n\n                if (sell.makerRelayerFee > 0) {\n                    uint makerRelayerFee = SafeMath.div(SafeMath.mul(sell.makerRelayerFee, price), INVERSE_BASIS_POINT);\n                    if (sell.paymentToken == address(0)) {\n                        receiveAmount = SafeMath.sub(receiveAmount, makerRelayerFee);\n                        sell.feeRecipient.transfer(makerRelayerFee);\n                    } else {\n                        transferTokens(sell.paymentToken, sell.maker, sell.feeRecipient, makerRelayerFee);\n                    }\n                }\n\n                if (sell.takerRelayerFee > 0) {\n                    uint takerRelayerFee = SafeMath.div(SafeMath.mul(sell.takerRelayerFee, price), INVERSE_BASIS_POINT);\n                    if (sell.paymentToken == address(0)) {\n                        requiredAmount = SafeMath.add(requiredAmount, takerRelayerFee);\n                        sell.feeRecipient.transfer(takerRelayerFee);\n                    } else {\n                        transferTokens(sell.paymentToken, buy.maker, sell.feeRecipient, takerRelayerFee);\n                    }\n                }\n\n                if (sell.makerProtocolFee > 0) {\n                    uint makerProtocolFee = SafeMath.div(SafeMath.mul(sell.makerProtocolFee, price), INVERSE_BASIS_POINT);\n                    if (sell.paymentToken == address(0)) {\n                        receiveAmount = SafeMath.sub(receiveAmount, makerProtocolFee);\n                        protocolFeeRecipient.transfer(makerProtocolFee);\n                    } else {\n                        transferTokens(sell.paymentToken, sell.maker, protocolFeeRecipient, makerProtocolFee);\n                    }\n                }\n\n                if (sell.takerProtocolFee > 0) {\n                    uint takerProtocolFee = SafeMath.div(SafeMath.mul(sell.takerProtocolFee, price), INVERSE_BASIS_POINT);\n                    if (sell.paymentToken == address(0)) {\n                        requiredAmount = SafeMath.add(requiredAmount, takerProtocolFee);\n                        protocolFeeRecipient.transfer(takerProtocolFee);\n                    } else {\n                        transferTokens(sell.paymentToken, buy.maker, protocolFeeRecipient, takerProtocolFee);\n                    }\n                }\n\n            } else {\n                /* Charge maker fee to seller. */\n                chargeProtocolFee(sell.maker, sell.feeRecipient, sell.makerRelayerFee);\n\n                /* Charge taker fee to buyer. */\n                chargeProtocolFee(buy.maker, sell.feeRecipient, sell.takerRelayerFee);\n            }\n        } else {\n            /* Buy-side order is maker. */\n\n            /* Assert taker fee is less than or equal to maximum fee specified by seller. */\n            require(buy.takerRelayerFee <= sell.takerRelayerFee);\n\n            if (sell.feeMethod == FeeMethod.SplitFee) {\n                /* The Exchange does not escrow Ether, so direct Ether can only be used to with sell-side maker / buy-side taker orders. */\n                require(sell.paymentToken != address(0));\n\n                /* Assert taker fee is less than or equal to maximum fee specified by seller. */\n                require(buy.takerProtocolFee <= sell.takerProtocolFee);\n\n                if (buy.makerRelayerFee > 0) {\n                    makerRelayerFee = SafeMath.div(SafeMath.mul(buy.makerRelayerFee, price), INVERSE_BASIS_POINT);\n                    transferTokens(sell.paymentToken, buy.maker, buy.feeRecipient, makerRelayerFee);\n                }\n\n                if (buy.takerRelayerFee > 0) {\n                    takerRelayerFee = SafeMath.div(SafeMath.mul(buy.takerRelayerFee, price), INVERSE_BASIS_POINT);\n                    transferTokens(sell.paymentToken, sell.maker, buy.feeRecipient, takerRelayerFee);\n                }\n\n                if (buy.makerProtocolFee > 0) {\n                    makerProtocolFee = SafeMath.div(SafeMath.mul(buy.makerProtocolFee, price), INVERSE_BASIS_POINT);\n                    transferTokens(sell.paymentToken, buy.maker, protocolFeeRecipient, makerProtocolFee);\n                }\n\n                if (buy.takerProtocolFee > 0) {\n                    takerProtocolFee = SafeMath.div(SafeMath.mul(buy.takerProtocolFee, price), INVERSE_BASIS_POINT);\n                    transferTokens(sell.paymentToken, sell.maker, protocolFeeRecipient, takerProtocolFee);\n                }\n\n            } else {\n                /* Charge maker fee to buyer. */\n                chargeProtocolFee(buy.maker, buy.feeRecipient, buy.makerRelayerFee);\n      \n                /* Charge taker fee to seller. */\n                chargeProtocolFee(sell.maker, buy.feeRecipient, buy.takerRelayerFee);\n            }\n        }\n\n        if (sell.paymentToken == address(0)) {\n            /* Special-case Ether, order must be matched by buyer. */\n            require(msg.value >= requiredAmount);\n            address paymentRecipient = sell.paymentRecipient;\n            if (paymentRecipient == address(0)) {\n                paymentRecipient = sell.maker;\n            }\n            paymentRecipient.transfer(receiveAmount);\n            /* Allow overshoot for variable-price auctions, refund difference. */\n            uint diff = SafeMath.sub(msg.value, requiredAmount);\n            if (diff > 0) {\n                buy.maker.transfer(diff);\n            }\n        }\n\n        /* This contract should never hold Ether, however, we cannot assert this, since it is impossible to prevent anyone from sending Ether e.g. with selfdestruct. */\n\n        return price;\n    }\n\n    /**\n     * @dev Return whether or not two orders can be matched with each other by basic parameters (does not check order signatures / calldata or perform static calls)\n     * @param buy Buy-side order\n     * @param sell Sell-side order\n     * @return Whether or not the two orders can be matched\n     */\n    function ordersCanMatch(Order memory buy, Order memory sell)\n        internal\n        view\n        returns (bool)\n    {\n        return (\n            /* Must be opposite-side. */\n            (buy.side == SaleKindInterface.Side.Buy && sell.side == SaleKindInterface.Side.Sell) &&     \n            /* Must use same fee method. */\n            (buy.feeMethod == sell.feeMethod) &&\n            /* Must use same payment token. */\n            (buy.paymentToken == sell.paymentToken) &&\n            /* Must match maker/taker addresses. */\n            (sell.taker == address(0) || sell.taker == buy.maker) &&\n            (buy.taker == address(0) || buy.taker == sell.maker) &&\n            /* One must be maker and the other must be taker (no bool XOR in Solidity). */\n            ((sell.feeRecipient == address(0) && buy.feeRecipient != address(0)) || (sell.feeRecipient != address(0) && buy.feeRecipient == address(0))) &&\n            /* Must match target. */\n            (buy.target == sell.target) &&\n            /* Must match howToCall. */\n            (buy.howToCall == sell.howToCall) &&\n            /* Buy-side order must be settleable. */\n            SaleKindInterface.canSettleOrder(buy.listingTime, buy.expirationTime) &&\n            /* Sell-side order must be settleable. */\n            SaleKindInterface.canSettleOrder(sell.listingTime, sell.expirationTime)\n        );\n    }\n\n    /**\n     * @dev Atomically match two orders, ensuring validity of the match, and execute all associated state transitions. Protected against reentrancy by a contract-global lock.\n     * @param buy Buy-side order\n     * @param buySig Buy-side order signature\n     * @param sell Sell-side order\n     * @param sellSig Sell-side order signature\n     */\n    function atomicMatch(Order memory buy, Sig memory buySig, Order memory sell, Sig memory sellSig, bytes32 metadata)\n        internal\n        reentrancyGuard\n    {\n        /* CHECKS */\n      \n        /* Ensure buy order validity and calculate hash if necessary. */\n        bytes32 buyHash;\n        if (buy.maker == msg.sender) {\n            require(validateOrderParameters(buy));\n        } else {\n            buyHash = requireValidOrder(buy, buySig);\n        }\n\n        /* Ensure sell order validity and calculate hash if necessary. */\n        bytes32 sellHash;\n        if (sell.maker == msg.sender) {\n            require(validateOrderParameters(sell));\n        } else {\n            sellHash = requireValidOrder(sell, sellSig);\n        }\n        \n        /* Must be matchable. */\n        require(ordersCanMatch(buy, sell));\n\n        /* Target must exist (prevent malicious selfdestructs just prior to order settlement). */\n        uint size;\n        address target = sell.target;\n        assembly {\n            size := extcodesize(target)\n        }\n        require(size > 0);\n      \n        /* Must match calldata after replacement, if specified. */ \n        if (buy.replacementPattern.length > 0) {\n          ArrayUtils.guardedArrayReplace(buy.calldata, sell.calldata, buy.replacementPattern);\n        }\n        if (sell.replacementPattern.length > 0) {\n          ArrayUtils.guardedArrayReplace(sell.calldata, buy.calldata, sell.replacementPattern);\n        }\n        require(ArrayUtils.arrayEq(buy.calldata, sell.calldata));\n\n        /* Retrieve delegateProxy contract. */\n        OwnableDelegateProxy delegateProxy = registry.proxies(sell.maker);\n\n        /* Proxy must exist. */\n        require(delegateProxy != address(0));\n\n        /* Assert implementation. */\n        require(delegateProxy.implementation() == registry.delegateProxyImplementation());\n\n        /* Access the passthrough AuthenticatedProxy. */\n        AuthenticatedProxy proxy = AuthenticatedProxy(delegateProxy);\n\n        /* EFFECTS */\n\n        /* Mark previously signed or approved orders as finalized. */\n        if (msg.sender != buy.maker) {\n            cancelledOrFinalized[buyHash] = true;\n        }\n        if (msg.sender != sell.maker) {\n            cancelledOrFinalized[sellHash] = true;\n        }\n\n        /* INTERACTIONS */\n\n        /* Execute funds transfer and pay fees. */\n        uint price = executeFundsTransfer(buy, sell);\n\n        /* Execute specified call through proxy. */\n        require(proxy.proxy(sell.target, sell.howToCall, sell.calldata));\n\n        /* Static calls are intentionally done after the effectful call so they can check resulting state. */\n\n        /* Handle buy-side static call if specified. */\n        if (buy.staticTarget != address(0)) {\n            require(staticCall(buy.staticTarget, sell.calldata, buy.staticExtradata));\n        }\n\n        /* Handle sell-side static call if specified. */\n        if (sell.staticTarget != address(0)) {\n            require(staticCall(sell.staticTarget, sell.calldata, sell.staticExtradata));\n        }\n\n        /* Log match event. */\n        emit OrdersMatched(buyHash, sellHash, sell.feeRecipient != address(0) ? sell.maker : buy.maker, sell.feeRecipient != address(0) ? buy.maker : sell.maker, sell.paymentRecipient, price, metadata);\n    }\n\n}\n",
  "sourcePath": "/workspace/contracts/exchange/ExchangeCore.sol",
  "compiler": {
    "name": "solc",
    "version": "0.4.23+commit.124ca40d.Emscripten.clang"
  },
  "schemaVersion": "2.0.0",
  "updatedAt": "2023-04-27T06:47:32.435Z"
}