{
  "contractName": "Exchange",
  "abi": [
    {
      "constant": true,
      "inputs": [
        {
          "name": "addr",
          "type": "address"
        },
        {
          "name": "roleName",
          "type": "string"
        }
      ],
      "name": "checkRole",
      "outputs": [],
      "payable": false,
      "stateMutability": "view",
      "type": "function"
    },
    {
      "constant": true,
      "inputs": [],
      "name": "tokenTransferProxy",
      "outputs": [
        {
          "name": "",
          "type": "address"
        }
      ],
      "payable": false,
      "stateMutability": "view",
      "type": "function"
    },
    {
      "constant": true,
      "inputs": [
        {
          "name": "target",
          "type": "address"
        },
        {
          "name": "calldata",
          "type": "bytes"
        },
        {
          "name": "extradata",
          "type": "bytes"
        }
      ],
      "name": "staticCall",
      "outputs": [
        {
          "name": "result",
          "type": "bool"
        }
      ],
      "payable": false,
      "stateMutability": "view",
      "type": "function"
    },
    {
      "constant": false,
      "inputs": [
        {
          "name": "newMinimumMakerProtocolFee",
          "type": "uint256"
        }
      ],
      "name": "changeMinimumMakerProtocolFee",
      "outputs": [],
      "payable": false,
      "stateMutability": "nonpayable",
      "type": "function"
    },
    {
      "constant": true,
      "inputs": [],
      "name": "ROLE_WHITELISTED",
      "outputs": [
        {
          "name": "",
          "type": "string"
        }
      ],
      "payable": false,
      "stateMutability": "view",
      "type": "function"
    },
    {
      "constant": false,
      "inputs": [
        {
          "name": "newMinimumTakerProtocolFee",
          "type": "uint256"
        }
      ],
      "name": "changeMinimumTakerProtocolFee",
      "outputs": [],
      "payable": false,
      "stateMutability": "nonpayable",
      "type": "function"
    },
    {
      "constant": true,
      "inputs": [
        {
          "name": "addr",
          "type": "address"
        },
        {
          "name": "roleName",
          "type": "string"
        }
      ],
      "name": "hasRole",
      "outputs": [
        {
          "name": "",
          "type": "bool"
        }
      ],
      "payable": false,
      "stateMutability": "view",
      "type": "function"
    },
    {
      "constant": false,
      "inputs": [
        {
          "name": "addrs",
          "type": "address[]"
        }
      ],
      "name": "removeAddressesFromWhitelist",
      "outputs": [],
      "payable": false,
      "stateMutability": "nonpayable",
      "type": "function"
    },
    {
      "constant": false,
      "inputs": [
        {
          "name": "addr",
          "type": "address"
        }
      ],
      "name": "removeAddressFromWhitelist",
      "outputs": [],
      "payable": false,
      "stateMutability": "nonpayable",
      "type": "function"
    },
    {
      "constant": true,
      "inputs": [],
      "name": "minimumTakerProtocolFee",
      "outputs": [
        {
          "name": "",
          "type": "uint256"
        }
      ],
      "payable": false,
      "stateMutability": "view",
      "type": "function"
    },
    {
      "constant": false,
      "inputs": [
        {
          "name": "newProtocolFeeRecipient",
          "type": "address"
        }
      ],
      "name": "changeProtocolFeeRecipient",
      "outputs": [],
      "payable": false,
      "stateMutability": "nonpayable",
      "type": "function"
    },
    {
      "constant": true,
      "inputs": [],
      "name": "protocolFeeRecipient",
      "outputs": [
        {
          "name": "",
          "type": "address"
        }
      ],
      "payable": false,
      "stateMutability": "view",
      "type": "function"
    },
    {
      "constant": false,
      "inputs": [],
      "name": "renounceOwnership",
      "outputs": [],
      "payable": false,
      "stateMutability": "nonpayable",
      "type": "function"
    },
    {
      "constant": true,
      "inputs": [],
      "name": "registry",
      "outputs": [
        {
          "name": "",
          "type": "address"
        }
      ],
      "payable": false,
      "stateMutability": "view",
      "type": "function"
    },
    {
      "constant": false,
      "inputs": [
        {
          "name": "addr",
          "type": "address"
        }
      ],
      "name": "addAddressToWhitelist",
      "outputs": [],
      "payable": false,
      "stateMutability": "nonpayable",
      "type": "function"
    },
    {
      "constant": true,
      "inputs": [],
      "name": "minimumMakerProtocolFee",
      "outputs": [
        {
          "name": "",
          "type": "uint256"
        }
      ],
      "payable": false,
      "stateMutability": "view",
      "type": "function"
    },
    {
      "constant": true,
      "inputs": [
        {
          "name": "",
          "type": "bytes32"
        }
      ],
      "name": "cancelledOrFinalized",
      "outputs": [
        {
          "name": "",
          "type": "bool"
        }
      ],
      "payable": false,
      "stateMutability": "view",
      "type": "function"
    },
    {
      "constant": true,
      "inputs": [],
      "name": "owner",
      "outputs": [
        {
          "name": "",
          "type": "address"
        }
      ],
      "payable": false,
      "stateMutability": "view",
      "type": "function"
    },
    {
      "constant": true,
      "inputs": [
        {
          "name": "addr",
          "type": "address"
        }
      ],
      "name": "whitelist",
      "outputs": [
        {
          "name": "",
          "type": "bool"
        }
      ],
      "payable": false,
      "stateMutability": "view",
      "type": "function"
    },
    {
      "constant": true,
      "inputs": [],
      "name": "exchangeToken",
      "outputs": [
        {
          "name": "",
          "type": "address"
        }
      ],
      "payable": false,
      "stateMutability": "view",
      "type": "function"
    },
    {
      "constant": true,
      "inputs": [],
      "name": "INVERSE_BASIS_POINT",
      "outputs": [
        {
          "name": "",
          "type": "uint256"
        }
      ],
      "payable": false,
      "stateMutability": "view",
      "type": "function"
    },
    {
      "constant": false,
      "inputs": [
        {
          "name": "addrs",
          "type": "address[]"
        }
      ],
      "name": "addAddressesToWhitelist",
      "outputs": [],
      "payable": false,
      "stateMutability": "nonpayable",
      "type": "function"
    },
    {
      "constant": true,
      "inputs": [
        {
          "name": "",
          "type": "bytes32"
        }
      ],
      "name": "approvedOrders",
      "outputs": [
        {
          "name": "",
          "type": "bool"
        }
      ],
      "payable": false,
      "stateMutability": "view",
      "type": "function"
    },
    {
      "constant": false,
      "inputs": [
        {
          "name": "newOwner",
          "type": "address"
        }
      ],
      "name": "transferOwnership",
      "outputs": [],
      "payable": false,
      "stateMutability": "nonpayable",
      "type": "function"
    },
    {
      "anonymous": false,
      "inputs": [
        {
          "indexed": true,
          "name": "hash",
          "type": "bytes32"
        },
        {
          "indexed": false,
          "name": "exchange",
          "type": "address"
        },
        {
          "indexed": true,
          "name": "maker",
          "type": "address"
        },
        {
          "indexed": false,
          "name": "taker",
          "type": "address"
        },
        {
          "indexed": false,
          "name": "paymentRecipient",
          "type": "address"
        },
        {
          "indexed": false,
          "name": "makerRelayerFee",
          "type": "uint256"
        },
        {
          "indexed": false,
          "name": "takerRelayerFee",
          "type": "uint256"
        },
        {
          "indexed": false,
          "name": "makerProtocolFee",
          "type": "uint256"
        },
        {
          "indexed": false,
          "name": "takerProtocolFee",
          "type": "uint256"
        },
        {
          "indexed": true,
          "name": "feeRecipient",
          "type": "address"
        },
        {
          "indexed": false,
          "name": "feeMethod",
          "type": "uint8"
        },
        {
          "indexed": false,
          "name": "side",
          "type": "uint8"
        },
        {
          "indexed": false,
          "name": "saleKind",
          "type": "uint8"
        },
        {
          "indexed": false,
          "name": "target",
          "type": "address"
        }
      ],
      "name": "OrderApprovedPartOne",
      "type": "event"
    },
    {
      "anonymous": false,
      "inputs": [
        {
          "indexed": true,
          "name": "hash",
          "type": "bytes32"
        },
        {
          "indexed": false,
          "name": "howToCall",
          "type": "uint8"
        },
        {
          "indexed": false,
          "name": "calldata",
          "type": "bytes"
        },
        {
          "indexed": false,
          "name": "replacementPattern",
          "type": "bytes"
        },
        {
          "indexed": false,
          "name": "staticTarget",
          "type": "address"
        },
        {
          "indexed": false,
          "name": "staticExtradata",
          "type": "bytes"
        },
        {
          "indexed": false,
          "name": "paymentToken",
          "type": "address"
        },
        {
          "indexed": false,
          "name": "basePrice",
          "type": "uint256"
        },
        {
          "indexed": false,
          "name": "extra",
          "type": "uint256"
        },
        {
          "indexed": false,
          "name": "listingTime",
          "type": "uint256"
        },
        {
          "indexed": false,
          "name": "expirationTime",
          "type": "uint256"
        },
        {
          "indexed": false,
          "name": "salt",
          "type": "uint256"
        },
        {
          "indexed": false,
          "name": "orderbookInclusionDesired",
          "type": "bool"
        }
      ],
      "name": "OrderApprovedPartTwo",
      "type": "event"
    },
    {
      "anonymous": false,
      "inputs": [
        {
          "indexed": true,
          "name": "hash",
          "type": "bytes32"
        }
      ],
      "name": "OrderCancelled",
      "type": "event"
    },
    {
      "anonymous": false,
      "inputs": [
        {
          "indexed": false,
          "name": "buyHash",
          "type": "bytes32"
        },
        {
          "indexed": false,
          "name": "sellHash",
          "type": "bytes32"
        },
        {
          "indexed": true,
          "name": "maker",
          "type": "address"
        },
        {
          "indexed": true,
          "name": "taker",
          "type": "address"
        },
        {
          "indexed": false,
          "name": "paymentRecipient",
          "type": "address"
        },
        {
          "indexed": false,
          "name": "price",
          "type": "uint256"
        },
        {
          "indexed": true,
          "name": "metadata",
          "type": "bytes32"
        }
      ],
      "name": "OrdersMatched",
      "type": "event"
    },
    {
      "anonymous": false,
      "inputs": [
        {
          "indexed": false,
          "name": "addr",
          "type": "address"
        }
      ],
      "name": "WhitelistedAddressAdded",
      "type": "event"
    },
    {
      "anonymous": false,
      "inputs": [
        {
          "indexed": false,
          "name": "addr",
          "type": "address"
        }
      ],
      "name": "WhitelistedAddressRemoved",
      "type": "event"
    },
    {
      "anonymous": false,
      "inputs": [
        {
          "indexed": false,
          "name": "addr",
          "type": "address"
        },
        {
          "indexed": false,
          "name": "roleName",
          "type": "string"
        }
      ],
      "name": "RoleAdded",
      "type": "event"
    },
    {
      "anonymous": false,
      "inputs": [
        {
          "indexed": false,
          "name": "addr",
          "type": "address"
        },
        {
          "indexed": false,
          "name": "roleName",
          "type": "string"
        }
      ],
      "name": "RoleRemoved",
      "type": "event"
    },
    {
      "anonymous": false,
      "inputs": [
        {
          "indexed": true,
          "name": "previousOwner",
          "type": "address"
        }
      ],
      "name": "OwnershipRenounced",
      "type": "event"
    },
    {
      "anonymous": false,
      "inputs": [
        {
          "indexed": true,
          "name": "previousOwner",
          "type": "address"
        },
        {
          "indexed": true,
          "name": "newOwner",
          "type": "address"
        }
      ],
      "name": "OwnershipTransferred",
      "type": "event"
    },
    {
      "constant": true,
      "inputs": [
        {
          "name": "array",
          "type": "bytes"
        },
        {
          "name": "desired",
          "type": "bytes"
        },
        {
          "name": "mask",
          "type": "bytes"
        }
      ],
      "name": "guardedArrayReplace",
      "outputs": [
        {
          "name": "",
          "type": "bytes"
        }
      ],
      "payable": false,
      "stateMutability": "pure",
      "type": "function"
    },
    {
      "constant": true,
      "inputs": [
        {
          "name": "arrToCopy",
          "type": "bytes"
        }
      ],
      "name": "testCopy",
      "outputs": [
        {
          "name": "",
          "type": "bytes"
        }
      ],
      "payable": false,
      "stateMutability": "pure",
      "type": "function"
    },
    {
      "constant": true,
      "inputs": [
        {
          "name": "addr",
          "type": "address"
        }
      ],
      "name": "testCopyAddress",
      "outputs": [
        {
          "name": "",
          "type": "bytes"
        }
      ],
      "payable": false,
      "stateMutability": "pure",
      "type": "function"
    },
    {
      "constant": true,
      "inputs": [
        {
          "name": "side",
          "type": "uint8"
        },
        {
          "name": "saleKind",
          "type": "uint8"
        },
        {
          "name": "basePrice",
          "type": "uint256"
        },
        {
          "name": "extra",
          "type": "uint256"
        },
        {
          "name": "listingTime",
          "type": "uint256"
        },
        {
          "name": "expirationTime",
          "type": "uint256"
        }
      ],
      "name": "calculateFinalPrice",
      "outputs": [
        {
          "name": "",
          "type": "uint256"
        }
      ],
      "payable": false,
      "stateMutability": "view",
      "type": "function"
    },
    {
      "constant": true,
      "inputs": [
        {
          "name": "addrs",
          "type": "address[8]"
        },
        {
          "name": "uints",
          "type": "uint256[9]"
        },
        {
          "name": "feeMethod",
          "type": "uint8"
        },
        {
          "name": "side",
          "type": "uint8"
        },
        {
          "name": "saleKind",
          "type": "uint8"
        },
        {
          "name": "howToCall",
          "type": "uint8"
        },
        {
          "name": "calldata",
          "type": "bytes"
        },
        {
          "name": "replacementPattern",
          "type": "bytes"
        },
        {
          "name": "staticExtradata",
          "type": "bytes"
        }
      ],
      "name": "hashOrder_",
      "outputs": [
        {
          "name": "",
          "type": "bytes32"
        }
      ],
      "payable": false,
      "stateMutability": "pure",
      "type": "function"
    },
    {
      "constant": true,
      "inputs": [
        {
          "name": "addrs",
          "type": "address[8]"
        },
        {
          "name": "uints",
          "type": "uint256[9]"
        },
        {
          "name": "feeMethod",
          "type": "uint8"
        },
        {
          "name": "side",
          "type": "uint8"
        },
        {
          "name": "saleKind",
          "type": "uint8"
        },
        {
          "name": "howToCall",
          "type": "uint8"
        },
        {
          "name": "calldata",
          "type": "bytes"
        },
        {
          "name": "replacementPattern",
          "type": "bytes"
        },
        {
          "name": "staticExtradata",
          "type": "bytes"
        }
      ],
      "name": "hashToSign_",
      "outputs": [
        {
          "name": "",
          "type": "bytes32"
        }
      ],
      "payable": false,
      "stateMutability": "pure",
      "type": "function"
    },
    {
      "constant": true,
      "inputs": [
        {
          "name": "addrs",
          "type": "address[8]"
        },
        {
          "name": "uints",
          "type": "uint256[9]"
        },
        {
          "name": "feeMethod",
          "type": "uint8"
        },
        {
          "name": "side",
          "type": "uint8"
        },
        {
          "name": "saleKind",
          "type": "uint8"
        },
        {
          "name": "howToCall",
          "type": "uint8"
        },
        {
          "name": "calldata",
          "type": "bytes"
        },
        {
          "name": "replacementPattern",
          "type": "bytes"
        },
        {
          "name": "staticExtradata",
          "type": "bytes"
        }
      ],
      "name": "validateOrderParameters_",
      "outputs": [
        {
          "name": "",
          "type": "bool"
        }
      ],
      "payable": false,
      "stateMutability": "view",
      "type": "function"
    },
    {
      "constant": true,
      "inputs": [
        {
          "name": "addrs",
          "type": "address[8]"
        },
        {
          "name": "uints",
          "type": "uint256[9]"
        },
        {
          "name": "feeMethod",
          "type": "uint8"
        },
        {
          "name": "side",
          "type": "uint8"
        },
        {
          "name": "saleKind",
          "type": "uint8"
        },
        {
          "name": "howToCall",
          "type": "uint8"
        },
        {
          "name": "calldata",
          "type": "bytes"
        },
        {
          "name": "replacementPattern",
          "type": "bytes"
        },
        {
          "name": "staticExtradata",
          "type": "bytes"
        },
        {
          "name": "v",
          "type": "uint8"
        },
        {
          "name": "r",
          "type": "bytes32"
        },
        {
          "name": "s",
          "type": "bytes32"
        }
      ],
      "name": "validateOrder_",
      "outputs": [
        {
          "name": "",
          "type": "bool"
        }
      ],
      "payable": false,
      "stateMutability": "view",
      "type": "function"
    },
    {
      "constant": false,
      "inputs": [
        {
          "name": "addrs",
          "type": "address[8]"
        },
        {
          "name": "uints",
          "type": "uint256[9]"
        },
        {
          "name": "feeMethod",
          "type": "uint8"
        },
        {
          "name": "side",
          "type": "uint8"
        },
        {
          "name": "saleKind",
          "type": "uint8"
        },
        {
          "name": "howToCall",
          "type": "uint8"
        },
        {
          "name": "calldata",
          "type": "bytes"
        },
        {
          "name": "replacementPattern",
          "type": "bytes"
        },
        {
          "name": "staticExtradata",
          "type": "bytes"
        },
        {
          "name": "orderbookInclusionDesired",
          "type": "bool"
        }
      ],
      "name": "approveOrder_",
      "outputs": [],
      "payable": false,
      "stateMutability": "nonpayable",
      "type": "function"
    },
    {
      "constant": false,
      "inputs": [
        {
          "name": "addrs",
          "type": "address[8]"
        },
        {
          "name": "uints",
          "type": "uint256[9]"
        },
        {
          "name": "feeMethod",
          "type": "uint8"
        },
        {
          "name": "side",
          "type": "uint8"
        },
        {
          "name": "saleKind",
          "type": "uint8"
        },
        {
          "name": "howToCall",
          "type": "uint8"
        },
        {
          "name": "calldata",
          "type": "bytes"
        },
        {
          "name": "replacementPattern",
          "type": "bytes"
        },
        {
          "name": "staticExtradata",
          "type": "bytes"
        },
        {
          "name": "v",
          "type": "uint8"
        },
        {
          "name": "r",
          "type": "bytes32"
        },
        {
          "name": "s",
          "type": "bytes32"
        }
      ],
      "name": "cancelOrder_",
      "outputs": [],
      "payable": false,
      "stateMutability": "nonpayable",
      "type": "function"
    },
    {
      "constant": true,
      "inputs": [
        {
          "name": "addrs",
          "type": "address[8]"
        },
        {
          "name": "uints",
          "type": "uint256[9]"
        },
        {
          "name": "feeMethod",
          "type": "uint8"
        },
        {
          "name": "side",
          "type": "uint8"
        },
        {
          "name": "saleKind",
          "type": "uint8"
        },
        {
          "name": "howToCall",
          "type": "uint8"
        },
        {
          "name": "calldata",
          "type": "bytes"
        },
        {
          "name": "replacementPattern",
          "type": "bytes"
        },
        {
          "name": "staticExtradata",
          "type": "bytes"
        }
      ],
      "name": "calculateCurrentPrice_",
      "outputs": [
        {
          "name": "",
          "type": "uint256"
        }
      ],
      "payable": false,
      "stateMutability": "view",
      "type": "function"
    },
    {
      "constant": true,
      "inputs": [
        {
          "name": "addrs",
          "type": "address[16]"
        },
        {
          "name": "uints",
          "type": "uint256[18]"
        },
        {
          "name": "feeMethodsSidesKindsHowToCalls",
          "type": "uint8[8]"
        },
        {
          "name": "calldataBuy",
          "type": "bytes"
        },
        {
          "name": "calldataSell",
          "type": "bytes"
        },
        {
          "name": "replacementPatternBuy",
          "type": "bytes"
        },
        {
          "name": "replacementPatternSell",
          "type": "bytes"
        },
        {
          "name": "staticExtradataBuy",
          "type": "bytes"
        },
        {
          "name": "staticExtradataSell",
          "type": "bytes"
        }
      ],
      "name": "ordersCanMatch_",
      "outputs": [
        {
          "name": "",
          "type": "bool"
        }
      ],
      "payable": false,
      "stateMutability": "view",
      "type": "function"
    },
    {
      "constant": true,
      "inputs": [
        {
          "name": "buyCalldata",
          "type": "bytes"
        },
        {
          "name": "buyReplacementPattern",
          "type": "bytes"
        },
        {
          "name": "sellCalldata",
          "type": "bytes"
        },
        {
          "name": "sellReplacementPattern",
          "type": "bytes"
        }
      ],
      "name": "orderCalldataCanMatch",
      "outputs": [
        {
          "name": "",
          "type": "bool"
        }
      ],
      "payable": false,
      "stateMutability": "pure",
      "type": "function"
    },
    {
      "constant": true,
      "inputs": [
        {
          "name": "addrs",
          "type": "address[16]"
        },
        {
          "name": "uints",
          "type": "uint256[18]"
        },
        {
          "name": "feeMethodsSidesKindsHowToCalls",
          "type": "uint8[8]"
        },
        {
          "name": "calldataBuy",
          "type": "bytes"
        },
        {
          "name": "calldataSell",
          "type": "bytes"
        },
        {
          "name": "replacementPatternBuy",
          "type": "bytes"
        },
        {
          "name": "replacementPatternSell",
          "type": "bytes"
        },
        {
          "name": "staticExtradataBuy",
          "type": "bytes"
        },
        {
          "name": "staticExtradataSell",
          "type": "bytes"
        }
      ],
      "name": "calculateMatchPrice_",
      "outputs": [
        {
          "name": "",
          "type": "uint256"
        }
      ],
      "payable": false,
      "stateMutability": "view",
      "type": "function"
    },
    {
      "constant": false,
      "inputs": [
        {
          "name": "addrs",
          "type": "address[16]"
        },
        {
          "name": "uints",
          "type": "uint256[18]"
        },
        {
          "name": "feeMethodsSidesKindsHowToCalls",
          "type": "uint8[8]"
        },
        {
          "name": "calldataBuy",
          "type": "bytes"
        },
        {
          "name": "calldataSell",
          "type": "bytes"
        },
        {
          "name": "replacementPatternBuy",
          "type": "bytes"
        },
        {
          "name": "replacementPatternSell",
          "type": "bytes"
        },
        {
          "name": "staticExtradataBuy",
          "type": "bytes"
        },
        {
          "name": "staticExtradataSell",
          "type": "bytes"
        },
        {
          "name": "vs",
          "type": "uint8[2]"
        },
        {
          "name": "rssMetadata",
          "type": "bytes32[5]"
        }
      ],
      "name": "atomicMatch_",
      "outputs": [],
      "payable": true,
      "stateMutability": "payable",
      "type": "function"
    }
  ],
  "bytecode": "0x60806040526000805460078290556008829055600160a060020a03331661010002600160a860020a03199091161790556156908061003e6000396000f3006080604052600436106101c95763ffffffff60e060020a6000350416630789d1c781146101ce5780630988ca8c146103e75780630eefdbad1461045057806310796a471461048157806314350c241461053a578063156d6f571461055257806318b919e9146106a85780631a6b13e214610732578063217fe6c61461074a57806321bee27c146107b1578063239e83df146108fc57806323c13720146109d157806324953eaa14610b18578063286dd3f514610b6d57806328a8ee6814610b8e5780632cb5734e14610ba35780633464af6a14610de65780633e1e292a14610e0757806344a86e6214610e60578063514f033014611067578063562b2ebc1461108857806363d36c0b1461119b57806364df049e146111c85780637085816b146111dd578063715018a6146113335780637b103999146113485780637b9417c81461135d5780637ccefc521461137e5780638076f005146113935780638be95fed146113ab5780638da5cb5b146114f25780639b19251a14611507578063a25eb5d914611528578063bc24e8f91461153d578063bea7889b14611684578063cae6047f146117cb578063e2ec6ec3146117e0578063e57d4adb14611835578063f2fde38b1461184d575b600080fd5b3480156101da57600080fd5b50604080516102008181019092526103d59136916004916102049190839060109083908390808284375050604080516102408181019092529497969581810195945092506012915083908390808284375050604080516101008181019092529497969581810195945092506008915083908390808284375050604080516020601f88358a0180359182018390048302840183019094528083529699989781019691955091820193509150819084018382808284375050604080516020601f89358b018035918201839004830284018301909452808352979a99988101979196509182019450925082915084018382808284375050604080516020601f89358b018035918201839004830284018301909452808352979a99988101979196509182019450925082915084018382808284375050604080516020601f89358b018035918201839004830284018301909452808352979a99988101979196509182019450925082915084018382808284375050604080516020601f89358b018035918201839004830284018301909452808352979a99988101979196509182019450925082915084018382808284375050604080516020601f89358b018035918201839004830284018301909452808352979a99988101979196509182019450925082915084018382808284375094975061186e9650505050505050565b60408051918252519081900360200190f35b3480156103f357600080fd5b5060408051602060046024803582810135601f810185900485028601850190965285855261044e958335600160a060020a0316953695604494919390910191908190840183828082843750949750611c8d9650505050505050565b005b34801561045c57600080fd5b50610465611cfb565b60408051600160a060020a039092168252519081900360200190f35b34801561048d57600080fd5b5060408051602060046024803582810135601f8101859004850286018501909652858552610526958335600160a060020a031695369560449491939091019190819084018382808284375050604080516020601f89358b018035918201839004830284018301909452808352979a999881019791965091820194509250829150840183828082843750949750611d0a9650505050505050565b604080519115158252519081900360200190f35b34801561054657600080fd5b5061044e600435611d79565b34801561055e57600080fd5b50604080516101008181019092526105269136916004916101049190839060089083908390808284375050604080516101208181019092529497969581810195945092506009915083908390808284375050604080516020601f60808901358a0180359182018390048302840183018552818452979a60ff8a3581169b848c013582169b9687013582169a6060880135909216995091975090955060a090940193820191819084018382808284375050604080516020601f89358b018035918201839004830284018301909452808352979a99988101979196509182019450925082915084018382808284375050604080516020601f89358b018035918201839004830284018301909452808352979a9998810197919650918201945092508291508401838280828437509497505050833560ff1694505050602082013591604001359050611d9e565b3480156106b457600080fd5b506106bd611fa6565b6040805160208082528351818301528351919283929083019185019080838360005b838110156106f75781810151838201526020016106df565b50505050905090810190601f1680156107245780820380516001836020036101000a031916815260200191505b509250505060405180910390f35b34801561073e57600080fd5b5061044e600435611fcb565b34801561075657600080fd5b5060408051602060046024803582810135601f8101859004850286018501909652858552610526958335600160a060020a0316953695604494919390910191908190840183828082843750949750611ff09650505050505050565b3480156107bd57600080fd5b506040805161010081810190925261044e9136916004916101049190839060089083908390808284375050604080516101208181019092529497969581810195945092506009915083908390808284375050604080516020601f60808901358a0180359182018390048302840183018552818452979a60ff8a3581169b848c013582169b9687013582169a6060880135909216995091975090955060a090940193820191819084018382808284375050604080516020601f89358b018035918201839004830284018301909452808352979a99988101979196509182019450925082915084018382808284375050604080516020601f89358b018035918201839004830284018301909452808352979a999881019791965091820194509250829150840183828082843750949750505050913515159250612065915050565b34801561090857600080fd5b506040805160206004803580820135601f81018490048402850184019095528484526106bd94369492936024939284019190819084018382808284375050604080516020601f89358b018035918201839004830284018301909452808352979a99988101979196509182019450925082915084018382808284375050604080516020601f89358b018035918201839004830284018301909452808352979a99988101979196509182019450925082915084018382808284375094975061221b9650505050505050565b3480156109dd57600080fd5b50604080516101008181019092526103d59136916004916101049190839060089083908390808284375050604080516101208181019092529497969581810195945092506009915083908390808284375050604080516020601f60808901358a0180359182018390048302840183018552818452979a60ff8a3581169b848c013582169b9687013582169a6060880135909216995091975090955060a090940193820191819084018382808284375050604080516020601f89358b018035918201839004830284018301909452808352979a99988101979196509182019450925082915084018382808284375050604080516020601f89358b018035918201839004830284018301909452808352979a9998810197919650918201945092508291508401838280828437509497506122329650505050505050565b348015610b2457600080fd5b506040805160206004803580820135838102808601850190965280855261044e9536959394602494938501929182918501908490808284375094975061238e9650505050505050565b348015610b7957600080fd5b5061044e600160a060020a03600435166123e4565b348015610b9a57600080fd5b506103d5612470565b6040805161020081810190925261044e9136916004916102049190839060109083908390808284375050604080516102408181019092529497969581810195945092506012915083908390808284375050604080516101008181019092529497969581810195945092506008915083908390808284375050604080516020601f88358a0180359182018390048302840183019094528083529699989781019691955091820193509150819084018382808284375050604080516020601f89358b018035918201839004830284018301909452808352979a99988101979196509182019450925082915084018382808284375050604080516020601f89358b018035918201839004830284018301909452808352979a99988101979196509182019450925082915084018382808284375050604080516020601f89358b018035918201839004830284018301909452808352979a99988101979196509182019450925082915084018382808284375050604080516020601f89358b018035918201839004830284018301909452808352979a99988101979196509182019450925082915084018382808284375050604080516020601f89358b018035918201839004830284018301909452808352979a999881019791965091820194509250829150840183828082843750506040805180820182529598979681810196955093506002925084915083908082843750506040805160a08181019092529497969581810195945092506005915083908390808284375093965061247695505050505050565b348015610df257600080fd5b506106bd600160a060020a036004351661290d565b348015610e1357600080fd5b506040805160206004803580820135601f81018490048402850184019095528484526106bd94369492936024939284019190819084018382808284375094975061294d9650505050505050565b348015610e6c57600080fd5b50604080516102008181019092526105269136916004916102049190839060109083908390808284375050604080516102408181019092529497969581810195945092506012915083908390808284375050604080516101008181019092529497969581810195945092506008915083908390808284375050604080516020601f88358a0180359182018390048302840183019094528083529699989781019691955091820193509150819084018382808284375050604080516020601f89358b018035918201839004830284018301909452808352979a99988101979196509182019450925082915084018382808284375050604080516020601f89358b018035918201839004830284018301909452808352979a99988101979196509182019450925082915084018382808284375050604080516020601f89358b018035918201839004830284018301909452808352979a99988101979196509182019450925082915084018382808284375050604080516020601f89358b018035918201839004830284018301909452808352979a99988101979196509182019450925082915084018382808284375050604080516020601f89358b018035918201839004830284018301909452808352979a9998810197919650918201945092508291508401838280828437509497506129939650505050505050565b34801561107357600080fd5b5061044e600160a060020a0360043516612da2565b34801561109457600080fd5b506040805160206004803580820135601f810184900484028501840190955284845261052694369492936024939284019190819084018382808284375050604080516020601f89358b018035918201839004830284018301909452808352979a99988101979196509182019450925082915084018382808284375050604080516020601f89358b018035918201839004830284018301909452808352979a99988101979196509182019450925082915084018382808284375050604080516020601f89358b018035918201839004830284018301909452808352979a999881019791965091820194509250829150840183828082843750949750612df19650505050505050565b3480156111a757600080fd5b506103d560ff6004358116906024351660443560643560843560a435612e2f565b3480156111d457600080fd5b50610465612e4a565b3480156111e957600080fd5b506040805161010081810190925261044e9136916004916101049190839060089083908390808284375050604080516101208181019092529497969581810195945092506009915083908390808284375050604080516020601f60808901358a0180359182018390048302840183018552818452979a60ff8a3581169b848c013582169b9687013582169a6060880135909216995091975090955060a090940193820191819084018382808284375050604080516020601f89358b018035918201839004830284018301909452808352979a99988101979196509182019450925082915084018382808284375050604080516020601f89358b018035918201839004830284018301909452808352979a9998810197919650918201945092508291508401838280828437509497505050833560ff1694505050602082013591604001359050612e59565b34801561133f57600080fd5b5061044e61303a565b34801561135457600080fd5b506104656130b4565b34801561136957600080fd5b5061044e600160a060020a03600435166130c3565b34801561138a57600080fd5b506103d561314f565b34801561139f57600080fd5b50610526600435613155565b3480156113b757600080fd5b50604080516101008181019092526105269136916004916101049190839060089083908390808284375050604080516101208181019092529497969581810195945092506009915083908390808284375050604080516020601f60808901358a0180359182018390048302840183018552818452979a60ff8a3581169b848c013582169b9687013582169a6060880135909216995091975090955060a090940193820191819084018382808284375050604080516020601f89358b018035918201839004830284018301909452808352979a99988101979196509182019450925082915084018382808284375050604080516020601f89358b018035918201839004830284018301909452808352979a99988101979196509182019450925082915084018382808284375094975061316a9650505050505050565b3480156114fe57600080fd5b50610465613323565b34801561151357600080fd5b50610526600160a060020a0360043516613337565b34801561153457600080fd5b5061046561336e565b34801561154957600080fd5b50604080516101008181019092526103d59136916004916101049190839060089083908390808284375050604080516101208181019092529497969581810195945092506009915083908390808284375050604080516020601f60808901358a0180359182018390048302840183018552818452979a60ff8a3581169b848c013582169b9687013582169a6060880135909216995091975090955060a090940193820191819084018382808284375050604080516020601f89358b018035918201839004830284018301909452808352979a99988101979196509182019450925082915084018382808284375050604080516020601f89358b018035918201839004830284018301909452808352979a99988101979196509182019450925082915084018382808284375094975061337d9650505050505050565b34801561169057600080fd5b50604080516101008181019092526103d59136916004916101049190839060089083908390808284375050604080516101208181019092529497969581810195945092506009915083908390808284375050604080516020601f60808901358a0180359182018390048302840183018552818452979a60ff8a3581169b848c013582169b9687013582169a6060880135909216995091975090955060a090940193820191819084018382808284375050604080516020601f89358b018035918201839004830284018301909452808352979a99988101979196509182019450925082915084018382808284375050604080516020601f89358b018035918201839004830284018301909452808352979a9998810197919650918201945092508291508401838280828437509497506134cb9650505050505050565b3480156117d757600080fd5b506103d5613619565b3480156117ec57600080fd5b506040805160206004803580820135838102808601850190965280855261044e9536959394602494938501929182918501908490808284375094975061361f9650505050505050565b34801561184157600080fd5b50610526600435613675565b34801561185957600080fd5b5061044e600160a060020a036004351661368a565b6000611878615578565b611880615578565b604080516103008101909152808d600060209081029190910151600160a060020a03168252018d600160209081029190910151600160a060020a03168252018d600260209081029190910151600160a060020a03168252018d600360209081029190910151600160a060020a03168252018c6000602090810291909101518252018c6001602090810291909101518252018c6002602090810291909101518252018c6003602090810291909101518252018d600460209081029190910151600160a060020a03168252018b6000602002015160ff16600181111561196057fe5b600181111561196b57fe5b81526020018b6001602002015160ff16600181111561198657fe5b600181111561199157fe5b81526020018b6002602002015160ff1660018111156119ac57fe5b60018111156119b757fe5b815260a08e0151600160a060020a0316602082015260608c015160409091019060ff1660018111156119e557fe5b60018111156119f057fe5b8152602081018b90526040810189905260c08e0151600160a060020a031660608201526080810187905260a0018d600760209081029190910151600160a060020a03168252018c6004602090810291909101518252018c6005602090810291909101518252018c6006602090810291909101518252018c6007602090810291909101518252018c600860200201519052604080516103008101909152909250808d600860209081029190910151600160a060020a03168252018d600960209081029190910151600160a060020a03168252018d600a60209081029190910151600160a060020a03168252018d600b60209081029190910151600160a060020a03168252018c6009602090810291909101518252018c600a602090810291909101518252018c600b602090810291909101518252018c600c602090810291909101518252018d600c60209081029190910151600160a060020a03168252018b6004602002015160ff166001811115611b6357fe5b6001811115611b6e57fe5b81526020018b6005602002015160ff166001811115611b8957fe5b6001811115611b9457fe5b81526020018b6006602002015160ff166001811115611baf57fe5b6001811115611bba57fe5b81526101a08e0151600160a060020a0316602082015260e08c015160409091019060ff166001811115611be957fe5b6001811115611bf457fe5b8152602081018a9052604081018890526101c08e0151600160a060020a031660608201526080810186905260a0018d600f60209081029190910151600160a060020a031682526101a08e0151908201526101c08d015160408201526101e08d015160608201526102008d015160808201526102208d015160a0909101529050611c7d8282613732565b9c9b505050505050505050505050565b611cf7826001836040518082805190602001908083835b60208310611cc35780518252601f199092019160209182019101611ca4565b51815160209384036101000a60001901801990921691161790529201948552506040519384900301909220929150506137c3565b5050565b600454600160a060020a031681565b60006060600083518551016040519080825280601f01601f191660200182016040528015611d42578160200160208202803883390190505b5091505060208101611d5481856137d8565b9050611d6081866137d8565b506000604051835160208501895afa9695505050505050565b60005433600160a060020a039081166101009092041614611d9957600080fd5b600755565b6000611da8615578565b604080516103008101909152808f600060209081029190910151600160a060020a03168252018f600160209081029190910151600160a060020a03168252018f600260209081029190910151600160a060020a03168252018f600360209081029190910151600160a060020a03168252018e6000602090810291909101518252018e6001602090810291909101518252018e6002602090810291909101518252018e6003602090810291909101518252018f60046020020151600160a060020a031681526020018d6001811115611e7b57fe5b81526020018c6001811115611e8c57fe5b81526020018b6001811115611e9d57fe5b81526020018f60056020020151600160a060020a031681526020018a6001811115611ec457fe5b8152602081018a9052604081018990526060018f60066020020151600160a060020a031681526020018781526020018f6007600881101515611f0257fe5b60209081029190910151600160a060020a03168252018e6004602090810291909101518252018e6005602090810291909101518252018e6006602090810291909101518252018e6007602090810291909101518252018e6008602002015190529050611f94611f708261381c565b6040805160608101825260ff89168152602081018890529081018690528390613867565b9e9d5050505050505050505050505050565b6040805180820190915260098152600080516020615645833981519152602082015281565b60005433600160a060020a039081166101009092041614611feb57600080fd5b600855565b600061205c836001846040518082805190602001908083835b602083106120285780518252601f199092019160209182019101612009565b51815160209384036101000a600019018019909216911617905292019485525060405193849003019092209291505061395c565b90505b92915050565b61206d615578565b604080516103008101909152808c600060209081029190910151600160a060020a03168252018c600160209081029190910151600160a060020a03168252018c600260209081029190910151600160a060020a03168252018c600360209081029190910151600160a060020a03168252018b6000602090810291909101518252018b6001602090810291909101518252018b6002602090810291909101518252018b6003602090810291909101518252018c60046020020151600160a060020a031681526020018a600181111561214057fe5b815260200189600181111561215157fe5b815260200188600181111561216257fe5b815260a08d0151600160a060020a0316602082015260400187600181111561218657fe5b8152602081018790526040810186905260c08d0151600160a060020a031660608201526080810185905260a0018c600760209081029190910151600160a060020a031682526080808e01519183019190915260a0808e0151604084015260c08e0151606084015260e08e0151918301919091526101008d0151910152905061220e818361397b565b5050505050505050505050565b60606122288484846139f2565b50825b9392505050565b60408051610300810182528a51600160a060020a0390811682526020808d01518216818401528c8401518216838501526060808e01518316818501528c51608080860191909152918d015160a0850152938c015160c0840152928b015160e0830152918b01519091166101008201526000906123809061012081018a60018111156122b957fe5b81526020018960018111156122ca57fe5b81526020018860018111156122db57fe5b815260a08d0151600160a060020a031660208201526040018760018111156122ff57fe5b8152602081018790526040810186905260c08d0151600160a060020a031660608201526080810185905260a0018c600760209081029190910151600160a060020a031682526080808e01519183019190915260a0808e0151604084015260c08e0151606084015260e08e0151918301919091526101008d0151910152613b79565b9a9950505050505050505050565b6000805433600160a060020a0390811661010090920416146123af57600080fd5b5060005b8151811015611cf7576123dc82828151811015156123cd57fe5b906020019060200201516123e4565b6001016123b3565b60005433600160a060020a03908116610100909204161461240457600080fd5b61243181604080519081016040528060098152602001600080516020615645833981519152815250613d79565b60408051600160a060020a038316815290517ff1abf01a1043b7c244d128e8595cf0c1d10743b022b03a02dffd8ca3bf729f5a9181900360200190a150565b60085481565b60408051610300810190915261220e90808d600060209081029190910151600160a060020a03168252018d600160209081029190910151600160a060020a03168252018d600260209081029190910151600160a060020a03168252018d600360209081029190910151600160a060020a03168252018c6000602090810291909101518252018c6001602090810291909101518252018c6002602090810291909101518252018c6003602090810291909101518252018d600460209081029190910151600160a060020a03168252018b6000602002015160ff16600181111561255a57fe5b600181111561256557fe5b81526020018b6001602002015160ff16600181111561258057fe5b600181111561258b57fe5b81526020018b6002602002015160ff1660018111156125a657fe5b60018111156125b157fe5b815260a08e0151600160a060020a0316602082015260608c015160409091019060ff1660018111156125df57fe5b60018111156125ea57fe5b8152602081018b90526040810189905260c08e0151600160a060020a031660608201526080810187905260a0018d600760209081029190910151600160a060020a03168252018c6004602090810291909101518252018c6005602090810291909101518252018c6006602090810291909101518252018c6007602090810291909101518252018c6008602002015190526040805160608101909152808560006020908102919091015160ff168252018460006020908102919091015182520184600160200201519052604080516103008101909152808f600860209081029190910151600160a060020a03168252018f600960209081029190910151600160a060020a03168252018f600a60209081029190910151600160a060020a03168252018f600b60209081029190910151600160a060020a03168252018e6009602090810291909101518252018e600a602090810291909101518252018e600b602090810291909101518252018e600c602090810291909101518252018f600c60209081029190910151600160a060020a03168252018d6004602002015160ff16600181111561279357fe5b600181111561279e57fe5b81526020018d6005602002015160ff1660018111156127b957fe5b60018111156127c457fe5b81526020018d6006602002015160ff1660018111156127df57fe5b60018111156127ea57fe5b81526020018f600d60209081029190910151600160a060020a03168252018d6007602002015160ff16600181111561281e57fe5b600181111561282957fe5b8152602081018c9052604081018a90526060018f600e6020020151600160a060020a031681526020018781526020018f600f60108110151561286757fe5b60209081029190910151600160a060020a03168252018e600d602090810291909101518252018e600e602090810291909101518252018e600f602090810291909101518252018e6010602090810291909101518252018e6011602002015190526040805160608101909152808760016020908102919091015160ff1682520186600260209081029190910151825201866003602002015190528560046020020151613e9a565b6040805160148082528183019092526060918291600091602082016102808038833901905050915050602081016129448185614486565b50909392505050565b606080600083516040519080825280601f01601f191660200182016040528015612981578160200160208202803883390190505b509150506020810161294481856137d8565b600061299d615578565b6129a5615578565b604080516103008101909152808d600060209081029190910151600160a060020a03168252018d600160209081029190910151600160a060020a03168252018d600260209081029190910151600160a060020a03168252018d600360209081029190910151600160a060020a03168252018c6000602090810291909101518252018c6001602090810291909101518252018c6002602090810291909101518252018c6003602090810291909101518252018d600460209081029190910151600160a060020a03168252018b6000602002015160ff166001811115612a8557fe5b6001811115612a9057fe5b81526020018b6001602002015160ff166001811115612aab57fe5b6001811115612ab657fe5b81526020018b6002602002015160ff166001811115612ad157fe5b6001811115612adc57fe5b815260a08e0151600160a060020a0316602082015260608c015160409091019060ff166001811115612b0a57fe5b6001811115612b1557fe5b8152602081018b90526040810189905260c08e0151600160a060020a031660608201526080810187905260a0018d600760209081029190910151600160a060020a03168252018c6004602090810291909101518252018c6005602090810291909101518252018c6006602090810291909101518252018c6007602090810291909101518252018c600860200201519052604080516103008101909152909250808d600860209081029190910151600160a060020a03168252018d600960209081029190910151600160a060020a03168252018d600a60209081029190910151600160a060020a03168252018d600b60209081029190910151600160a060020a03168252018c6009602090810291909101518252018c600a602090810291909101518252018c600b602090810291909101518252018c600c602090810291909101518252018d600c60209081029190910151600160a060020a03168252018b6004602002015160ff166001811115612c8857fe5b6001811115612c9357fe5b81526020018b6005602002015160ff166001811115612cae57fe5b6001811115612cb957fe5b81526020018b6006602002015160ff166001811115612cd457fe5b6001811115612cdf57fe5b81526101a08e0151600160a060020a0316602082015260e08c015160409091019060ff166001811115612d0e57fe5b6001811115612d1957fe5b8152602081018a9052604081018890526101c08e0151600160a060020a031660608201526080810186905260a0018d600f60209081029190910151600160a060020a031682526101a08e0151908201526101c08d015160408201526101e08d015160608201526102008d015160808201526102208d015160a0909101529050611c7d82826144a6565b60005433600160a060020a039081166101009092041614612dc257600080fd5b6009805473ffffffffffffffffffffffffffffffffffffffff1916600160a060020a0392909216919091179055565b60008084511115612e0757612e078584866139f2565b600082511115612e1c57612e1c8386846139f2565b612e268584614684565b95945050505050565b6000612e3f8787878787876146e8565b979650505050505050565b600954600160a060020a031681565b60408051610300810190915261302c90808e600060209081029190910151600160a060020a03168252018e600160209081029190910151600160a060020a03168252018e600260209081029190910151600160a060020a03168252018e600360209081029190910151600160a060020a03168252018d6000602090810291909101518252018d6001602090810291909101518252018d6002602090810291909101518252018d6003602090810291909101518252018e60046020020151600160a060020a031681526020018c6001811115612f3057fe5b81526020018b6001811115612f4157fe5b81526020018a6001811115612f5257fe5b815260a08f0151600160a060020a03166020820152604001896001811115612f7657fe5b8152602081018990526040810188905260c08f0151600160a060020a031660608201526080810187905260a0018e600760209081029190910151600160a060020a03168252018d6004602090810291909101518252018d6005602090810291909101518252018d6006602090810291909101518252018d6007602090810291909101518252018d6008602090810291909101519091526040805160608101825260ff88168152918201869052810184905261477b565b505050505050505050505050565b60005433600160a060020a03908116610100909204161461305a57600080fd5b60008054604051610100909104600160a060020a0316917ff8df31144d9c2f0f6b59d69b8b98abd5459d07f2742c4df920b25aae33c6482091a26000805474ffffffffffffffffffffffffffffffffffffffff0019169055565b600354600160a060020a031681565b60005433600160a060020a0390811661010090920416146130e357600080fd5b613110816040805190810160405280600981526020016000805160206156458339815191528152506147f2565b60408051600160a060020a038316815290517fd1bba68c128cc3f427e5831b3c6f99f480b6efa6b9e80c757768f6124158cc3f9181900360200190a150565b60075481565b60056020526000908152604090205460ff1681565b6000613174615578565b604080516103008101909152808c600060209081029190910151600160a060020a03168252018c600160209081029190910151600160a060020a03168252018c600260209081029190910151600160a060020a03168252018c600360209081029190910151600160a060020a03168252018b6000602090810291909101518252018b6001602090810291909101518252018b6002602090810291909101518252018b6003602090810291909101518252018c60046020020151600160a060020a031681526020018a600181111561324757fe5b815260200189600181111561325857fe5b815260200188600181111561326957fe5b815260a08d0151600160a060020a0316602082015260400187600181111561328d57fe5b8152602081018790526040810186905260c08d0151600160a060020a031660608201526080810185905260a0018c600760209081029190910151600160a060020a031682526080808e01519183019190915260a0808e0151604084015260c08e0151606084015260e08e0151918301919091526101008d01519101529050613314816148d3565b9b9a5050505050505050505050565b6000546101009004600160a060020a031681565b600061336682604080519081016040528060098152602001600080516020615645833981519152815250611ff0565b90505b919050565b600254600160a060020a031681565b60408051610300810182528a51600160a060020a0390811682526020808d01518216818401528c8401518216838501526060808e01518316818501528c51608080860191909152918d015160a0850152938c015160c0840152928b015160e0830152918b01519091166101008201526000906123809061012081018a600181111561340457fe5b815260200189600181111561341557fe5b815260200188600181111561342657fe5b815260a08d0151600160a060020a0316602082015260400187600181111561344a57fe5b8152602081018790526040810186905260c08d0151600160a060020a031660608201526080810185905260a0018c600760209081029190910151600160a060020a031682526080808e01519183019190915260a0808e0151604084015260c08e0151606084015260e08e0151918301919091526101008d01519101526149c0565b60408051610300810182528a51600160a060020a0390811682526020808d01518216818401528c8401518216838501526060808e01518316818501528c51608080860191909152918d015160a0850152938c015160c0840152928b015160e0830152918b01519091166101008201526000906123809061012081018a600181111561355257fe5b815260200189600181111561356357fe5b815260200188600181111561357457fe5b815260a08d0151600160a060020a0316602082015260400187600181111561359857fe5b8152602081018790526040810186905260c08d0151600160a060020a031660608201526080810185905260a0018c600760209081029190910151600160a060020a031682526080808e01519183019190915260a0808e0151604084015260c08e0151606084015260e08e0151918301919091526101008d015191015261381c565b61271081565b6000805433600160a060020a03908116610100909204161461364057600080fd5b5060005b8151811015611cf75761366d828281518110151561365e57fe5b906020019060200201516130c3565b600101613644565b60066020526000908152604090205460ff1681565b60005433600160a060020a0390811661010090920416146136aa57600080fd5b600160a060020a03811615156136bf57600080fd5b60008054604051600160a060020a038085169361010090930416917f8be0079c531659141344cd1fd0a4f28419497f9722a3daafe3b4186f6b6457e091a360008054600160a060020a039092166101000274ffffffffffffffffffffffffffffffffffffffff0019909216919091179055565b6000806000613763846101400151856101600151866102600151876102800151886102a00151896102c001516146e8565b9150613791856101400151866101600151876102600151886102800151896102a001518a6102c001516146e8565b9050818110156137a057600080fd5b610100840151600160a060020a031615156137bb5780612e26565b509392505050565b6137cd828261395c565b1515611cf757600080fd5b6000808251111561381557815180602001830160208401855b6001838310141561380c5781518152602091820191016137f1565b50505092909201915b5090919050565b600061382782613b79565b604080517f19457468657265756d205369676e6564204d6573736167653a0a3332000000008152601c8101929092525190819003603c0190209050919050565b6000613872836148d3565b15156138805750600061222b565b60008481526005602052604090205460ff161561389f5750600061222b565b60008481526006602052604090205460ff16156138be5750600161222b565b602080840151835184830151604080870151815160008082528188018085528c905260ff909516818401526060810193909352608083015251600160a060020a039093169360019360a0808401949293601f19830193908390039091019190865af1158015613931573d6000803e3d6000fd5b50505060206040510351600160a060020a031614156139525750600161222b565b5060009392505050565b600160a060020a03166000908152602091909152604090205460ff1690565b60008260200151600160a060020a031633600160a060020a03161415156139a157600080fd5b6139aa8361381c565b60008181526006602052604090205490915060ff16156139c957600080fd5b6000818152600660205260409020805460ff191660011790556139ed8184846149ee565b505050565b600080600084518651141515613a0757600080fd5b8351865114613a1557600080fd5b8551602090049250602080840292508390830414613a2f57fe5b5060005b82811015613a5f5760010160208102848101518682015191880180519282169119909216179052613a33565b6000831115613a8f5782905080600101602002808501518187015181168289015182191617828901525050613b71565b50805b8551811015613b71578481815181101515613aa957fe5b90602001015160f860020a900460f860020a028482815181101515613aca57fe5b90602001015160f860020a900460f860020a02168682815181101515613aec57fe5b90602001015160f860020a900460f860020a028583815181101515613b0d57fe5b90602001015160f860020a900460f860020a0260ff60f860020a021816178682815181101515613b3957fe5b9060200101907effffffffffffffffffffffffffffffffffffffffffffffffffffffffffffff1916908160001a905350600101613a92565b505050505050565b60008060606000613b8985614d59565b9250826040519080825280601f01601f191660200182016040528015613bb9578160200160208202803883390190505b509150602082019050613bd0818660000151614486565b9050613be0818660200151614486565b9050613bf0818660400151614486565b9050613c00818660600151614486565b9050613c10818660800151614d79565b9050613c20818660a00151614d79565b9050613c30818660c00151614d79565b9050613c40818660e00151614d79565b9050613c5181866101000151614486565b9050613c6d818661012001516001811115613c6857fe5b614d81565b9050613c84818661014001516001811115613c6857fe5b9050613c9b818661016001516001811115613c6857fe5b9050613cac81866101800151614486565b9050613cc381866101a001516001811115613c6857fe5b9050613cd481866101c001516137d8565b9050613ce581866101e001516137d8565b9050613cf681866102000151614486565b9050613d07818661022001516137d8565b9050613d1881866102400151614486565b9050613d2981866102600151614d79565b9050613d3a81866102800151614d79565b9050613d4b81866102a00151614d79565b9050613d5c81866102c00151614d79565b9050613d6d81866102e00151614d79565b50506020012092915050565b613de3826001836040518082805190602001908083835b60208310613daf5780518252601f199092019160209182019101613d90565b51815160209384036101000a6000190180199092169116179052920194855250604051938490030190922092915050614d8e565b7fd211483f91fc6eff862467f8de606587a30c8fc9981056f051b897a418df803a82826040518083600160a060020a0316600160a060020a0316815260200180602001828103825283818151815260200191508051906020019080838360005b83811015613e5b578181015183820152602001613e43565b50505050905090810190601f168015613e885780820380516001836020036101000a031916815260200191505b50935050505060405180910390a15050565b6000805481908190819081908190819060ff1615613eb757600080fd5b6000805460ff1916600117905560208c0151600160a060020a0390811633919091161415613ef857613ee88c6148d3565b1515613ef357600080fd5b613f05565b613f028c8c614db0565b96505b33600160a060020a03168a60200151600160a060020a03161415613f3c57613f2c8a6148d3565b1515613f3757600080fd5b613f49565b613f468a8a614db0565b95505b613f538c8b6144a6565b1515613f5e57600080fd5b6101808a0151803b9550935060008511613f7757600080fd5b60008c6101e00151511115613fa057613fa08c6101c001518b6101c001518e6101e001516139f2565b60008a6101e00151511115613fc957613fc98a6101c001518d6101c001518c6101e001516139f2565b613fdd8c6101c001518b6101c00151614684565b1515613fe857600080fd5b6003546020808c0151604080517fc4552791000000000000000000000000000000000000000000000000000000008152600160a060020a0392831660048201529051919093169263c45527919260248083019391928290030181600087803b15801561405357600080fd5b505af1158015614067573d6000803e3d6000fd5b505050506040513d602081101561407d57600080fd5b50519250600160a060020a038316151561409657600080fd5b600360009054906101000a9004600160a060020a0316600160a060020a03166397204d8e6040518163ffffffff1660e060020a028152600401602060405180830381600087803b1580156140e957600080fd5b505af11580156140fd573d6000803e3d6000fd5b505050506040513d602081101561411357600080fd5b5051604080517f5c60da1b0000000000000000000000000000000000000000000000000000000081529051600160a060020a0392831692861691635c60da1b9160048083019260209291908290030181600087803b15801561417457600080fd5b505af1158015614188573d6000803e3d6000fd5b505050506040513d602081101561419e57600080fd5b5051600160a060020a0316146141b357600080fd5b8291508b60200151600160a060020a031633600160a060020a03161415156141ef576000878152600560205260409020805460ff191660011790555b8960200151600160a060020a031633600160a060020a0316141515614228576000868152600560205260409020805460ff191660011790555b6142328c8b614dd4565b905081600160a060020a0316631b0f7ba98b61018001518c6101a001518d6101c001516040518463ffffffff1660e060020a0281526004018084600160a060020a0316600160a060020a0316815260200183600181111561428f57fe5b60ff16815260200180602001828103825283818151815260200191508051906020019080838360005b838110156142d05781810151838201526020016142b8565b50505050905090810190601f1680156142fd5780820380516001836020036101000a031916815260200191505b50945050505050602060405180830381600087803b15801561431e57600080fd5b505af1158015614332573d6000803e3d6000fd5b505050506040513d602081101561434857600080fd5b5051151561435557600080fd5b6102008c0151600160a060020a03161561438e576143838c61020001518b6101c001518e6102200151611d0a565b151561438e57600080fd5b6102008a0151600160a060020a0316156143c7576143bc8a61020001518b6101c001518c6102200151611d0a565b15156143c757600080fd5b6101008a01518890600160a060020a031615156143e8578a602001516143ee565b8c602001515b6101008c0151600160a060020a0391821691161515614411578d60200151614417565b8b602001515b6060808e0151604080518d8152602081018d9052600160a060020a0392831681830152928301879052519216917fdb77b519bead271b959f1e56721e822436efe1d7341c6a32ce4a5e3948c49def9181900360800190a450506000805460ff1916905550505050505050505050565b600160a060020a03166c0100000000000000000000000002815260140190565b60008083610140015160018111156144ba57fe5b1480156144d75750600182610140015160018111156144d557fe5b145b8015614502575081610120015160018111156144ef57fe5b836101200151600181111561450057fe5b145b80156145295750816102400151600160a060020a0316836102400151600160a060020a0316145b801561456357506040820151600160a060020a0316158061456357508260200151600160a060020a03168260400151600160a060020a0316145b801561459d57506040830151600160a060020a0316158061459d57508160200151600160a060020a03168360400151600160a060020a0316145b80156145fc5750610100820151600160a060020a03161580156145cd5750610100830151600160a060020a031615155b806145fc5750610100820151600160a060020a0316158015906145fc5750610100830151600160a060020a0316155b80156146235750816101800151600160a060020a0316836101800151600160a060020a0316145b801561464e5750816101a00151600181111561463b57fe5b836101a00151600181111561464c57fe5b145b80156146695750614669836102a00151846102c001516153da565b801561205c575061205c826102a00151836102c001516153da565b8151815160009160019181148083146146a057600092506146de565b600160208701838101602088015b6002848385100114156146d95780518351146146cd5760009650600093505b602092830192016146ae565b505050505b5090949350505050565b600080808760018111156146f857fe5b141561470657859150614770565b600187600181111561471457fe5b14156147705761473f6147308661472b42886153f6565b615408565b61473a85876153f6565b615431565b9050600188600181111561474f57fe5b14156147665761475f86826153f6565b9150614770565b61475f8682615446565b509695505050505050565b60006147878383614db0565b90508260200151600160a060020a031633600160a060020a03161415156147ad57600080fd5b600081815260056020526040808220805460ff191660011790555182917f5152abf959f6564662358c2e52b702259b78bac5ee7842a0f01937e670efcc7d91a2505050565b61485c826001836040518082805190602001908083835b602083106148285780518252601f199092019160209182019101614809565b51815160209384036101000a6000190180199092169116179052920194855250604051938490030190922092915050615453565b7fbfec83d64eaa953f2708271a023ab9ee82057f8f3578d548c1a4ba0b5b70048982826040518083600160a060020a0316600160a060020a03168152602001806020018281038252838181518152602001915080519060200190808383600083811015613e5b578181015183820152602001613e43565b600030600160a060020a03168260000151600160a060020a03161415156148fc57506000613369565b6060820151600160a060020a03161580159061493257508160200151600160a060020a03168260600151600160a060020a031614155b801561494857506149468260200151613337565b155b1561495557506000613369565b614969826101600151836102c00151615478565b151561497757506000613369565b6001826101200151600181111561498a57fe5b1480156149ab57506007548260c0015110806149ab57506008548260e00151105b156149b857506000613369565b506001919050565b6000613366826101400151836101600151846102600151856102800151866102a00151876102c001516146e8565b816101000151600160a060020a03168260200151600160a060020a031684600019167fef8d1dda8668b1fc00006f34d1d9ca05f7e3e39bb4ec3a457371726a6856299285600001518660400151876060015188608001518960a001518a60c001518b60e001518c61012001518d61014001518e61016001518f6101800151604051808c600160a060020a0316600160a060020a031681526020018b600160a060020a0316600160a060020a031681526020018a600160a060020a0316600160a060020a03168152602001898152602001888152602001878152602001868152602001856001811115614adc57fe5b60ff168152602001846001811115614af057fe5b60ff168152602001836001811115614b0457fe5b60ff168152600160a060020a039092166020830152506040805191829003019a5098505050505050505050a482600019167fe55393c778364e440d958b39ac1debd99dcfae3775a8a04d1e79124adf6a2d08836101a00151846101c00151856101e001518661020001518761022001518861024001518961026001518a61028001518b6102a001518c6102c001518d6102e001518d604051808d6001811115614ba957fe5b60ff16815260200180602001806020018c600160a060020a0316600160a060020a03168152602001806020018b600160a060020a0316600160a060020a031681526020018a81526020018981526020018881526020018781526020018681526020018515151515815260200184810384528f818151815260200191508051906020019080838360005b83811015614c4a578181015183820152602001614c32565b50505050905090810190601f168015614c775780820380516001836020036101000a031916815260200191505b5084810383528e818151815260200191508051906020019080838360005b83811015614cad578181015183820152602001614c95565b50505050905090810190601f168015614cda5780820380516001836020036101000a031916815260200191505b5084810382528c5181528c516020918201918e019080838360005b83811015614d0d578181015183820152602001614cf5565b50505050905090810190601f168015614d3a5780820380516001836020036101000a031916815260200191505b509f5050505050505050505050505050505060405180910390a2505050565b610220810151516101e0820151516101c08301515101016101c401919050565b815260200190565b6000818353505060010190565b600160a060020a0316600090815260209190915260409020805460ff19169055565b600080614dbc8461381c565b9050614dc9818585613867565b151561222b57600080fd5b6000806000806000806000806000806000600160a060020a03168b6102400151600160a060020a0316141515614e0f573415614e0f57600080fd5b614e198c8c613732565b9850600089118015614e3857506102408b0151600160a060020a031615155b15614e5657614e568b61024001518d602001518d602001518c615497565b6101008b0151899850889750600160a060020a0316156151795760a0808d0151908c01511115614e8557600080fd5b60018b61012001516001811115614e9857fe5b14156151445760e0808d0151908c01511115614eb357600080fd5b60008b608001511115614f5957614ed9614ed18c608001518b615408565b612710615431565b6102408c0151909650600160a060020a03161515614f3f57614efb88876153f6565b6101008c0151604051919950600160a060020a03169087156108fc029088906000818181858888f19350505050158015614f39573d6000803e3d6000fd5b50614f59565b614f598b61024001518c602001518d610100015189615497565b60008b60a001511115614ff757614f77614ed18c60a001518b615408565b6102408c0151909550600160a060020a03161515614fdd57614f998786615446565b6101008c0151604051919850600160a060020a03169086156108fc029087906000818181858888f19350505050158015614fd7573d6000803e3d6000fd5b50614ff7565b614ff78b61024001518d602001518d610100015188615497565b60008b60c00151111561509b57615015614ed18c60c001518b615408565b6102408c0151909450600160a060020a031615156150785761503788856153f6565b600954604051919950600160a060020a03169085156108fc029086906000818181858888f19350505050158015615072573d6000803e3d6000fd5b5061509b565b6102408b015160208c015160095461509b929190600160a060020a031687615497565b60008b60e00151111561513f576150b9614ed18c60e001518b615408565b6102408c0151909350600160a060020a0316151561511c576150db8784615446565b600954604051919850600160a060020a03169084156108fc029085906000818181858888f19350505050158015615116573d6000803e3d6000fd5b5061513f565b6102408b015160208d015160095461513f929190600160a060020a031686615497565b615174565b61515c8b602001518c61010001518d60800151615560565b6151748c602001518c61010001518d60a00151615560565b6152fe565b60a0808c0151908d0151111561518e57600080fd5b60018b610120015160018111156151a157fe5b14156152ce576102408b0151600160a060020a031615156151c157600080fd5b60e0808c0151908d015111156151d657600080fd5b60008c608001511115615210576151f4614ed18d608001518b615408565b95506152108b61024001518d602001518e610100015189615497565b60008c60a00151111561524a5761522e614ed18d60a001518b615408565b945061524a8b61024001518c602001518e610100015188615497565b60008c60c00151111561528c57615268614ed18d60c001518b615408565b6102408c015160208e015160095492965061528c92600160a060020a031687615497565b60008c60e001511115615174576152aa614ed18d60e001518b615408565b6102408c015160208d015160095492955061517492600160a060020a031686615497565b6152e68c602001518d61010001518e60800151615560565b6152fe8b602001518d61010001518e60a00151615560565b6102408b0151600160a060020a031615156153ca573487111561532057600080fd5b60608b01519150600160a060020a038216151561533f578a6020015191505b604051600160a060020a0383169089156108fc02908a906000818181858888f19350505050158015615375573d6000803e3d6000fd5b5061538034886153f6565b905060008111156153ca578b60200151600160a060020a03166108fc829081150290604051600060405180830381858888f193505050501580156153c8573d6000803e3d6000fd5b505b50969a9950505050505050505050565b6000428310801561205c575081158061205c5750504210919050565b60008282111561540257fe5b50900390565b60008215156154195750600061205f565b5081810281838281151561542957fe5b041461205f57fe5b6000818381151561543e57fe5b049392505050565b8181018281101561205f57fe5b600160a060020a0316600090815260209190915260409020805460ff19166001179055565b60008083600181111561548757fe5b148061205c575050600010919050565b600081111561555a5760048054604080517f15dacbea000000000000000000000000000000000000000000000000000000008152600160a060020a03888116948201949094528684166024820152858416604482015260648101859052905192909116916315dacbea916084808201926020929091908290030181600087803b15801561552357600080fd5b505af1158015615537573d6000803e3d6000fd5b505050506040513d602081101561554d57600080fd5b5051151561555a57600080fd5b50505050565b6002546139ed90600160a060020a0316848484615497565b6040805161030081018252600080825260208201819052918101829052606081018290526080810182905260a0810182905260c0810182905260e0810182905261010081018290529061012082019081526020016000815260200160008152600060208201819052604090910190815260200160608152602001606081526020016000600160a060020a03168152602001606081526020016000600160a060020a0316815260200160008152602001600081526020016000815260200160008152602001600081525090560077686974656c6973740000000000000000000000000000000000000000000000a165627a7a72305820965b3e74593efa191e1e37c2f5d758c650fea461a2e8d62439870e11e19f7d1d0029",
  "source": "/*\n  \n  Exchange contract. This is an outer contract with public or convenience functions and includes no state-modifying functions.\n \n*/\n\npragma solidity 0.4.23;\n\nimport \"./ExchangeCore.sol\";\n\n/**\n * @title Exchange\n * @author Project Wyvern Developers\n */\ncontract Exchange is ExchangeCore {\n\n    /**\n     * @dev Call guardedArrayReplace - library function exposed for testing.\n     */\n    function guardedArrayReplace(bytes array, bytes desired, bytes mask)\n        public\n        pure\n        returns (bytes)\n    {\n        ArrayUtils.guardedArrayReplace(array, desired, mask);\n        return array;\n    }\n\n    /**\n     * Test copy byte array\n     *\n     * @param arrToCopy Array to copy\n     * @return byte array\n     */\n    function testCopy(bytes arrToCopy)\n        public\n        pure\n        returns (bytes)\n    {\n        bytes memory arr = new bytes(arrToCopy.length);\n        uint index;\n        assembly {\n            index := add(arr, 0x20)\n        }\n        ArrayUtils.unsafeWriteBytes(index, arrToCopy);\n        return arr;\n    }\n\n    /**\n     * Test write address to bytes\n     *\n     * @param addr Address to write\n     * @return byte array\n     */\n    function testCopyAddress(address addr)\n        public\n        pure\n        returns (bytes)\n    {\n        bytes memory arr = new bytes(0x14);\n        uint index;\n        assembly {\n            index := add(arr, 0x20)\n        }\n        ArrayUtils.unsafeWriteAddress(index, addr);\n        return arr;\n    }\n\n    /**\n     * @dev Call calculateFinalPrice - library function exposed for testing.\n     */\n    function calculateFinalPrice(SaleKindInterface.Side side, SaleKindInterface.SaleKind saleKind, uint basePrice, uint extra, uint listingTime, uint expirationTime)\n        public\n        view\n        returns (uint)\n    {\n        return SaleKindInterface.calculateFinalPrice(side, saleKind, basePrice, extra, listingTime, expirationTime);\n    }\n\n    /**\n     * @dev Call hashOrder - Solidity ABI encoding limitation workaround, hopefully temporary.\n     */\n    function hashOrder_(\n        address[8] addrs,\n        uint[9] uints,\n        FeeMethod feeMethod,\n        SaleKindInterface.Side side,\n        SaleKindInterface.SaleKind saleKind,\n        AuthenticatedProxy.HowToCall howToCall,\n        bytes calldata,\n        bytes replacementPattern,\n        bytes staticExtradata)\n        public\n        pure\n        returns (bytes32)\n    {\n        return hashOrder(\n          Order(addrs[0], addrs[1], addrs[2], addrs[3], uints[0], uints[1], uints[2], uints[3], addrs[4], feeMethod, side, saleKind, addrs[5], howToCall, calldata, replacementPattern, addrs[6], staticExtradata, ERC20(addrs[7]), uints[4], uints[5], uints[6], uints[7], uints[8])\n        );\n    }\n\n    /**\n     * @dev Call hashToSign - Solidity ABI encoding limitation workaround, hopefully temporary.\n     */\n    function hashToSign_(\n        address[8] addrs,\n        uint[9] uints,\n        FeeMethod feeMethod,\n        SaleKindInterface.Side side,\n        SaleKindInterface.SaleKind saleKind,\n        AuthenticatedProxy.HowToCall howToCall,\n        bytes calldata,\n        bytes replacementPattern,\n        bytes staticExtradata)\n        public\n        pure\n        returns (bytes32)\n    { \n        return hashToSign(\n          Order(addrs[0], addrs[1], addrs[2], addrs[3], uints[0], uints[1], uints[2], uints[3], addrs[4], feeMethod, side, saleKind, addrs[5], howToCall, calldata, replacementPattern, addrs[6], staticExtradata, ERC20(addrs[7]), uints[4], uints[5], uints[6], uints[7], uints[8])\n        );\n    }\n\n    /**\n     * @dev Call validateOrderParameters - Solidity ABI encoding limitation workaround, hopefully temporary.\n     */\n    function validateOrderParameters_ (\n        address[8] addrs,\n        uint[9] uints,\n        FeeMethod feeMethod,\n        SaleKindInterface.Side side,\n        SaleKindInterface.SaleKind saleKind,\n        AuthenticatedProxy.HowToCall howToCall,\n        bytes calldata,\n        bytes replacementPattern,\n        bytes staticExtradata)\n        view\n        public\n        returns (bool)\n    {\n        Order memory order = Order(addrs[0], addrs[1], addrs[2], addrs[3], uints[0], uints[1], uints[2], uints[3], addrs[4], feeMethod, side, saleKind, addrs[5], howToCall, calldata, replacementPattern, addrs[6], staticExtradata, ERC20(addrs[7]), uints[4], uints[5], uints[6], uints[7], uints[8]);\n        return validateOrderParameters(\n          order\n        );\n    }\n\n    /**\n     * @dev Call validateOrder - Solidity ABI encoding limitation workaround, hopefully temporary.\n     */\n    function validateOrder_ (\n        address[8] addrs,\n        uint[9] uints,\n        FeeMethod feeMethod,\n        SaleKindInterface.Side side,\n        SaleKindInterface.SaleKind saleKind,\n        AuthenticatedProxy.HowToCall howToCall,\n        bytes calldata,\n        bytes replacementPattern,\n        bytes staticExtradata,\n        uint8 v,\n        bytes32 r,\n        bytes32 s)\n        view\n        public\n        returns (bool)\n    {\n        Order memory order = Order(addrs[0], addrs[1], addrs[2], addrs[3], uints[0], uints[1], uints[2], uints[3], addrs[4], feeMethod, side, saleKind, addrs[5], howToCall, calldata, replacementPattern, addrs[6], staticExtradata, ERC20(addrs[7]), uints[4], uints[5], uints[6], uints[7], uints[8]);\n        return validateOrder(\n          hashToSign(order),\n          order,\n          Sig(v, r, s)\n        );\n    }\n\n    /**\n     * @dev Call approveOrder - Solidity ABI encoding limitation workaround, hopefully temporary.\n     */\n    function approveOrder_ (\n        address[8] addrs,\n        uint[9] uints,\n        FeeMethod feeMethod,\n        SaleKindInterface.Side side,\n        SaleKindInterface.SaleKind saleKind,\n        AuthenticatedProxy.HowToCall howToCall,\n        bytes calldata,\n        bytes replacementPattern,\n        bytes staticExtradata,\n        bool orderbookInclusionDesired) \n        public\n    {\n        Order memory order = Order(addrs[0], addrs[1], addrs[2], addrs[3], uints[0], uints[1], uints[2], uints[3], addrs[4], feeMethod, side, saleKind, addrs[5], howToCall, calldata, replacementPattern, addrs[6], staticExtradata, ERC20(addrs[7]), uints[4], uints[5], uints[6], uints[7], uints[8]);\n        return approveOrder(order, orderbookInclusionDesired);\n    }\n\n    /**\n     * @dev Call cancelOrder - Solidity ABI encoding limitation workaround, hopefully temporary.\n     */\n    function cancelOrder_(\n        address[8] addrs,\n        uint[9] uints,\n        FeeMethod feeMethod,\n        SaleKindInterface.Side side,\n        SaleKindInterface.SaleKind saleKind,\n        AuthenticatedProxy.HowToCall howToCall,\n        bytes calldata,\n        bytes replacementPattern,\n        bytes staticExtradata,\n        uint8 v,\n        bytes32 r,\n        bytes32 s)\n        public\n    {\n\n        return cancelOrder(\n          Order(addrs[0], addrs[1], addrs[2], addrs[3], uints[0], uints[1], uints[2], uints[3], addrs[4], feeMethod, side, saleKind, addrs[5], howToCall, calldata, replacementPattern, addrs[6], staticExtradata, ERC20(addrs[7]), uints[4], uints[5], uints[6], uints[7], uints[8]),\n          Sig(v, r, s)\n        );\n    }\n\n    /**\n     * @dev Call calculateCurrentPrice - Solidity ABI encoding limitation workaround, hopefully temporary.\n     */\n    function calculateCurrentPrice_(\n        address[8] addrs,\n        uint[9] uints,\n        FeeMethod feeMethod,\n        SaleKindInterface.Side side,\n        SaleKindInterface.SaleKind saleKind,\n        AuthenticatedProxy.HowToCall howToCall,\n        bytes calldata,\n        bytes replacementPattern,\n        bytes staticExtradata)\n        public\n        view\n        returns (uint)\n    {\n        return calculateCurrentPrice(\n          Order(addrs[0], addrs[1], addrs[2], addrs[3], uints[0], uints[1], uints[2], uints[3], addrs[4], feeMethod, side, saleKind, addrs[5], howToCall, calldata, replacementPattern, addrs[6], staticExtradata, ERC20(addrs[7]), uints[4], uints[5], uints[6], uints[7], uints[8])\n        );\n    }\n\n    /**\n     * @dev Call ordersCanMatch - Solidity ABI encoding limitation workaround, hopefully temporary.\n     */\n    function ordersCanMatch_(\n        address[16] addrs,\n        uint[18] uints,\n        uint8[8] feeMethodsSidesKindsHowToCalls,\n        bytes calldataBuy,\n        bytes calldataSell,\n        bytes replacementPatternBuy,\n        bytes replacementPatternSell,\n        bytes staticExtradataBuy,\n        bytes staticExtradataSell)\n        public\n        view\n        returns (bool)\n    {\n        Order memory buy = Order(addrs[0], addrs[1], addrs[2], addrs[3], uints[0], uints[1], uints[2], uints[3], addrs[4], FeeMethod(feeMethodsSidesKindsHowToCalls[0]), SaleKindInterface.Side(feeMethodsSidesKindsHowToCalls[1]), SaleKindInterface.SaleKind(feeMethodsSidesKindsHowToCalls[2]), addrs[5], AuthenticatedProxy.HowToCall(feeMethodsSidesKindsHowToCalls[3]), calldataBuy, replacementPatternBuy, addrs[6], staticExtradataBuy, ERC20(addrs[7]), uints[4], uints[5], uints[6], uints[7], uints[8]);\n        Order memory sell = Order(addrs[8], addrs[9], addrs[10], addrs[11], uints[9], uints[10], uints[11], uints[12], addrs[12], FeeMethod(feeMethodsSidesKindsHowToCalls[4]), SaleKindInterface.Side(feeMethodsSidesKindsHowToCalls[5]), SaleKindInterface.SaleKind(feeMethodsSidesKindsHowToCalls[6]), addrs[13], AuthenticatedProxy.HowToCall(feeMethodsSidesKindsHowToCalls[7]), calldataSell, replacementPatternSell, addrs[14], staticExtradataSell, ERC20(addrs[15]), uints[13], uints[14], uints[15], uints[16], uints[17]);\n        return ordersCanMatch(\n          buy,\n          sell\n        );\n    }\n\n    /**\n     * @dev Return whether or not two orders' calldata specifications can match\n     * @param buyCalldata Buy-side order calldata\n     * @param buyReplacementPattern Buy-side order calldata replacement mask\n     * @param sellCalldata Sell-side order calldata\n     * @param sellReplacementPattern Sell-side order calldata replacement mask\n     * @return Whether the orders' calldata can be matched\n     */\n    function orderCalldataCanMatch(bytes buyCalldata, bytes buyReplacementPattern, bytes sellCalldata, bytes sellReplacementPattern)\n        public\n        pure\n        returns (bool)\n    {\n        if (buyReplacementPattern.length > 0) {\n          ArrayUtils.guardedArrayReplace(buyCalldata, sellCalldata, buyReplacementPattern);\n        }\n        if (sellReplacementPattern.length > 0) {\n          ArrayUtils.guardedArrayReplace(sellCalldata, buyCalldata, sellReplacementPattern);\n        }\n        return ArrayUtils.arrayEq(buyCalldata, sellCalldata);\n    }\n\n    /**\n     * @dev Call calculateMatchPrice - Solidity ABI encoding limitation workaround, hopefully temporary.\n     */\n    function calculateMatchPrice_(\n        address[16] addrs,\n        uint[18] uints,\n        uint8[8] feeMethodsSidesKindsHowToCalls,\n        bytes calldataBuy,\n        bytes calldataSell,\n        bytes replacementPatternBuy,\n        bytes replacementPatternSell,\n        bytes staticExtradataBuy,\n        bytes staticExtradataSell)\n        public\n        view\n        returns (uint)\n    {\n        Order memory buy = Order(addrs[0], addrs[1], addrs[2], addrs[3], uints[0], uints[1], uints[2], uints[3], addrs[4], FeeMethod(feeMethodsSidesKindsHowToCalls[0]), SaleKindInterface.Side(feeMethodsSidesKindsHowToCalls[1]), SaleKindInterface.SaleKind(feeMethodsSidesKindsHowToCalls[2]), addrs[5], AuthenticatedProxy.HowToCall(feeMethodsSidesKindsHowToCalls[3]), calldataBuy, replacementPatternBuy, addrs[6], staticExtradataBuy, ERC20(addrs[7]), uints[4], uints[5], uints[6], uints[7], uints[8]);\n        Order memory sell = Order(addrs[8], addrs[9], addrs[10], addrs[11], uints[9], uints[10], uints[11], uints[12], addrs[12], FeeMethod(feeMethodsSidesKindsHowToCalls[4]), SaleKindInterface.Side(feeMethodsSidesKindsHowToCalls[5]), SaleKindInterface.SaleKind(feeMethodsSidesKindsHowToCalls[6]), addrs[13], AuthenticatedProxy.HowToCall(feeMethodsSidesKindsHowToCalls[7]), calldataSell, replacementPatternSell, addrs[14], staticExtradataSell, ERC20(addrs[15]), uints[13], uints[14], uints[15], uints[16], uints[17]);\n        return calculateMatchPrice(\n          buy,\n          sell\n        );\n    }\n\n    /**\n     * @dev Call atomicMatch - Solidity ABI encoding limitation workaround, hopefully temporary.\n     */\n    function atomicMatch_(\n        address[16] addrs,\n        uint[18] uints,\n        uint8[8] feeMethodsSidesKindsHowToCalls,\n        bytes calldataBuy,\n        bytes calldataSell,\n        bytes replacementPatternBuy,\n        bytes replacementPatternSell,\n        bytes staticExtradataBuy,\n        bytes staticExtradataSell,\n        uint8[2] vs,\n        bytes32[5] rssMetadata)\n        public\n        payable\n    {\n\n        return atomicMatch(\n          Order(addrs[0], addrs[1], addrs[2], addrs[3], uints[0], uints[1], uints[2], uints[3], addrs[4], FeeMethod(feeMethodsSidesKindsHowToCalls[0]), SaleKindInterface.Side(feeMethodsSidesKindsHowToCalls[1]), SaleKindInterface.SaleKind(feeMethodsSidesKindsHowToCalls[2]), addrs[5], AuthenticatedProxy.HowToCall(feeMethodsSidesKindsHowToCalls[3]), calldataBuy, replacementPatternBuy, addrs[6], staticExtradataBuy, ERC20(addrs[7]), uints[4], uints[5], uints[6], uints[7], uints[8]),\n          Sig(vs[0], rssMetadata[0], rssMetadata[1]),\n          Order(addrs[8], addrs[9], addrs[10], addrs[11], uints[9], uints[10], uints[11], uints[12], addrs[12], FeeMethod(feeMethodsSidesKindsHowToCalls[4]), SaleKindInterface.Side(feeMethodsSidesKindsHowToCalls[5]), SaleKindInterface.SaleKind(feeMethodsSidesKindsHowToCalls[6]), addrs[13], AuthenticatedProxy.HowToCall(feeMethodsSidesKindsHowToCalls[7]), calldataSell, replacementPatternSell, addrs[14], staticExtradataSell, ERC20(addrs[15]), uints[13], uints[14], uints[15], uints[16], uints[17]),\n          Sig(vs[1], rssMetadata[2], rssMetadata[3]),\n          rssMetadata[4]\n        );\n    }\n\n}\n",
  "sourcePath": "/workspace/contracts/exchange/Exchange.sol",
  "compiler": {
    "name": "solc",
    "version": "0.4.23+commit.124ca40d.Emscripten.clang"
  },
  "schemaVersion": "2.0.0",
  "updatedAt": "2023-04-27T06:47:32.385Z"
}