{
  "contractName": "RBAC",
  "abi": [
    {
      "anonymous": false,
      "inputs": [
        {
          "indexed": false,
          "name": "addr",
          "type": "address"
        },
        {
          "indexed": false,
          "name": "roleName",
          "type": "string"
        }
      ],
      "name": "RoleAdded",
      "type": "event"
    },
    {
      "anonymous": false,
      "inputs": [
        {
          "indexed": false,
          "name": "addr",
          "type": "address"
        },
        {
          "indexed": false,
          "name": "roleName",
          "type": "string"
        }
      ],
      "name": "RoleRemoved",
      "type": "event"
    },
    {
      "constant": true,
      "inputs": [
        {
          "name": "addr",
          "type": "address"
        },
        {
          "name": "roleName",
          "type": "string"
        }
      ],
      "name": "checkRole",
      "outputs": [],
      "payable": false,
      "stateMutability": "view",
      "type": "function"
    },
    {
      "constant": true,
      "inputs": [
        {
          "name": "addr",
          "type": "address"
        },
        {
          "name": "roleName",
          "type": "string"
        }
      ],
      "name": "hasRole",
      "outputs": [
        {
          "name": "",
          "type": "bool"
        }
      ],
      "payable": false,
      "stateMutability": "view",
      "type": "function"
    }
  ],
  "bytecode": "0x608060405234801561001057600080fd5b5061029c806100206000396000f30060806040526004361061004b5763ffffffff7c01000000000000000000000000000000000000000000000000000000006000350416630988ca8c8114610050578063217fe6c6146100c6575b600080fd5b34801561005c57600080fd5b5060408051602060046024803582810135601f81018590048502860185019096528585526100c495833573ffffffffffffffffffffffffffffffffffffffff1695369560449491939091019190819084018382808284375094975061014e9650505050505050565b005b3480156100d257600080fd5b5060408051602060046024803582810135601f810185900485028601850190965285855261013a95833573ffffffffffffffffffffffffffffffffffffffff169536956044949193909101919081908401838280828437509497506101bc9650505050505050565b604080519115158252519081900360200190f35b6101b8826000836040518082805190602001908083835b602083106101845780518252601f199092019160209182019101610165565b51815160209384036101000a600019018019909216911617905292019485525060405193849003019092209291505061022f565b5050565b6000610228836000846040518082805190602001908083835b602083106101f45780518252601f1990920191602091820191016101d5565b51815160209384036101000a6000190180199092169116179052920194855250604051938490030190922092915050610244565b9392505050565b6102398282610244565b15156101b857600080fd5b73ffffffffffffffffffffffffffffffffffffffff166000908152602091909152604090205460ff16905600a165627a7a723058203ea6bf66bbd6cfafc7402cab6dd83d3b0aeaf66e16a6b9fe5a848dd950362d3a0029",
  "source": "pragma solidity ^0.4.23;\n\nimport \"./Roles.sol\";\n\n\n/**\n * @title RBAC (Role-Based Access Control)\n * @author Matt Condon (@Shrugs)\n * @dev Stores and provides setters and getters for roles and addresses.\n * @dev Supports unlimited numbers of roles and addresses.\n * @dev See //contracts/mocks/RBACMock.sol for an example of usage.\n * This RBAC method uses strings to key roles. It may be beneficial\n *  for you to write your own implementation of this interface using Enums or similar.\n * It's also recommended that you define constants in the contract, like ROLE_ADMIN below,\n *  to avoid typos.\n */\ncontract RBAC {\n  using Roles for Roles.Role;\n\n  mapping (string => Roles.Role) private roles;\n\n  event RoleAdded(address addr, string roleName);\n  event RoleRemoved(address addr, string roleName);\n\n  /**\n   * @dev reverts if addr does not have role\n   * @param addr address\n   * @param roleName the name of the role\n   * // reverts\n   */\n  function checkRole(address addr, string roleName)\n    view\n    public\n  {\n    roles[roleName].check(addr);\n  }\n\n  /**\n   * @dev determine if addr has role\n   * @param addr address\n   * @param roleName the name of the role\n   * @return bool\n   */\n  function hasRole(address addr, string roleName)\n    view\n    public\n    returns (bool)\n  {\n    return roles[roleName].has(addr);\n  }\n\n  /**\n   * @dev add a role to an address\n   * @param addr address\n   * @param roleName the name of the role\n   */\n  function addRole(address addr, string roleName)\n    internal\n  {\n    roles[roleName].add(addr);\n    emit RoleAdded(addr, roleName);\n  }\n\n  /**\n   * @dev remove a role from an address\n   * @param addr address\n   * @param roleName the name of the role\n   */\n  function removeRole(address addr, string roleName)\n    internal\n  {\n    roles[roleName].remove(addr);\n    emit RoleRemoved(addr, roleName);\n  }\n\n  /**\n   * @dev modifier to scope access to a single role (uses msg.sender as addr)\n   * @param roleName the name of the role\n   * // reverts\n   */\n  modifier onlyRole(string roleName)\n  {\n    checkRole(msg.sender, roleName);\n    _;\n  }\n\n  /**\n   * @dev modifier to scope access to a set of roles (uses msg.sender as addr)\n   * @param roleNames the names of the roles to scope access to\n   * // reverts\n   *\n   * @TODO - when solidity supports dynamic arrays as arguments to modifiers, provide this\n   *  see: https://github.com/ethereum/solidity/issues/2467\n   */\n  // modifier onlyRoles(string[] roleNames) {\n  //     bool hasAnyRole = false;\n  //     for (uint8 i = 0; i < roleNames.length; i++) {\n  //         if (hasRole(msg.sender, roleNames[i])) {\n  //             hasAnyRole = true;\n  //             break;\n  //         }\n  //     }\n\n  //     require(hasAnyRole);\n\n  //     _;\n  // }\n}\n",
  "sourcePath": "openzeppelin-solidity/contracts/ownership/rbac/RBAC.sol",
  "compiler": {
    "name": "solc",
    "version": "0.4.23+commit.124ca40d.Emscripten.clang"
  },
  "schemaVersion": "2.0.0",
  "updatedAt": "2023-04-27T06:47:32.259Z"
}