{
  "contractName": "TokenTransferProxy",
  "abi": [
    {
      "constant": true,
      "inputs": [],
      "name": "registry",
      "outputs": [
        {
          "name": "",
          "type": "address"
        }
      ],
      "payable": false,
      "stateMutability": "view",
      "type": "function"
    },
    {
      "constant": false,
      "inputs": [
        {
          "name": "token",
          "type": "address"
        },
        {
          "name": "from",
          "type": "address"
        },
        {
          "name": "to",
          "type": "address"
        },
        {
          "name": "amount",
          "type": "uint256"
        }
      ],
      "name": "transferFrom",
      "outputs": [
        {
          "name": "",
          "type": "bool"
        }
      ],
      "payable": false,
      "stateMutability": "nonpayable",
      "type": "function"
    }
  ],
  "bytecode": "0x608060405234801561001057600080fd5b50610289806100206000396000f30060806040526004361061004b5763ffffffff7c010000000000000000000000000000000000000000000000000000000060003504166315dacbea81146100505780637b103999146100a1575b600080fd5b34801561005c57600080fd5b5061008d73ffffffffffffffffffffffffffffffffffffffff600435811690602435811690604435166064356100df565b604080519115158252519081900360200190f35b3480156100ad57600080fd5b506100b6610241565b6040805173ffffffffffffffffffffffffffffffffffffffff9092168252519081900360200190f35b60008054604080517f69dc9ff300000000000000000000000000000000000000000000000000000000815273ffffffffffffffffffffffffffffffffffffffff3381166004830152915191909216916369dc9ff391602480830192602092919082900301818787803b15801561015457600080fd5b505af1158015610168573d6000803e3d6000fd5b505050506040513d602081101561017e57600080fd5b5051151561018b57600080fd5b604080517f23b872dd00000000000000000000000000000000000000000000000000000000815273ffffffffffffffffffffffffffffffffffffffff86811660048301528581166024830152604482018590529151918716916323b872dd916064808201926020929091908290030181600087803b15801561020c57600080fd5b505af1158015610220573d6000803e3d6000fd5b505050506040513d602081101561023657600080fd5b505195945050505050565b60005473ffffffffffffffffffffffffffffffffffffffff16815600a165627a7a723058202cadcf9c9a7a40f98890bf8f75f843c281660f92aed76385d439a3140bab3f050029",
  "source": "/*\n\n  Token transfer proxy. Uses the authentication table of a ProxyRegistry contract to grant ERC20 `transferFrom` access.\n  This means that users only need to authorize the proxy contract once for all future protocol versions.\n\n*/\n\npragma solidity 0.4.23;\n\nimport \"openzeppelin-solidity/contracts/token/ERC20/ERC20.sol\";\n\nimport \"./ProxyRegistry.sol\";\n\ncontract TokenTransferProxy {\n\n    /* Authentication registry. */\n    ProxyRegistry public registry;\n\n    /**\n     * Call ERC20 `transferFrom`\n     *\n     * @dev Authenticated contract only\n     * @param token ERC20 token address\n     * @param from From address\n     * @param to To address\n     * @param amount Transfer amount\n     */\n    function transferFrom(address token, address from, address to, uint amount)\n        public\n        returns (bool)\n    {\n        require(registry.contracts(msg.sender));\n        return ERC20(token).transferFrom(from, to, amount);\n    }\n\n}\n",
  "sourcePath": "/workspace/contracts/registry/TokenTransferProxy.sol",
  "compiler": {
    "name": "solc",
    "version": "0.4.23+commit.124ca40d.Emscripten.clang"
  },
  "schemaVersion": "2.0.0",
  "updatedAt": "2023-04-27T06:47:32.235Z"
}