{
  "contractName": "Whitelist",
  "abi": [
    {
      "constant": true,
      "inputs": [
        {
          "name": "addr",
          "type": "address"
        },
        {
          "name": "roleName",
          "type": "string"
        }
      ],
      "name": "checkRole",
      "outputs": [],
      "payable": false,
      "stateMutability": "view",
      "type": "function"
    },
    {
      "constant": true,
      "inputs": [],
      "name": "ROLE_WHITELISTED",
      "outputs": [
        {
          "name": "",
          "type": "string"
        }
      ],
      "payable": false,
      "stateMutability": "view",
      "type": "function"
    },
    {
      "constant": true,
      "inputs": [
        {
          "name": "addr",
          "type": "address"
        },
        {
          "name": "roleName",
          "type": "string"
        }
      ],
      "name": "hasRole",
      "outputs": [
        {
          "name": "",
          "type": "bool"
        }
      ],
      "payable": false,
      "stateMutability": "view",
      "type": "function"
    },
    {
      "constant": false,
      "inputs": [],
      "name": "renounceOwnership",
      "outputs": [],
      "payable": false,
      "stateMutability": "nonpayable",
      "type": "function"
    },
    {
      "constant": true,
      "inputs": [],
      "name": "owner",
      "outputs": [
        {
          "name": "",
          "type": "address"
        }
      ],
      "payable": false,
      "stateMutability": "view",
      "type": "function"
    },
    {
      "constant": false,
      "inputs": [
        {
          "name": "newOwner",
          "type": "address"
        }
      ],
      "name": "transferOwnership",
      "outputs": [],
      "payable": false,
      "stateMutability": "nonpayable",
      "type": "function"
    },
    {
      "anonymous": false,
      "inputs": [
        {
          "indexed": false,
          "name": "addr",
          "type": "address"
        }
      ],
      "name": "WhitelistedAddressAdded",
      "type": "event"
    },
    {
      "anonymous": false,
      "inputs": [
        {
          "indexed": false,
          "name": "addr",
          "type": "address"
        }
      ],
      "name": "WhitelistedAddressRemoved",
      "type": "event"
    },
    {
      "anonymous": false,
      "inputs": [
        {
          "indexed": false,
          "name": "addr",
          "type": "address"
        },
        {
          "indexed": false,
          "name": "roleName",
          "type": "string"
        }
      ],
      "name": "RoleAdded",
      "type": "event"
    },
    {
      "anonymous": false,
      "inputs": [
        {
          "indexed": false,
          "name": "addr",
          "type": "address"
        },
        {
          "indexed": false,
          "name": "roleName",
          "type": "string"
        }
      ],
      "name": "RoleRemoved",
      "type": "event"
    },
    {
      "anonymous": false,
      "inputs": [
        {
          "indexed": true,
          "name": "previousOwner",
          "type": "address"
        }
      ],
      "name": "OwnershipRenounced",
      "type": "event"
    },
    {
      "anonymous": false,
      "inputs": [
        {
          "indexed": true,
          "name": "previousOwner",
          "type": "address"
        },
        {
          "indexed": true,
          "name": "newOwner",
          "type": "address"
        }
      ],
      "name": "OwnershipTransferred",
      "type": "event"
    },
    {
      "constant": false,
      "inputs": [
        {
          "name": "addr",
          "type": "address"
        }
      ],
      "name": "addAddressToWhitelist",
      "outputs": [],
      "payable": false,
      "stateMutability": "nonpayable",
      "type": "function"
    },
    {
      "constant": true,
      "inputs": [
        {
          "name": "addr",
          "type": "address"
        }
      ],
      "name": "whitelist",
      "outputs": [
        {
          "name": "",
          "type": "bool"
        }
      ],
      "payable": false,
      "stateMutability": "view",
      "type": "function"
    },
    {
      "constant": false,
      "inputs": [
        {
          "name": "addrs",
          "type": "address[]"
        }
      ],
      "name": "addAddressesToWhitelist",
      "outputs": [],
      "payable": false,
      "stateMutability": "nonpayable",
      "type": "function"
    },
    {
      "constant": false,
      "inputs": [
        {
          "name": "addr",
          "type": "address"
        }
      ],
      "name": "removeAddressFromWhitelist",
      "outputs": [],
      "payable": false,
      "stateMutability": "nonpayable",
      "type": "function"
    },
    {
      "constant": false,
      "inputs": [
        {
          "name": "addrs",
          "type": "address[]"
        }
      ],
      "name": "removeAddressesFromWhitelist",
      "outputs": [],
      "payable": false,
      "stateMutability": "nonpayable",
      "type": "function"
    }
  ],
  "bytecode": "0x608060405260008054600160a060020a033316600160a060020a0319909116179055610a60806100306000396000f3006080604052600436106100ae5763ffffffff7c01000000000000000000000000000000000000000000000000000000006000350416630988ca8c81146100b357806318b919e91461011c578063217fe6c6146101a657806324953eaa14610221578063286dd3f514610276578063715018a6146102975780637b9417c8146102ac5780638da5cb5b146102cd5780639b19251a146102fe578063e2ec6ec31461031f578063f2fde38b14610374575b600080fd5b3480156100bf57600080fd5b5060408051602060046024803582810135601f810185900485028601850190965285855261011a958335600160a060020a03169536956044949193909101919081908401838280828437509497506103959650505050505050565b005b34801561012857600080fd5b50610131610403565b6040805160208082528351818301528351919283929083019185019080838360005b8381101561016b578181015183820152602001610153565b50505050905090810190601f1680156101985780820380516001836020036101000a031916815260200191505b509250505060405180910390f35b3480156101b257600080fd5b5060408051602060046024803582810135601f810185900485028601850190965285855261020d958335600160a060020a03169536956044949193909101919081908401838280828437509497506104289650505050505050565b604080519115158252519081900360200190f35b34801561022d57600080fd5b506040805160206004803580820135838102808601850190965280855261011a9536959394602494938501929182918501908490808284375094975061049b9650505050505050565b34801561028257600080fd5b5061011a600160a060020a03600435166104ec565b3480156102a357600080fd5b5061011a610573565b3480156102b857600080fd5b5061011a600160a060020a03600435166105e3565b3480156102d957600080fd5b506102e261066a565b60408051600160a060020a039092168252519081900360200190f35b34801561030a57600080fd5b5061020d600160a060020a0360043516610679565b34801561032b57600080fd5b506040805160206004803580820135838102808601850190965280855261011a953695939460249493850192918291850190849080828437509497506106ae9650505050505050565b34801561038057600080fd5b5061011a600160a060020a03600435166106ff565b6103ff826001836040518082805190602001908083835b602083106103cb5780518252601f1990920191602091820191016103ac565b51815160209384036101000a6000190180199092169116179052920194855250604051938490030190922092915050610797565b5050565b6040805180820190915260098152600080516020610a15833981519152602082015281565b6000610494836001846040518082805190602001908083835b602083106104605780518252601f199092019160209182019101610441565b51815160209384036101000a60001901801990921691161790529201948552506040519384900301909220929150506107ac565b9392505050565b6000805433600160a060020a039081169116146104b757600080fd5b5060005b81518110156103ff576104e482828151811015156104d557fe5b906020019060200201516104ec565b6001016104bb565b60005433600160a060020a0390811691161461050757600080fd5b61053481604080519081016040528060098152602001600080516020610a158339815191528152506107cb565b60408051600160a060020a038316815290517ff1abf01a1043b7c244d128e8595cf0c1d10743b022b03a02dffd8ca3bf729f5a9181900360200190a150565b60005433600160a060020a0390811691161461058e57600080fd5b60008054604051600160a060020a03909116917ff8df31144d9c2f0f6b59d69b8b98abd5459d07f2742c4df920b25aae33c6482091a26000805473ffffffffffffffffffffffffffffffffffffffff19169055565b60005433600160a060020a039081169116146105fe57600080fd5b61062b81604080519081016040528060098152602001600080516020610a158339815191528152506108ec565b60408051600160a060020a038316815290517fd1bba68c128cc3f427e5831b3c6f99f480b6efa6b9e80c757768f6124158cc3f9181900360200190a150565b600054600160a060020a031681565b60006106a882604080519081016040528060098152602001600080516020610a15833981519152815250610428565b92915050565b6000805433600160a060020a039081169116146106ca57600080fd5b5060005b81518110156103ff576106f782828151811015156106e857fe5b906020019060200201516105e3565b6001016106ce565b60005433600160a060020a0390811691161461071a57600080fd5b600160a060020a038116151561072f57600080fd5b60008054604051600160a060020a03808516939216917f8be0079c531659141344cd1fd0a4f28419497f9722a3daafe3b4186f6b6457e091a36000805473ffffffffffffffffffffffffffffffffffffffff1916600160a060020a0392909216919091179055565b6107a182826107ac565b15156103ff57600080fd5b600160a060020a03166000908152602091909152604090205460ff1690565b610835826001836040518082805190602001908083835b602083106108015780518252601f1990920191602091820191016107e2565b51815160209384036101000a60001901801990921691161790529201948552506040519384900301909220929150506109cd565b7fd211483f91fc6eff862467f8de606587a30c8fc9981056f051b897a418df803a82826040518083600160a060020a0316600160a060020a0316815260200180602001828103825283818151815260200191508051906020019080838360005b838110156108ad578181015183820152602001610895565b50505050905090810190601f1680156108da5780820380516001836020036101000a031916815260200191505b50935050505060405180910390a15050565b610956826001836040518082805190602001908083835b602083106109225780518252601f199092019160209182019101610903565b51815160209384036101000a60001901801990921691161790529201948552506040519384900301909220929150506109ef565b7fbfec83d64eaa953f2708271a023ab9ee82057f8f3578d548c1a4ba0b5b70048982826040518083600160a060020a0316600160a060020a031681526020018060200182810382528381815181526020019150805190602001908083836000838110156108ad578181015183820152602001610895565b600160a060020a0316600090815260209190915260409020805460ff19169055565b600160a060020a0316600090815260209190915260409020805460ff19166001179055560077686974656c6973740000000000000000000000000000000000000000000000a165627a7a7230582040f91c695c677339fc6f3288a2d6d2f9ca379f43169cf3584499c59e169453d80029",
  "source": "pragma solidity ^0.4.23;\n\n\nimport \"./Ownable.sol\";\nimport \"./rbac/RBAC.sol\";\n\n\n/**\n * @title Whitelist\n * @dev The Whitelist contract has a whitelist of addresses, and provides basic authorization control functions.\n * @dev This simplifies the implementation of \"user permissions\".\n */\ncontract Whitelist is Ownable, RBAC {\n  event WhitelistedAddressAdded(address addr);\n  event WhitelistedAddressRemoved(address addr);\n\n  string public constant ROLE_WHITELISTED = \"whitelist\";\n\n  /**\n   * @dev Throws if called by any account that's not whitelisted.\n   */\n  modifier onlyWhitelisted() {\n    checkRole(msg.sender, ROLE_WHITELISTED);\n    _;\n  }\n\n  /**\n   * @dev add an address to the whitelist\n   * @param addr address\n   * @return true if the address was added to the whitelist, false if the address was already in the whitelist\n   */\n  function addAddressToWhitelist(address addr)\n    onlyOwner\n    public\n  {\n    addRole(addr, ROLE_WHITELISTED);\n    emit WhitelistedAddressAdded(addr);\n  }\n\n  /**\n   * @dev getter to determine if address is in whitelist\n   */\n  function whitelist(address addr)\n    public\n    view\n    returns (bool)\n  {\n    return hasRole(addr, ROLE_WHITELISTED);\n  }\n\n  /**\n   * @dev add addresses to the whitelist\n   * @param addrs addresses\n   * @return true if at least one address was added to the whitelist,\n   * false if all addresses were already in the whitelist\n   */\n  function addAddressesToWhitelist(address[] addrs)\n    onlyOwner\n    public\n  {\n    for (uint256 i = 0; i < addrs.length; i++) {\n      addAddressToWhitelist(addrs[i]);\n    }\n  }\n\n  /**\n   * @dev remove an address from the whitelist\n   * @param addr address\n   * @return true if the address was removed from the whitelist,\n   * false if the address wasn't in the whitelist in the first place\n   */\n  function removeAddressFromWhitelist(address addr)\n    onlyOwner\n    public\n  {\n    removeRole(addr, ROLE_WHITELISTED);\n    emit WhitelistedAddressRemoved(addr);\n  }\n\n  /**\n   * @dev remove addresses from the whitelist\n   * @param addrs addresses\n   * @return true if at least one address was removed from the whitelist,\n   * false if all addresses weren't in the whitelist in the first place\n   */\n  function removeAddressesFromWhitelist(address[] addrs)\n    onlyOwner\n    public\n  {\n    for (uint256 i = 0; i < addrs.length; i++) {\n      removeAddressFromWhitelist(addrs[i]);\n    }\n  }\n\n}\n",
  "sourcePath": "openzeppelin-solidity/contracts/ownership/Whitelist.sol",
  "compiler": {
    "name": "solc",
    "version": "0.4.23+commit.124ca40d.Emscripten.clang"
  },
  "schemaVersion": "2.0.0",
  "updatedAt": "2023-04-27T06:47:32.267Z"
}