{
  "contractName": "WyvernExchange",
  "abi": [
    {
      "constant": true,
      "inputs": [],
      "name": "name",
      "outputs": [
        {
          "name": "",
          "type": "string"
        }
      ],
      "payable": false,
      "stateMutability": "view",
      "type": "function"
    },
    {
      "constant": true,
      "inputs": [
        {
          "name": "addrs",
          "type": "address[16]"
        },
        {
          "name": "uints",
          "type": "uint256[18]"
        },
        {
          "name": "feeMethodsSidesKindsHowToCalls",
          "type": "uint8[8]"
        },
        {
          "name": "calldataBuy",
          "type": "bytes"
        },
        {
          "name": "calldataSell",
          "type": "bytes"
        },
        {
          "name": "replacementPatternBuy",
          "type": "bytes"
        },
        {
          "name": "replacementPatternSell",
          "type": "bytes"
        },
        {
          "name": "staticExtradataBuy",
          "type": "bytes"
        },
        {
          "name": "staticExtradataSell",
          "type": "bytes"
        }
      ],
      "name": "calculateMatchPrice_",
      "outputs": [
        {
          "name": "",
          "type": "uint256"
        }
      ],
      "payable": false,
      "stateMutability": "view",
      "type": "function"
    },
    {
      "constant": true,
      "inputs": [
        {
          "name": "addr",
          "type": "address"
        },
        {
          "name": "roleName",
          "type": "string"
        }
      ],
      "name": "checkRole",
      "outputs": [],
      "payable": false,
      "stateMutability": "view",
      "type": "function"
    },
    {
      "constant": true,
      "inputs": [],
      "name": "tokenTransferProxy",
      "outputs": [
        {
          "name": "",
          "type": "address"
        }
      ],
      "payable": false,
      "stateMutability": "view",
      "type": "function"
    },
    {
      "constant": true,
      "inputs": [
        {
          "name": "target",
          "type": "address"
        },
        {
          "name": "calldata",
          "type": "bytes"
        },
        {
          "name": "extradata",
          "type": "bytes"
        }
      ],
      "name": "staticCall",
      "outputs": [
        {
          "name": "result",
          "type": "bool"
        }
      ],
      "payable": false,
      "stateMutability": "view",
      "type": "function"
    },
    {
      "constant": false,
      "inputs": [
        {
          "name": "newMinimumMakerProtocolFee",
          "type": "uint256"
        }
      ],
      "name": "changeMinimumMakerProtocolFee",
      "outputs": [],
      "payable": false,
      "stateMutability": "nonpayable",
      "type": "function"
    },
    {
      "constant": true,
      "inputs": [
        {
          "name": "addrs",
          "type": "address[8]"
        },
        {
          "name": "uints",
          "type": "uint256[9]"
        },
        {
          "name": "feeMethod",
          "type": "uint8"
        },
        {
          "name": "side",
          "type": "uint8"
        },
        {
          "name": "saleKind",
          "type": "uint8"
        },
        {
          "name": "howToCall",
          "type": "uint8"
        },
        {
          "name": "calldata",
          "type": "bytes"
        },
        {
          "name": "replacementPattern",
          "type": "bytes"
        },
        {
          "name": "staticExtradata",
          "type": "bytes"
        },
        {
          "name": "v",
          "type": "uint8"
        },
        {
          "name": "r",
          "type": "bytes32"
        },
        {
          "name": "s",
          "type": "bytes32"
        }
      ],
      "name": "validateOrder_",
      "outputs": [
        {
          "name": "",
          "type": "bool"
        }
      ],
      "payable": false,
      "stateMutability": "view",
      "type": "function"
    },
    {
      "constant": true,
      "inputs": [],
      "name": "ROLE_WHITELISTED",
      "outputs": [
        {
          "name": "",
          "type": "string"
        }
      ],
      "payable": false,
      "stateMutability": "view",
      "type": "function"
    },
    {
      "constant": false,
      "inputs": [
        {
          "name": "newMinimumTakerProtocolFee",
          "type": "uint256"
        }
      ],
      "name": "changeMinimumTakerProtocolFee",
      "outputs": [],
      "payable": false,
      "stateMutability": "nonpayable",
      "type": "function"
    },
    {
      "constant": true,
      "inputs": [
        {
          "name": "addr",
          "type": "address"
        },
        {
          "name": "roleName",
          "type": "string"
        }
      ],
      "name": "hasRole",
      "outputs": [
        {
          "name": "",
          "type": "bool"
        }
      ],
      "payable": false,
      "stateMutability": "view",
      "type": "function"
    },
    {
      "constant": false,
      "inputs": [
        {
          "name": "addrs",
          "type": "address[8]"
        },
        {
          "name": "uints",
          "type": "uint256[9]"
        },
        {
          "name": "feeMethod",
          "type": "uint8"
        },
        {
          "name": "side",
          "type": "uint8"
        },
        {
          "name": "saleKind",
          "type": "uint8"
        },
        {
          "name": "howToCall",
          "type": "uint8"
        },
        {
          "name": "calldata",
          "type": "bytes"
        },
        {
          "name": "replacementPattern",
          "type": "bytes"
        },
        {
          "name": "staticExtradata",
          "type": "bytes"
        },
        {
          "name": "orderbookInclusionDesired",
          "type": "bool"
        }
      ],
      "name": "approveOrder_",
      "outputs": [],
      "payable": false,
      "stateMutability": "nonpayable",
      "type": "function"
    },
    {
      "constant": true,
      "inputs": [
        {
          "name": "array",
          "type": "bytes"
        },
        {
          "name": "desired",
          "type": "bytes"
        },
        {
          "name": "mask",
          "type": "bytes"
        }
      ],
      "name": "guardedArrayReplace",
      "outputs": [
        {
          "name": "",
          "type": "bytes"
        }
      ],
      "payable": false,
      "stateMutability": "pure",
      "type": "function"
    },
    {
      "constant": true,
      "inputs": [
        {
          "name": "addrs",
          "type": "address[8]"
        },
        {
          "name": "uints",
          "type": "uint256[9]"
        },
        {
          "name": "feeMethod",
          "type": "uint8"
        },
        {
          "name": "side",
          "type": "uint8"
        },
        {
          "name": "saleKind",
          "type": "uint8"
        },
        {
          "name": "howToCall",
          "type": "uint8"
        },
        {
          "name": "calldata",
          "type": "bytes"
        },
        {
          "name": "replacementPattern",
          "type": "bytes"
        },
        {
          "name": "staticExtradata",
          "type": "bytes"
        }
      ],
      "name": "hashOrder_",
      "outputs": [
        {
          "name": "",
          "type": "bytes32"
        }
      ],
      "payable": false,
      "stateMutability": "pure",
      "type": "function"
    },
    {
      "constant": false,
      "inputs": [
        {
          "name": "addrs",
          "type": "address[]"
        }
      ],
      "name": "removeAddressesFromWhitelist",
      "outputs": [],
      "payable": false,
      "stateMutability": "nonpayable",
      "type": "function"
    },
    {
      "constant": false,
      "inputs": [
        {
          "name": "addr",
          "type": "address"
        }
      ],
      "name": "removeAddressFromWhitelist",
      "outputs": [],
      "payable": false,
      "stateMutability": "nonpayable",
      "type": "function"
    },
    {
      "constant": true,
      "inputs": [],
      "name": "minimumTakerProtocolFee",
      "outputs": [
        {
          "name": "",
          "type": "uint256"
        }
      ],
      "payable": false,
      "stateMutability": "view",
      "type": "function"
    },
    {
      "constant": false,
      "inputs": [
        {
          "name": "addrs",
          "type": "address[16]"
        },
        {
          "name": "uints",
          "type": "uint256[18]"
        },
        {
          "name": "feeMethodsSidesKindsHowToCalls",
          "type": "uint8[8]"
        },
        {
          "name": "calldataBuy",
          "type": "bytes"
        },
        {
          "name": "calldataSell",
          "type": "bytes"
        },
        {
          "name": "replacementPatternBuy",
          "type": "bytes"
        },
        {
          "name": "replacementPatternSell",
          "type": "bytes"
        },
        {
          "name": "staticExtradataBuy",
          "type": "bytes"
        },
        {
          "name": "staticExtradataSell",
          "type": "bytes"
        },
        {
          "name": "vs",
          "type": "uint8[2]"
        },
        {
          "name": "rssMetadata",
          "type": "bytes32[5]"
        }
      ],
      "name": "atomicMatch_",
      "outputs": [],
      "payable": true,
      "stateMutability": "payable",
      "type": "function"
    },
    {
      "constant": true,
      "inputs": [],
      "name": "codename",
      "outputs": [
        {
          "name": "",
          "type": "string"
        }
      ],
      "payable": false,
      "stateMutability": "view",
      "type": "function"
    },
    {
      "constant": true,
      "inputs": [
        {
          "name": "addr",
          "type": "address"
        }
      ],
      "name": "testCopyAddress",
      "outputs": [
        {
          "name": "",
          "type": "bytes"
        }
      ],
      "payable": false,
      "stateMutability": "pure",
      "type": "function"
    },
    {
      "constant": true,
      "inputs": [
        {
          "name": "arrToCopy",
          "type": "bytes"
        }
      ],
      "name": "testCopy",
      "outputs": [
        {
          "name": "",
          "type": "bytes"
        }
      ],
      "payable": false,
      "stateMutability": "pure",
      "type": "function"
    },
    {
      "constant": true,
      "inputs": [
        {
          "name": "addrs",
          "type": "address[16]"
        },
        {
          "name": "uints",
          "type": "uint256[18]"
        },
        {
          "name": "feeMethodsSidesKindsHowToCalls",
          "type": "uint8[8]"
        },
        {
          "name": "calldataBuy",
          "type": "bytes"
        },
        {
          "name": "calldataSell",
          "type": "bytes"
        },
        {
          "name": "replacementPatternBuy",
          "type": "bytes"
        },
        {
          "name": "replacementPatternSell",
          "type": "bytes"
        },
        {
          "name": "staticExtradataBuy",
          "type": "bytes"
        },
        {
          "name": "staticExtradataSell",
          "type": "bytes"
        }
      ],
      "name": "ordersCanMatch_",
      "outputs": [
        {
          "name": "",
          "type": "bool"
        }
      ],
      "payable": false,
      "stateMutability": "view",
      "type": "function"
    },
    {
      "constant": false,
      "inputs": [
        {
          "name": "newProtocolFeeRecipient",
          "type": "address"
        }
      ],
      "name": "changeProtocolFeeRecipient",
      "outputs": [],
      "payable": false,
      "stateMutability": "nonpayable",
      "type": "function"
    },
    {
      "constant": true,
      "inputs": [],
      "name": "version",
      "outputs": [
        {
          "name": "",
          "type": "string"
        }
      ],
      "payable": false,
      "stateMutability": "view",
      "type": "function"
    },
    {
      "constant": true,
      "inputs": [
        {
          "name": "buyCalldata",
          "type": "bytes"
        },
        {
          "name": "buyReplacementPattern",
          "type": "bytes"
        },
        {
          "name": "sellCalldata",
          "type": "bytes"
        },
        {
          "name": "sellReplacementPattern",
          "type": "bytes"
        }
      ],
      "name": "orderCalldataCanMatch",
      "outputs": [
        {
          "name": "",
          "type": "bool"
        }
      ],
      "payable": false,
      "stateMutability": "pure",
      "type": "function"
    },
    {
      "constant": true,
      "inputs": [
        {
          "name": "side",
          "type": "uint8"
        },
        {
          "name": "saleKind",
          "type": "uint8"
        },
        {
          "name": "basePrice",
          "type": "uint256"
        },
        {
          "name": "extra",
          "type": "uint256"
        },
        {
          "name": "listingTime",
          "type": "uint256"
        },
        {
          "name": "expirationTime",
          "type": "uint256"
        }
      ],
      "name": "calculateFinalPrice",
      "outputs": [
        {
          "name": "",
          "type": "uint256"
        }
      ],
      "payable": false,
      "stateMutability": "view",
      "type": "function"
    },
    {
      "constant": true,
      "inputs": [],
      "name": "protocolFeeRecipient",
      "outputs": [
        {
          "name": "",
          "type": "address"
        }
      ],
      "payable": false,
      "stateMutability": "view",
      "type": "function"
    },
    {
      "constant": false,
      "inputs": [
        {
          "name": "addrs",
          "type": "address[8]"
        },
        {
          "name": "uints",
          "type": "uint256[9]"
        },
        {
          "name": "feeMethod",
          "type": "uint8"
        },
        {
          "name": "side",
          "type": "uint8"
        },
        {
          "name": "saleKind",
          "type": "uint8"
        },
        {
          "name": "howToCall",
          "type": "uint8"
        },
        {
          "name": "calldata",
          "type": "bytes"
        },
        {
          "name": "replacementPattern",
          "type": "bytes"
        },
        {
          "name": "staticExtradata",
          "type": "bytes"
        },
        {
          "name": "v",
          "type": "uint8"
        },
        {
          "name": "r",
          "type": "bytes32"
        },
        {
          "name": "s",
          "type": "bytes32"
        }
      ],
      "name": "cancelOrder_",
      "outputs": [],
      "payable": false,
      "stateMutability": "nonpayable",
      "type": "function"
    },
    {
      "constant": false,
      "inputs": [],
      "name": "renounceOwnership",
      "outputs": [],
      "payable": false,
      "stateMutability": "nonpayable",
      "type": "function"
    },
    {
      "constant": true,
      "inputs": [],
      "name": "registry",
      "outputs": [
        {
          "name": "",
          "type": "address"
        }
      ],
      "payable": false,
      "stateMutability": "view",
      "type": "function"
    },
    {
      "constant": false,
      "inputs": [
        {
          "name": "addr",
          "type": "address"
        }
      ],
      "name": "addAddressToWhitelist",
      "outputs": [],
      "payable": false,
      "stateMutability": "nonpayable",
      "type": "function"
    },
    {
      "constant": true,
      "inputs": [],
      "name": "minimumMakerProtocolFee",
      "outputs": [
        {
          "name": "",
          "type": "uint256"
        }
      ],
      "payable": false,
      "stateMutability": "view",
      "type": "function"
    },
    {
      "constant": true,
      "inputs": [
        {
          "name": "",
          "type": "bytes32"
        }
      ],
      "name": "cancelledOrFinalized",
      "outputs": [
        {
          "name": "",
          "type": "bool"
        }
      ],
      "payable": false,
      "stateMutability": "view",
      "type": "function"
    },
    {
      "constant": true,
      "inputs": [
        {
          "name": "addrs",
          "type": "address[8]"
        },
        {
          "name": "uints",
          "type": "uint256[9]"
        },
        {
          "name": "feeMethod",
          "type": "uint8"
        },
        {
          "name": "side",
          "type": "uint8"
        },
        {
          "name": "saleKind",
          "type": "uint8"
        },
        {
          "name": "howToCall",
          "type": "uint8"
        },
        {
          "name": "calldata",
          "type": "bytes"
        },
        {
          "name": "replacementPattern",
          "type": "bytes"
        },
        {
          "name": "staticExtradata",
          "type": "bytes"
        }
      ],
      "name": "validateOrderParameters_",
      "outputs": [
        {
          "name": "",
          "type": "bool"
        }
      ],
      "payable": false,
      "stateMutability": "view",
      "type": "function"
    },
    {
      "constant": true,
      "inputs": [],
      "name": "owner",
      "outputs": [
        {
          "name": "",
          "type": "address"
        }
      ],
      "payable": false,
      "stateMutability": "view",
      "type": "function"
    },
    {
      "constant": true,
      "inputs": [
        {
          "name": "addr",
          "type": "address"
        }
      ],
      "name": "whitelist",
      "outputs": [
        {
          "name": "",
          "type": "bool"
        }
      ],
      "payable": false,
      "stateMutability": "view",
      "type": "function"
    },
    {
      "constant": true,
      "inputs": [],
      "name": "exchangeToken",
      "outputs": [
        {
          "name": "",
          "type": "address"
        }
      ],
      "payable": false,
      "stateMutability": "view",
      "type": "function"
    },
    {
      "constant": true,
      "inputs": [
        {
          "name": "addrs",
          "type": "address[8]"
        },
        {
          "name": "uints",
          "type": "uint256[9]"
        },
        {
          "name": "feeMethod",
          "type": "uint8"
        },
        {
          "name": "side",
          "type": "uint8"
        },
        {
          "name": "saleKind",
          "type": "uint8"
        },
        {
          "name": "howToCall",
          "type": "uint8"
        },
        {
          "name": "calldata",
          "type": "bytes"
        },
        {
          "name": "replacementPattern",
          "type": "bytes"
        },
        {
          "name": "staticExtradata",
          "type": "bytes"
        }
      ],
      "name": "calculateCurrentPrice_",
      "outputs": [
        {
          "name": "",
          "type": "uint256"
        }
      ],
      "payable": false,
      "stateMutability": "view",
      "type": "function"
    },
    {
      "constant": true,
      "inputs": [
        {
          "name": "addrs",
          "type": "address[8]"
        },
        {
          "name": "uints",
          "type": "uint256[9]"
        },
        {
          "name": "feeMethod",
          "type": "uint8"
        },
        {
          "name": "side",
          "type": "uint8"
        },
        {
          "name": "saleKind",
          "type": "uint8"
        },
        {
          "name": "howToCall",
          "type": "uint8"
        },
        {
          "name": "calldata",
          "type": "bytes"
        },
        {
          "name": "replacementPattern",
          "type": "bytes"
        },
        {
          "name": "staticExtradata",
          "type": "bytes"
        }
      ],
      "name": "hashToSign_",
      "outputs": [
        {
          "name": "",
          "type": "bytes32"
        }
      ],
      "payable": false,
      "stateMutability": "pure",
      "type": "function"
    },
    {
      "constant": true,
      "inputs": [],
      "name": "INVERSE_BASIS_POINT",
      "outputs": [
        {
          "name": "",
          "type": "uint256"
        }
      ],
      "payable": false,
      "stateMutability": "view",
      "type": "function"
    },
    {
      "constant": false,
      "inputs": [
        {
          "name": "addrs",
          "type": "address[]"
        }
      ],
      "name": "addAddressesToWhitelist",
      "outputs": [],
      "payable": false,
      "stateMutability": "nonpayable",
      "type": "function"
    },
    {
      "constant": true,
      "inputs": [
        {
          "name": "",
          "type": "bytes32"
        }
      ],
      "name": "approvedOrders",
      "outputs": [
        {
          "name": "",
          "type": "bool"
        }
      ],
      "payable": false,
      "stateMutability": "view",
      "type": "function"
    },
    {
      "constant": false,
      "inputs": [
        {
          "name": "newOwner",
          "type": "address"
        }
      ],
      "name": "transferOwnership",
      "outputs": [],
      "payable": false,
      "stateMutability": "nonpayable",
      "type": "function"
    },
    {
      "inputs": [
        {
          "name": "registryAddress",
          "type": "address"
        },
        {
          "name": "tokenTransferProxyAddress",
          "type": "address"
        },
        {
          "name": "tokenAddress",
          "type": "address"
        },
        {
          "name": "protocolFeeAddress",
          "type": "address"
        }
      ],
      "payable": false,
      "stateMutability": "nonpayable",
      "type": "constructor"
    },
    {
      "anonymous": false,
      "inputs": [
        {
          "indexed": true,
          "name": "hash",
          "type": "bytes32"
        },
        {
          "indexed": false,
          "name": "exchange",
          "type": "address"
        },
        {
          "indexed": true,
          "name": "maker",
          "type": "address"
        },
        {
          "indexed": false,
          "name": "taker",
          "type": "address"
        },
        {
          "indexed": false,
          "name": "paymentRecipient",
          "type": "address"
        },
        {
          "indexed": false,
          "name": "makerRelayerFee",
          "type": "uint256"
        },
        {
          "indexed": false,
          "name": "takerRelayerFee",
          "type": "uint256"
        },
        {
          "indexed": false,
          "name": "makerProtocolFee",
          "type": "uint256"
        },
        {
          "indexed": false,
          "name": "takerProtocolFee",
          "type": "uint256"
        },
        {
          "indexed": true,
          "name": "feeRecipient",
          "type": "address"
        },
        {
          "indexed": false,
          "name": "feeMethod",
          "type": "uint8"
        },
        {
          "indexed": false,
          "name": "side",
          "type": "uint8"
        },
        {
          "indexed": false,
          "name": "saleKind",
          "type": "uint8"
        },
        {
          "indexed": false,
          "name": "target",
          "type": "address"
        }
      ],
      "name": "OrderApprovedPartOne",
      "type": "event"
    },
    {
      "anonymous": false,
      "inputs": [
        {
          "indexed": true,
          "name": "hash",
          "type": "bytes32"
        },
        {
          "indexed": false,
          "name": "howToCall",
          "type": "uint8"
        },
        {
          "indexed": false,
          "name": "calldata",
          "type": "bytes"
        },
        {
          "indexed": false,
          "name": "replacementPattern",
          "type": "bytes"
        },
        {
          "indexed": false,
          "name": "staticTarget",
          "type": "address"
        },
        {
          "indexed": false,
          "name": "staticExtradata",
          "type": "bytes"
        },
        {
          "indexed": false,
          "name": "paymentToken",
          "type": "address"
        },
        {
          "indexed": false,
          "name": "basePrice",
          "type": "uint256"
        },
        {
          "indexed": false,
          "name": "extra",
          "type": "uint256"
        },
        {
          "indexed": false,
          "name": "listingTime",
          "type": "uint256"
        },
        {
          "indexed": false,
          "name": "expirationTime",
          "type": "uint256"
        },
        {
          "indexed": false,
          "name": "salt",
          "type": "uint256"
        },
        {
          "indexed": false,
          "name": "orderbookInclusionDesired",
          "type": "bool"
        }
      ],
      "name": "OrderApprovedPartTwo",
      "type": "event"
    },
    {
      "anonymous": false,
      "inputs": [
        {
          "indexed": true,
          "name": "hash",
          "type": "bytes32"
        }
      ],
      "name": "OrderCancelled",
      "type": "event"
    },
    {
      "anonymous": false,
      "inputs": [
        {
          "indexed": false,
          "name": "buyHash",
          "type": "bytes32"
        },
        {
          "indexed": false,
          "name": "sellHash",
          "type": "bytes32"
        },
        {
          "indexed": true,
          "name": "maker",
          "type": "address"
        },
        {
          "indexed": true,
          "name": "taker",
          "type": "address"
        },
        {
          "indexed": false,
          "name": "paymentRecipient",
          "type": "address"
        },
        {
          "indexed": false,
          "name": "price",
          "type": "uint256"
        },
        {
          "indexed": true,
          "name": "metadata",
          "type": "bytes32"
        }
      ],
      "name": "OrdersMatched",
      "type": "event"
    },
    {
      "anonymous": false,
      "inputs": [
        {
          "indexed": false,
          "name": "addr",
          "type": "address"
        }
      ],
      "name": "WhitelistedAddressAdded",
      "type": "event"
    },
    {
      "anonymous": false,
      "inputs": [
        {
          "indexed": false,
          "name": "addr",
          "type": "address"
        }
      ],
      "name": "WhitelistedAddressRemoved",
      "type": "event"
    },
    {
      "anonymous": false,
      "inputs": [
        {
          "indexed": false,
          "name": "addr",
          "type": "address"
        },
        {
          "indexed": false,
          "name": "roleName",
          "type": "string"
        }
      ],
      "name": "RoleAdded",
      "type": "event"
    },
    {
      "anonymous": false,
      "inputs": [
        {
          "indexed": false,
          "name": "addr",
          "type": "address"
        },
        {
          "indexed": false,
          "name": "roleName",
          "type": "string"
        }
      ],
      "name": "RoleRemoved",
      "type": "event"
    },
    {
      "anonymous": false,
      "inputs": [
        {
          "indexed": true,
          "name": "previousOwner",
          "type": "address"
        }
      ],
      "name": "OwnershipRenounced",
      "type": "event"
    },
    {
      "anonymous": false,
      "inputs": [
        {
          "indexed": true,
          "name": "previousOwner",
          "type": "address"
        },
        {
          "indexed": true,
          "name": "newOwner",
          "type": "address"
        }
      ],
      "name": "OwnershipTransferred",
      "type": "event"
    }
  ],
  "bytecode": "0x60806040526000805460ff19168155600781905560085534801561002257600080fd5b506040516080806200586083398101604090815281516020830151918301516060909301516000805460038054600160a060020a03958616600160a060020a0319918216179091556004805496861696821696909617909555600280549685169686169690961790955560098054928416929094169190911790925533166101000261010060a860020a03199283168117909216909117905561579580620000cb6000396000f3006080604052600436106101ea5763ffffffff60e060020a60003504166306fdde0381146101ef5780630789d1c7146102795780630988ca8c146104925780630eefdbad146104fb57806310796a471461052c57806314350c24146105e5578063156d6f57146105fd57806318b919e9146107535780631a6b13e214610768578063217fe6c61461078057806321bee27c146107e7578063239e83df1461093257806323c1372014610a0757806324953eaa14610b4e578063286dd3f514610ba357806328a8ee6814610bc45780632cb5734e14610bd957806331e6319914610e1c5780633464af6a14610e315780633e1e292a14610e5257806344a86e6214610eab578063514f0330146110b257806354fd4d50146110d3578063562b2ebc146110e857806363d36c0b146111fb57806364df049e146112285780637085816b1461123d578063715018a6146113935780637b103999146113a85780637b9417c8146113bd5780637ccefc52146113de5780638076f005146113f35780638be95fed1461140b5780638da5cb5b146115525780639b19251a14611567578063a25eb5d914611588578063bc24e8f91461159d578063bea7889b146116e4578063cae6047f1461182b578063e2ec6ec314611840578063e57d4adb14611895578063f2fde38b146118ad575b600080fd5b3480156101fb57600080fd5b506102046118ce565b6040805160208082528351818301528351919283929083019185019080838360005b8381101561023e578181015183820152602001610226565b50505050905090810190601f16801561026b5780820380516001836020036101000a031916815260200191505b509250505060405180910390f35b34801561028557600080fd5b50604080516102008181019092526104809136916004916102049190839060109083908390808284375050604080516102408181019092529497969581810195945092506012915083908390808284375050604080516101008181019092529497969581810195945092506008915083908390808284375050604080516020601f88358a0180359182018390048302840183019094528083529699989781019691955091820193509150819084018382808284375050604080516020601f89358b018035918201839004830284018301909452808352979a99988101979196509182019450925082915084018382808284375050604080516020601f89358b018035918201839004830284018301909452808352979a99988101979196509182019450925082915084018382808284375050604080516020601f89358b018035918201839004830284018301909452808352979a99988101979196509182019450925082915084018382808284375050604080516020601f89358b018035918201839004830284018301909452808352979a99988101979196509182019450925082915084018382808284375050604080516020601f89358b018035918201839004830284018301909452808352979a9998810197919650918201945092508291508401838280828437509497506119059650505050505050565b60408051918252519081900360200190f35b34801561049e57600080fd5b5060408051602060046024803582810135601f81018590048502860185019096528585526104f9958335600160a060020a0316953695604494919390910191908190840183828082843750949750611d249650505050505050565b005b34801561050757600080fd5b50610510611d92565b60408051600160a060020a039092168252519081900360200190f35b34801561053857600080fd5b5060408051602060046024803582810135601f81018590048502860185019096528585526105d1958335600160a060020a031695369560449491939091019190819084018382808284375050604080516020601f89358b018035918201839004830284018301909452808352979a999881019791965091820194509250829150840183828082843750949750611da19650505050505050565b604080519115158252519081900360200190f35b3480156105f157600080fd5b506104f9600435611e10565b34801561060957600080fd5b50604080516101008181019092526105d19136916004916101049190839060089083908390808284375050604080516101208181019092529497969581810195945092506009915083908390808284375050604080516020601f60808901358a0180359182018390048302840183018552818452979a60ff8a3581169b848c013582169b9687013582169a6060880135909216995091975090955060a090940193820191819084018382808284375050604080516020601f89358b018035918201839004830284018301909452808352979a99988101979196509182019450925082915084018382808284375050604080516020601f89358b018035918201839004830284018301909452808352979a9998810197919650918201945092508291508401838280828437509497505050833560ff1694505050602082013591604001359050611e35565b34801561075f57600080fd5b5061020461203d565b34801561077457600080fd5b506104f9600435612062565b34801561078c57600080fd5b5060408051602060046024803582810135601f81018590048502860185019096528585526105d1958335600160a060020a03169536956044949193909101919081908401838280828437509497506120879650505050505050565b3480156107f357600080fd5b50604080516101008181019092526104f99136916004916101049190839060089083908390808284375050604080516101208181019092529497969581810195945092506009915083908390808284375050604080516020601f60808901358a0180359182018390048302840183018552818452979a60ff8a3581169b848c013582169b9687013582169a6060880135909216995091975090955060a090940193820191819084018382808284375050604080516020601f89358b018035918201839004830284018301909452808352979a99988101979196509182019450925082915084018382808284375050604080516020601f89358b018035918201839004830284018301909452808352979a9998810197919650918201945092508291508401838280828437509497505050509135151592506120fc915050565b34801561093e57600080fd5b506040805160206004803580820135601f810184900484028501840190955284845261020494369492936024939284019190819084018382808284375050604080516020601f89358b018035918201839004830284018301909452808352979a99988101979196509182019450925082915084018382808284375050604080516020601f89358b018035918201839004830284018301909452808352979a9998810197919650918201945092508291508401838280828437509497506122b29650505050505050565b348015610a1357600080fd5b50604080516101008181019092526104809136916004916101049190839060089083908390808284375050604080516101208181019092529497969581810195945092506009915083908390808284375050604080516020601f60808901358a0180359182018390048302840183018552818452979a60ff8a3581169b848c013582169b9687013582169a6060880135909216995091975090955060a090940193820191819084018382808284375050604080516020601f89358b018035918201839004830284018301909452808352979a99988101979196509182019450925082915084018382808284375050604080516020601f89358b018035918201839004830284018301909452808352979a9998810197919650918201945092508291508401838280828437509497506122c99650505050505050565b348015610b5a57600080fd5b50604080516020600480358082013583810280860185019096528085526104f9953695939460249493850192918291850190849080828437509497506124259650505050505050565b348015610baf57600080fd5b506104f9600160a060020a036004351661247b565b348015610bd057600080fd5b50610480612507565b604080516102008181019092526104f99136916004916102049190839060109083908390808284375050604080516102408181019092529497969581810195945092506012915083908390808284375050604080516101008181019092529497969581810195945092506008915083908390808284375050604080516020601f88358a0180359182018390048302840183019094528083529699989781019691955091820193509150819084018382808284375050604080516020601f89358b018035918201839004830284018301909452808352979a99988101979196509182019450925082915084018382808284375050604080516020601f89358b018035918201839004830284018301909452808352979a99988101979196509182019450925082915084018382808284375050604080516020601f89358b018035918201839004830284018301909452808352979a99988101979196509182019450925082915084018382808284375050604080516020601f89358b018035918201839004830284018301909452808352979a99988101979196509182019450925082915084018382808284375050604080516020601f89358b018035918201839004830284018301909452808352979a999881019791965091820194509250829150840183828082843750506040805180820182529598979681810196955093506002925084915083908082843750506040805160a08181019092529497969581810195945092506005915083908390808284375093965061250d95505050505050565b348015610e2857600080fd5b506102046129a4565b348015610e3d57600080fd5b50610204600160a060020a03600435166129db565b348015610e5e57600080fd5b506040805160206004803580820135601f8101849004840285018401909552848452610204943694929360249392840191908190840183828082843750949750612a1b9650505050505050565b348015610eb757600080fd5b50604080516102008181019092526105d19136916004916102049190839060109083908390808284375050604080516102408181019092529497969581810195945092506012915083908390808284375050604080516101008181019092529497969581810195945092506008915083908390808284375050604080516020601f88358a0180359182018390048302840183019094528083529699989781019691955091820193509150819084018382808284375050604080516020601f89358b018035918201839004830284018301909452808352979a99988101979196509182019450925082915084018382808284375050604080516020601f89358b018035918201839004830284018301909452808352979a99988101979196509182019450925082915084018382808284375050604080516020601f89358b018035918201839004830284018301909452808352979a99988101979196509182019450925082915084018382808284375050604080516020601f89358b018035918201839004830284018301909452808352979a99988101979196509182019450925082915084018382808284375050604080516020601f89358b018035918201839004830284018301909452808352979a999881019791965091820194509250829150840183828082843750949750612a619650505050505050565b3480156110be57600080fd5b506104f9600160a060020a0360043516612e70565b3480156110df57600080fd5b50610204612ebf565b3480156110f457600080fd5b506040805160206004803580820135601f81018490048402850184019095528484526105d194369492936024939284019190819084018382808284375050604080516020601f89358b018035918201839004830284018301909452808352979a99988101979196509182019450925082915084018382808284375050604080516020601f89358b018035918201839004830284018301909452808352979a99988101979196509182019450925082915084018382808284375050604080516020601f89358b018035918201839004830284018301909452808352979a999881019791965091820194509250829150840183828082843750949750612ef69650505050505050565b34801561120757600080fd5b5061048060ff6004358116906024351660443560643560843560a435612f34565b34801561123457600080fd5b50610510612f4f565b34801561124957600080fd5b50604080516101008181019092526104f99136916004916101049190839060089083908390808284375050604080516101208181019092529497969581810195945092506009915083908390808284375050604080516020601f60808901358a0180359182018390048302840183018552818452979a60ff8a3581169b848c013582169b9687013582169a6060880135909216995091975090955060a090940193820191819084018382808284375050604080516020601f89358b018035918201839004830284018301909452808352979a99988101979196509182019450925082915084018382808284375050604080516020601f89358b018035918201839004830284018301909452808352979a9998810197919650918201945092508291508401838280828437509497505050833560ff1694505050602082013591604001359050612f5e565b34801561139f57600080fd5b506104f961313f565b3480156113b457600080fd5b506105106131b9565b3480156113c957600080fd5b506104f9600160a060020a03600435166131c8565b3480156113ea57600080fd5b50610480613254565b3480156113ff57600080fd5b506105d160043561325a565b34801561141757600080fd5b50604080516101008181019092526105d19136916004916101049190839060089083908390808284375050604080516101208181019092529497969581810195945092506009915083908390808284375050604080516020601f60808901358a0180359182018390048302840183018552818452979a60ff8a3581169b848c013582169b9687013582169a6060880135909216995091975090955060a090940193820191819084018382808284375050604080516020601f89358b018035918201839004830284018301909452808352979a99988101979196509182019450925082915084018382808284375050604080516020601f89358b018035918201839004830284018301909452808352979a99988101979196509182019450925082915084018382808284375094975061326f9650505050505050565b34801561155e57600080fd5b50610510613428565b34801561157357600080fd5b506105d1600160a060020a036004351661343c565b34801561159457600080fd5b50610510613473565b3480156115a957600080fd5b50604080516101008181019092526104809136916004916101049190839060089083908390808284375050604080516101208181019092529497969581810195945092506009915083908390808284375050604080516020601f60808901358a0180359182018390048302840183018552818452979a60ff8a3581169b848c013582169b9687013582169a6060880135909216995091975090955060a090940193820191819084018382808284375050604080516020601f89358b018035918201839004830284018301909452808352979a99988101979196509182019450925082915084018382808284375050604080516020601f89358b018035918201839004830284018301909452808352979a9998810197919650918201945092508291508401838280828437509497506134829650505050505050565b3480156116f057600080fd5b50604080516101008181019092526104809136916004916101049190839060089083908390808284375050604080516101208181019092529497969581810195945092506009915083908390808284375050604080516020601f60808901358a0180359182018390048302840183018552818452979a60ff8a3581169b848c013582169b9687013582169a6060880135909216995091975090955060a090940193820191819084018382808284375050604080516020601f89358b018035918201839004830284018301909452808352979a99988101979196509182019450925082915084018382808284375050604080516020601f89358b018035918201839004830284018301909452808352979a9998810197919650918201945092508291508401838280828437509497506135d09650505050505050565b34801561183757600080fd5b5061048061371e565b34801561184c57600080fd5b50604080516020600480358082013583810280860185019096528085526104f9953695939460249493850192918291850190849080828437509497506137249650505050505050565b3480156118a157600080fd5b506105d160043561377a565b3480156118b957600080fd5b506104f9600160a060020a036004351661378f565b60408051808201909152601781527f50726f6a6563742057797665726e2045786368616e6765000000000000000000602082015281565b600061190f61567d565b61191761567d565b604080516103008101909152808d600060209081029190910151600160a060020a03168252018d600160209081029190910151600160a060020a03168252018d600260209081029190910151600160a060020a03168252018d600360209081029190910151600160a060020a03168252018c6000602090810291909101518252018c6001602090810291909101518252018c6002602090810291909101518252018c6003602090810291909101518252018d600460209081029190910151600160a060020a03168252018b6000602002015160ff1660018111156119f757fe5b6001811115611a0257fe5b81526020018b6001602002015160ff166001811115611a1d57fe5b6001811115611a2857fe5b81526020018b6002602002015160ff166001811115611a4357fe5b6001811115611a4e57fe5b815260a08e0151600160a060020a0316602082015260608c015160409091019060ff166001811115611a7c57fe5b6001811115611a8757fe5b8152602081018b90526040810189905260c08e0151600160a060020a031660608201526080810187905260a0018d600760209081029190910151600160a060020a03168252018c6004602090810291909101518252018c6005602090810291909101518252018c6006602090810291909101518252018c6007602090810291909101518252018c600860200201519052604080516103008101909152909250808d600860209081029190910151600160a060020a03168252018d600960209081029190910151600160a060020a03168252018d600a60209081029190910151600160a060020a03168252018d600b60209081029190910151600160a060020a03168252018c6009602090810291909101518252018c600a602090810291909101518252018c600b602090810291909101518252018c600c602090810291909101518252018d600c60209081029190910151600160a060020a03168252018b6004602002015160ff166001811115611bfa57fe5b6001811115611c0557fe5b81526020018b6005602002015160ff166001811115611c2057fe5b6001811115611c2b57fe5b81526020018b6006602002015160ff166001811115611c4657fe5b6001811115611c5157fe5b81526101a08e0151600160a060020a0316602082015260e08c015160409091019060ff166001811115611c8057fe5b6001811115611c8b57fe5b8152602081018a9052604081018890526101c08e0151600160a060020a031660608201526080810186905260a0018d600f60209081029190910151600160a060020a031682526101a08e0151908201526101c08d015160408201526101e08d015160608201526102008d015160808201526102208d015160a0909101529050611d148282613837565b9c9b505050505050505050505050565b611d8e826001836040518082805190602001908083835b60208310611d5a5780518252601f199092019160209182019101611d3b565b51815160209384036101000a60001901801990921691161790529201948552506040519384900301909220929150506138c8565b5050565b600454600160a060020a031681565b60006060600083518551016040519080825280601f01601f191660200182016040528015611dd9578160200160208202803883390190505b5091505060208101611deb81856138dd565b9050611df781866138dd565b506000604051835160208501895afa9695505050505050565b60005433600160a060020a039081166101009092041614611e3057600080fd5b600755565b6000611e3f61567d565b604080516103008101909152808f600060209081029190910151600160a060020a03168252018f600160209081029190910151600160a060020a03168252018f600260209081029190910151600160a060020a03168252018f600360209081029190910151600160a060020a03168252018e6000602090810291909101518252018e6001602090810291909101518252018e6002602090810291909101518252018e6003602090810291909101518252018f60046020020151600160a060020a031681526020018d6001811115611f1257fe5b81526020018c6001811115611f2357fe5b81526020018b6001811115611f3457fe5b81526020018f60056020020151600160a060020a031681526020018a6001811115611f5b57fe5b8152602081018a9052604081018990526060018f60066020020151600160a060020a031681526020018781526020018f6007600881101515611f9957fe5b60209081029190910151600160a060020a03168252018e6004602090810291909101518252018e6005602090810291909101518252018e6006602090810291909101518252018e6007602090810291909101518252018e600860200201519052905061202b61200782613921565b6040805160608101825260ff8916815260208101889052908101869052839061396c565b9e9d5050505050505050505050505050565b604080518082019091526009815260008051602061574a833981519152602082015281565b60005433600160a060020a03908116610100909204161461208257600080fd5b600855565b60006120f3836001846040518082805190602001908083835b602083106120bf5780518252601f1990920191602091820191016120a0565b51815160209384036101000a6000190180199092169116179052920194855250604051938490030190922092915050613a61565b90505b92915050565b61210461567d565b604080516103008101909152808c600060209081029190910151600160a060020a03168252018c600160209081029190910151600160a060020a03168252018c600260209081029190910151600160a060020a03168252018c600360209081029190910151600160a060020a03168252018b6000602090810291909101518252018b6001602090810291909101518252018b6002602090810291909101518252018b6003602090810291909101518252018c60046020020151600160a060020a031681526020018a60018111156121d757fe5b81526020018960018111156121e857fe5b81526020018860018111156121f957fe5b815260a08d0151600160a060020a0316602082015260400187600181111561221d57fe5b8152602081018790526040810186905260c08d0151600160a060020a031660608201526080810185905260a0018c600760209081029190910151600160a060020a031682526080808e01519183019190915260a0808e0151604084015260c08e0151606084015260e08e0151918301919091526101008d015191015290506122a58183613a80565b5050505050505050505050565b60606122bf848484613af7565b50825b9392505050565b60408051610300810182528a51600160a060020a0390811682526020808d01518216818401528c8401518216838501526060808e01518316818501528c51608080860191909152918d015160a0850152938c015160c0840152928b015160e0830152918b01519091166101008201526000906124179061012081018a600181111561235057fe5b815260200189600181111561236157fe5b815260200188600181111561237257fe5b815260a08d0151600160a060020a0316602082015260400187600181111561239657fe5b8152602081018790526040810186905260c08d0151600160a060020a031660608201526080810185905260a0018c600760209081029190910151600160a060020a031682526080808e01519183019190915260a0808e0151604084015260c08e0151606084015260e08e0151918301919091526101008d0151910152613c7e565b9a9950505050505050505050565b6000805433600160a060020a03908116610100909204161461244657600080fd5b5060005b8151811015611d8e57612473828281518110151561246457fe5b9060200190602002015161247b565b60010161244a565b60005433600160a060020a03908116610100909204161461249b57600080fd5b6124c88160408051908101604052806009815260200160008051602061574a833981519152815250613e7e565b60408051600160a060020a038316815290517ff1abf01a1043b7c244d128e8595cf0c1d10743b022b03a02dffd8ca3bf729f5a9181900360200190a150565b60085481565b6040805161030081019091526122a590808d600060209081029190910151600160a060020a03168252018d600160209081029190910151600160a060020a03168252018d600260209081029190910151600160a060020a03168252018d600360209081029190910151600160a060020a03168252018c6000602090810291909101518252018c6001602090810291909101518252018c6002602090810291909101518252018c6003602090810291909101518252018d600460209081029190910151600160a060020a03168252018b6000602002015160ff1660018111156125f157fe5b60018111156125fc57fe5b81526020018b6001602002015160ff16600181111561261757fe5b600181111561262257fe5b81526020018b6002602002015160ff16600181111561263d57fe5b600181111561264857fe5b815260a08e0151600160a060020a0316602082015260608c015160409091019060ff16600181111561267657fe5b600181111561268157fe5b8152602081018b90526040810189905260c08e0151600160a060020a031660608201526080810187905260a0018d600760209081029190910151600160a060020a03168252018c6004602090810291909101518252018c6005602090810291909101518252018c6006602090810291909101518252018c6007602090810291909101518252018c6008602002015190526040805160608101909152808560006020908102919091015160ff168252018460006020908102919091015182520184600160200201519052604080516103008101909152808f600860209081029190910151600160a060020a03168252018f600960209081029190910151600160a060020a03168252018f600a60209081029190910151600160a060020a03168252018f600b60209081029190910151600160a060020a03168252018e6009602090810291909101518252018e600a602090810291909101518252018e600b602090810291909101518252018e600c602090810291909101518252018f600c60209081029190910151600160a060020a03168252018d6004602002015160ff16600181111561282a57fe5b600181111561283557fe5b81526020018d6005602002015160ff16600181111561285057fe5b600181111561285b57fe5b81526020018d6006602002015160ff16600181111561287657fe5b600181111561288157fe5b81526020018f600d60209081029190910151600160a060020a03168252018d6007602002015160ff1660018111156128b557fe5b60018111156128c057fe5b8152602081018c9052604081018a90526060018f600e6020020151600160a060020a031681526020018781526020018f600f6010811015156128fe57fe5b60209081029190910151600160a060020a03168252018e600d602090810291909101518252018e600e602090810291909101518252018e600f602090810291909101518252018e6010602090810291909101518252018e6011602002015190526040805160608101909152808760016020908102919091015160ff1682520186600260209081029190910151825201866003602002015190528560046020020151613f9f565b60408051808201909152600c81527f4c616d62746f6e20576f726d0000000000000000000000000000000000000000602082015281565b604080516014808252818301909252606091829160009160208201610280803883390190505091505060208101612a12818561458b565b50909392505050565b606080600083516040519080825280601f01601f191660200182016040528015612a4f578160200160208202803883390190505b5091505060208101612a1281856138dd565b6000612a6b61567d565b612a7361567d565b604080516103008101909152808d600060209081029190910151600160a060020a03168252018d600160209081029190910151600160a060020a03168252018d600260209081029190910151600160a060020a03168252018d600360209081029190910151600160a060020a03168252018c6000602090810291909101518252018c6001602090810291909101518252018c6002602090810291909101518252018c6003602090810291909101518252018d600460209081029190910151600160a060020a03168252018b6000602002015160ff166001811115612b5357fe5b6001811115612b5e57fe5b81526020018b6001602002015160ff166001811115612b7957fe5b6001811115612b8457fe5b81526020018b6002602002015160ff166001811115612b9f57fe5b6001811115612baa57fe5b815260a08e0151600160a060020a0316602082015260608c015160409091019060ff166001811115612bd857fe5b6001811115612be357fe5b8152602081018b90526040810189905260c08e0151600160a060020a031660608201526080810187905260a0018d600760209081029190910151600160a060020a03168252018c6004602090810291909101518252018c6005602090810291909101518252018c6006602090810291909101518252018c6007602090810291909101518252018c600860200201519052604080516103008101909152909250808d600860209081029190910151600160a060020a03168252018d600960209081029190910151600160a060020a03168252018d600a60209081029190910151600160a060020a03168252018d600b60209081029190910151600160a060020a03168252018c6009602090810291909101518252018c600a602090810291909101518252018c600b602090810291909101518252018c600c602090810291909101518252018d600c60209081029190910151600160a060020a03168252018b6004602002015160ff166001811115612d5657fe5b6001811115612d6157fe5b81526020018b6005602002015160ff166001811115612d7c57fe5b6001811115612d8757fe5b81526020018b6006602002015160ff166001811115612da257fe5b6001811115612dad57fe5b81526101a08e0151600160a060020a0316602082015260e08c015160409091019060ff166001811115612ddc57fe5b6001811115612de757fe5b8152602081018a9052604081018890526101c08e0151600160a060020a031660608201526080810186905260a0018d600f60209081029190910151600160a060020a031682526101a08e0151908201526101c08d015160408201526101e08d015160608201526102008d015160808201526102208d015160a0909101529050611d1482826145ab565b60005433600160a060020a039081166101009092041614612e9057600080fd5b6009805473ffffffffffffffffffffffffffffffffffffffff1916600160a060020a0392909216919091179055565b60408051808201909152600381527f322e320000000000000000000000000000000000000000000000000000000000602082015281565b60008084511115612f0c57612f0c858486613af7565b600082511115612f2157612f21838684613af7565b612f2b8584614789565b95945050505050565b6000612f448787878787876147ed565b979650505050505050565b600954600160a060020a031681565b60408051610300810190915261313190808e600060209081029190910151600160a060020a03168252018e600160209081029190910151600160a060020a03168252018e600260209081029190910151600160a060020a03168252018e600360209081029190910151600160a060020a03168252018d6000602090810291909101518252018d6001602090810291909101518252018d6002602090810291909101518252018d6003602090810291909101518252018e60046020020151600160a060020a031681526020018c600181111561303557fe5b81526020018b600181111561304657fe5b81526020018a600181111561305757fe5b815260a08f0151600160a060020a0316602082015260400189600181111561307b57fe5b8152602081018990526040810188905260c08f0151600160a060020a031660608201526080810187905260a0018e600760209081029190910151600160a060020a03168252018d6004602090810291909101518252018d6005602090810291909101518252018d6006602090810291909101518252018d6007602090810291909101518252018d6008602090810291909101519091526040805160608101825260ff881681529182018690528101849052614880565b505050505050505050505050565b60005433600160a060020a03908116610100909204161461315f57600080fd5b60008054604051610100909104600160a060020a0316917ff8df31144d9c2f0f6b59d69b8b98abd5459d07f2742c4df920b25aae33c6482091a26000805474ffffffffffffffffffffffffffffffffffffffff0019169055565b600354600160a060020a031681565b60005433600160a060020a0390811661010090920416146131e857600080fd5b6132158160408051908101604052806009815260200160008051602061574a8339815191528152506148f7565b60408051600160a060020a038316815290517fd1bba68c128cc3f427e5831b3c6f99f480b6efa6b9e80c757768f6124158cc3f9181900360200190a150565b60075481565b60056020526000908152604090205460ff1681565b600061327961567d565b604080516103008101909152808c600060209081029190910151600160a060020a03168252018c600160209081029190910151600160a060020a03168252018c600260209081029190910151600160a060020a03168252018c600360209081029190910151600160a060020a03168252018b6000602090810291909101518252018b6001602090810291909101518252018b6002602090810291909101518252018b6003602090810291909101518252018c60046020020151600160a060020a031681526020018a600181111561334c57fe5b815260200189600181111561335d57fe5b815260200188600181111561336e57fe5b815260a08d0151600160a060020a0316602082015260400187600181111561339257fe5b8152602081018790526040810186905260c08d0151600160a060020a031660608201526080810185905260a0018c600760209081029190910151600160a060020a031682526080808e01519183019190915260a0808e0151604084015260c08e0151606084015260e08e0151918301919091526101008d01519101529050613419816149d8565b9b9a5050505050505050505050565b6000546101009004600160a060020a031681565b600061346b8260408051908101604052806009815260200160008051602061574a833981519152815250612087565b90505b919050565b600254600160a060020a031681565b60408051610300810182528a51600160a060020a0390811682526020808d01518216818401528c8401518216838501526060808e01518316818501528c51608080860191909152918d015160a0850152938c015160c0840152928b015160e0830152918b01519091166101008201526000906124179061012081018a600181111561350957fe5b815260200189600181111561351a57fe5b815260200188600181111561352b57fe5b815260a08d0151600160a060020a0316602082015260400187600181111561354f57fe5b8152602081018790526040810186905260c08d0151600160a060020a031660608201526080810185905260a0018c600760209081029190910151600160a060020a031682526080808e01519183019190915260a0808e0151604084015260c08e0151606084015260e08e0151918301919091526101008d0151910152614ac5565b60408051610300810182528a51600160a060020a0390811682526020808d01518216818401528c8401518216838501526060808e01518316818501528c51608080860191909152918d015160a0850152938c015160c0840152928b015160e0830152918b01519091166101008201526000906124179061012081018a600181111561365757fe5b815260200189600181111561366857fe5b815260200188600181111561367957fe5b815260a08d0151600160a060020a0316602082015260400187600181111561369d57fe5b8152602081018790526040810186905260c08d0151600160a060020a031660608201526080810185905260a0018c600760209081029190910151600160a060020a031682526080808e01519183019190915260a0808e0151604084015260c08e0151606084015260e08e0151918301919091526101008d0151910152613921565b61271081565b6000805433600160a060020a03908116610100909204161461374557600080fd5b5060005b8151811015611d8e57613772828281518110151561376357fe5b906020019060200201516131c8565b600101613749565b60066020526000908152604090205460ff1681565b60005433600160a060020a0390811661010090920416146137af57600080fd5b600160a060020a03811615156137c457600080fd5b60008054604051600160a060020a038085169361010090930416917f8be0079c531659141344cd1fd0a4f28419497f9722a3daafe3b4186f6b6457e091a360008054600160a060020a039092166101000274ffffffffffffffffffffffffffffffffffffffff0019909216919091179055565b6000806000613868846101400151856101600151866102600151876102800151886102a00151896102c001516147ed565b9150613896856101400151866101600151876102600151886102800151896102a001518a6102c001516147ed565b9050818110156138a557600080fd5b610100840151600160a060020a031615156138c05780612f2b565b509392505050565b6138d28282613a61565b1515611d8e57600080fd5b6000808251111561391a57815180602001830160208401855b600183831014156139115781518152602091820191016138f6565b50505092909201915b5090919050565b600061392c82613c7e565b604080517f19457468657265756d205369676e6564204d6573736167653a0a3332000000008152601c8101929092525190819003603c0190209050919050565b6000613977836149d8565b1515613985575060006122c2565b60008481526005602052604090205460ff16156139a4575060006122c2565b60008481526006602052604090205460ff16156139c3575060016122c2565b602080840151835184830151604080870151815160008082528188018085528c905260ff909516818401526060810193909352608083015251600160a060020a039093169360019360a0808401949293601f19830193908390039091019190865af1158015613a36573d6000803e3d6000fd5b50505060206040510351600160a060020a03161415613a57575060016122c2565b5060009392505050565b600160a060020a03166000908152602091909152604090205460ff1690565b60008260200151600160a060020a031633600160a060020a0316141515613aa657600080fd5b613aaf83613921565b60008181526006602052604090205490915060ff1615613ace57600080fd5b6000818152600660205260409020805460ff19166001179055613af2818484614af3565b505050565b600080600084518651141515613b0c57600080fd5b8351865114613b1a57600080fd5b8551602090049250602080840292508390830414613b3457fe5b5060005b82811015613b645760010160208102848101518682015191880180519282169119909216179052613b38565b6000831115613b945782905080600101602002808501518187015181168289015182191617828901525050613c76565b50805b8551811015613c76578481815181101515613bae57fe5b90602001015160f860020a900460f860020a028482815181101515613bcf57fe5b90602001015160f860020a900460f860020a02168682815181101515613bf157fe5b90602001015160f860020a900460f860020a028583815181101515613c1257fe5b90602001015160f860020a900460f860020a0260ff60f860020a021816178682815181101515613c3e57fe5b9060200101907effffffffffffffffffffffffffffffffffffffffffffffffffffffffffffff1916908160001a905350600101613b97565b505050505050565b60008060606000613c8e85614e5e565b9250826040519080825280601f01601f191660200182016040528015613cbe578160200160208202803883390190505b509150602082019050613cd581866000015161458b565b9050613ce581866020015161458b565b9050613cf581866040015161458b565b9050613d0581866060015161458b565b9050613d15818660800151614e7e565b9050613d25818660a00151614e7e565b9050613d35818660c00151614e7e565b9050613d45818660e00151614e7e565b9050613d568186610100015161458b565b9050613d72818661012001516001811115613d6d57fe5b614e86565b9050613d89818661014001516001811115613d6d57fe5b9050613da0818661016001516001811115613d6d57fe5b9050613db18186610180015161458b565b9050613dc881866101a001516001811115613d6d57fe5b9050613dd981866101c001516138dd565b9050613dea81866101e001516138dd565b9050613dfb8186610200015161458b565b9050613e0c818661022001516138dd565b9050613e1d8186610240015161458b565b9050613e2e81866102600151614e7e565b9050613e3f81866102800151614e7e565b9050613e5081866102a00151614e7e565b9050613e6181866102c00151614e7e565b9050613e7281866102e00151614e7e565b50506020012092915050565b613ee8826001836040518082805190602001908083835b60208310613eb45780518252601f199092019160209182019101613e95565b51815160209384036101000a6000190180199092169116179052920194855250604051938490030190922092915050614e93565b7fd211483f91fc6eff862467f8de606587a30c8fc9981056f051b897a418df803a82826040518083600160a060020a0316600160a060020a0316815260200180602001828103825283818151815260200191508051906020019080838360005b83811015613f60578181015183820152602001613f48565b50505050905090810190601f168015613f8d5780820380516001836020036101000a031916815260200191505b50935050505060405180910390a15050565b6000805481908190819081908190819060ff1615613fbc57600080fd5b6000805460ff1916600117905560208c0151600160a060020a0390811633919091161415613ffd57613fed8c6149d8565b1515613ff857600080fd5b61400a565b6140078c8c614eb5565b96505b33600160a060020a03168a60200151600160a060020a03161415614041576140318a6149d8565b151561403c57600080fd5b61404e565b61404b8a8a614eb5565b95505b6140588c8b6145ab565b151561406357600080fd5b6101808a0151803b955093506000851161407c57600080fd5b60008c6101e001515111156140a5576140a58c6101c001518b6101c001518e6101e00151613af7565b60008a6101e001515111156140ce576140ce8a6101c001518d6101c001518c6101e00151613af7565b6140e28c6101c001518b6101c00151614789565b15156140ed57600080fd5b6003546020808c0151604080517fc4552791000000000000000000000000000000000000000000000000000000008152600160a060020a0392831660048201529051919093169263c45527919260248083019391928290030181600087803b15801561415857600080fd5b505af115801561416c573d6000803e3d6000fd5b505050506040513d602081101561418257600080fd5b50519250600160a060020a038316151561419b57600080fd5b600360009054906101000a9004600160a060020a0316600160a060020a03166397204d8e6040518163ffffffff1660e060020a028152600401602060405180830381600087803b1580156141ee57600080fd5b505af1158015614202573d6000803e3d6000fd5b505050506040513d602081101561421857600080fd5b5051604080517f5c60da1b0000000000000000000000000000000000000000000000000000000081529051600160a060020a0392831692861691635c60da1b9160048083019260209291908290030181600087803b15801561427957600080fd5b505af115801561428d573d6000803e3d6000fd5b505050506040513d60208110156142a357600080fd5b5051600160a060020a0316146142b857600080fd5b8291508b60200151600160a060020a031633600160a060020a03161415156142f4576000878152600560205260409020805460ff191660011790555b8960200151600160a060020a031633600160a060020a031614151561432d576000868152600560205260409020805460ff191660011790555b6143378c8b614ed9565b905081600160a060020a0316631b0f7ba98b61018001518c6101a001518d6101c001516040518463ffffffff1660e060020a0281526004018084600160a060020a0316600160a060020a0316815260200183600181111561439457fe5b60ff16815260200180602001828103825283818151815260200191508051906020019080838360005b838110156143d55781810151838201526020016143bd565b50505050905090810190601f1680156144025780820380516001836020036101000a031916815260200191505b50945050505050602060405180830381600087803b15801561442357600080fd5b505af1158015614437573d6000803e3d6000fd5b505050506040513d602081101561444d57600080fd5b5051151561445a57600080fd5b6102008c0151600160a060020a031615614493576144888c61020001518b6101c001518e6102200151611da1565b151561449357600080fd5b6102008a0151600160a060020a0316156144cc576144c18a61020001518b6101c001518c6102200151611da1565b15156144cc57600080fd5b6101008a01518890600160a060020a031615156144ed578a602001516144f3565b8c602001515b6101008c0151600160a060020a0391821691161515614516578d6020015161451c565b8b602001515b6060808e0151604080518d8152602081018d9052600160a060020a0392831681830152928301879052519216917fdb77b519bead271b959f1e56721e822436efe1d7341c6a32ce4a5e3948c49def9181900360800190a450506000805460ff1916905550505050505050505050565b600160a060020a03166c0100000000000000000000000002815260140190565b60008083610140015160018111156145bf57fe5b1480156145dc5750600182610140015160018111156145da57fe5b145b8015614607575081610120015160018111156145f457fe5b836101200151600181111561460557fe5b145b801561462e5750816102400151600160a060020a0316836102400151600160a060020a0316145b801561466857506040820151600160a060020a0316158061466857508260200151600160a060020a03168260400151600160a060020a0316145b80156146a257506040830151600160a060020a031615806146a257508160200151600160a060020a03168360400151600160a060020a0316145b80156147015750610100820151600160a060020a03161580156146d25750610100830151600160a060020a031615155b806147015750610100820151600160a060020a0316158015906147015750610100830151600160a060020a0316155b80156147285750816101800151600160a060020a0316836101800151600160a060020a0316145b80156147535750816101a00151600181111561474057fe5b836101a00151600181111561475157fe5b145b801561476e575061476e836102a00151846102c001516154df565b80156120f357506120f3826102a00151836102c001516154df565b8151815160009160019181148083146147a557600092506147e3565b600160208701838101602088015b6002848385100114156147de5780518351146147d25760009650600093505b602092830192016147b3565b505050505b5090949350505050565b600080808760018111156147fd57fe5b141561480b57859150614875565b600187600181111561481957fe5b1415614875576148446148358661483042886154fb565b61550d565b61483f85876154fb565b615536565b9050600188600181111561485457fe5b141561486b5761486486826154fb565b9150614875565b614864868261554b565b509695505050505050565b600061488c8383614eb5565b90508260200151600160a060020a031633600160a060020a03161415156148b257600080fd5b600081815260056020526040808220805460ff191660011790555182917f5152abf959f6564662358c2e52b702259b78bac5ee7842a0f01937e670efcc7d91a2505050565b614961826001836040518082805190602001908083835b6020831061492d5780518252601f19909201916020918201910161490e565b51815160209384036101000a6000190180199092169116179052920194855250604051938490030190922092915050615558565b7fbfec83d64eaa953f2708271a023ab9ee82057f8f3578d548c1a4ba0b5b70048982826040518083600160a060020a0316600160a060020a03168152602001806020018281038252838181518152602001915080519060200190808383600083811015613f60578181015183820152602001613f48565b600030600160a060020a03168260000151600160a060020a0316141515614a015750600061346e565b6060820151600160a060020a031615801590614a3757508160200151600160a060020a03168260600151600160a060020a031614155b8015614a4d5750614a4b826020015161343c565b155b15614a5a5750600061346e565b614a6e826101600151836102c0015161557d565b1515614a7c5750600061346e565b60018261012001516001811115614a8f57fe5b148015614ab057506007548260c001511080614ab057506008548260e00151105b15614abd5750600061346e565b506001919050565b600061346b826101400151836101600151846102600151856102800151866102a00151876102c001516147ed565b816101000151600160a060020a03168260200151600160a060020a031684600019167fef8d1dda8668b1fc00006f34d1d9ca05f7e3e39bb4ec3a457371726a6856299285600001518660400151876060015188608001518960a001518a60c001518b60e001518c61012001518d61014001518e61016001518f6101800151604051808c600160a060020a0316600160a060020a031681526020018b600160a060020a0316600160a060020a031681526020018a600160a060020a0316600160a060020a03168152602001898152602001888152602001878152602001868152602001856001811115614be157fe5b60ff168152602001846001811115614bf557fe5b60ff168152602001836001811115614c0957fe5b60ff168152600160a060020a039092166020830152506040805191829003019a5098505050505050505050a482600019167fe55393c778364e440d958b39ac1debd99dcfae3775a8a04d1e79124adf6a2d08836101a00151846101c00151856101e001518661020001518761022001518861024001518961026001518a61028001518b6102a001518c6102c001518d6102e001518d604051808d6001811115614cae57fe5b60ff16815260200180602001806020018c600160a060020a0316600160a060020a03168152602001806020018b600160a060020a0316600160a060020a031681526020018a81526020018981526020018881526020018781526020018681526020018515151515815260200184810384528f818151815260200191508051906020019080838360005b83811015614d4f578181015183820152602001614d37565b50505050905090810190601f168015614d7c5780820380516001836020036101000a031916815260200191505b5084810383528e818151815260200191508051906020019080838360005b83811015614db2578181015183820152602001614d9a565b50505050905090810190601f168015614ddf5780820380516001836020036101000a031916815260200191505b5084810382528c5181528c516020918201918e019080838360005b83811015614e12578181015183820152602001614dfa565b50505050905090810190601f168015614e3f5780820380516001836020036101000a031916815260200191505b509f5050505050505050505050505050505060405180910390a2505050565b610220810151516101e0820151516101c08301515101016101c401919050565b815260200190565b6000818353505060010190565b600160a060020a0316600090815260209190915260409020805460ff19169055565b600080614ec184613921565b9050614ece81858561396c565b15156122c257600080fd5b6000806000806000806000806000806000600160a060020a03168b6102400151600160a060020a0316141515614f14573415614f1457600080fd5b614f1e8c8c613837565b9850600089118015614f3d57506102408b0151600160a060020a031615155b15614f5b57614f5b8b61024001518d602001518d602001518c61559c565b6101008b0151899850889750600160a060020a03161561527e5760a0808d0151908c01511115614f8a57600080fd5b60018b61012001516001811115614f9d57fe5b14156152495760e0808d0151908c01511115614fb857600080fd5b60008b60800151111561505e57614fde614fd68c608001518b61550d565b612710615536565b6102408c0151909650600160a060020a031615156150445761500088876154fb565b6101008c0151604051919950600160a060020a03169087156108fc029088906000818181858888f1935050505015801561503e573d6000803e3d6000fd5b5061505e565b61505e8b61024001518c602001518d61010001518961559c565b60008b60a0015111156150fc5761507c614fd68c60a001518b61550d565b6102408c0151909550600160a060020a031615156150e25761509e878661554b565b6101008c0151604051919850600160a060020a03169086156108fc029087906000818181858888f193505050501580156150dc573d6000803e3d6000fd5b506150fc565b6150fc8b61024001518d602001518d61010001518861559c565b60008b60c0015111156151a05761511a614fd68c60c001518b61550d565b6102408c0151909450600160a060020a0316151561517d5761513c88856154fb565b600954604051919950600160a060020a03169085156108fc029086906000818181858888f19350505050158015615177573d6000803e3d6000fd5b506151a0565b6102408b015160208c01516009546151a0929190600160a060020a03168761559c565b60008b60e001511115615244576151be614fd68c60e001518b61550d565b6102408c0151909350600160a060020a03161515615221576151e0878461554b565b600954604051919850600160a060020a03169084156108fc029085906000818181858888f1935050505015801561521b573d6000803e3d6000fd5b50615244565b6102408b015160208d0151600954615244929190600160a060020a03168661559c565b615279565b6152618b602001518c61010001518d60800151615665565b6152798c602001518c61010001518d60a00151615665565b615403565b60a0808c0151908d0151111561529357600080fd5b60018b610120015160018111156152a657fe5b14156153d3576102408b0151600160a060020a031615156152c657600080fd5b60e0808c0151908d015111156152db57600080fd5b60008c608001511115615315576152f9614fd68d608001518b61550d565b95506153158b61024001518d602001518e61010001518961559c565b60008c60a00151111561534f57615333614fd68d60a001518b61550d565b945061534f8b61024001518c602001518e61010001518861559c565b60008c60c0015111156153915761536d614fd68d60c001518b61550d565b6102408c015160208e015160095492965061539192600160a060020a03168761559c565b60008c60e001511115615279576153af614fd68d60e001518b61550d565b6102408c015160208d015160095492955061527992600160a060020a03168661559c565b6153eb8c602001518d61010001518e60800151615665565b6154038b602001518d61010001518e60a00151615665565b6102408b0151600160a060020a031615156154cf573487111561542557600080fd5b60608b01519150600160a060020a0382161515615444578a6020015191505b604051600160a060020a0383169089156108fc02908a906000818181858888f1935050505015801561547a573d6000803e3d6000fd5b5061548534886154fb565b905060008111156154cf578b60200151600160a060020a03166108fc829081150290604051600060405180830381858888f193505050501580156154cd573d6000803e3d6000fd5b505b50969a9950505050505050505050565b600042831080156120f357508115806120f35750504210919050565b60008282111561550757fe5b50900390565b600082151561551e575060006120f6565b5081810281838281151561552e57fe5b04146120f657fe5b6000818381151561554357fe5b049392505050565b818101828110156120f657fe5b600160a060020a0316600090815260209190915260409020805460ff19166001179055565b60008083600181111561558c57fe5b14806120f3575050600010919050565b600081111561565f5760048054604080517f15dacbea000000000000000000000000000000000000000000000000000000008152600160a060020a03888116948201949094528684166024820152858416604482015260648101859052905192909116916315dacbea916084808201926020929091908290030181600087803b15801561562857600080fd5b505af115801561563c573d6000803e3d6000fd5b505050506040513d602081101561565257600080fd5b5051151561565f57600080fd5b50505050565b600254613af290600160a060020a031684848461559c565b6040805161030081018252600080825260208201819052918101829052606081018290526080810182905260a0810182905260c0810182905260e0810182905261010081018290529061012082019081526020016000815260200160008152600060208201819052604090910190815260200160608152602001606081526020016000600160a060020a03168152602001606081526020016000600160a060020a0316815260200160008152602001600081526020016000815260200160008152602001600081525090560077686974656c6973740000000000000000000000000000000000000000000000a165627a7a723058204e474462bcbb1efa7b34bebbf21dd89f83c6184dd8a544173dda21ac4472847d0029",
  "source": "/*\n\n  << Project Wyvern Exchange >>\n\n*/\n\npragma solidity 0.4.23;\n\nimport \"./exchange/Exchange.sol\";\n\n/**\n * @title WyvernExchange\n * @author Project Wyvern Developers\n */\ncontract WyvernExchange is Exchange {\n\n    string public constant name = \"Project Wyvern Exchange\";\n\n    string public constant version = \"2.2\";\n\n    string public constant codename = \"Lambton Worm\";\n\n    /**\n     * @dev Initialize a WyvernExchange instance\n     * @param registryAddress Address of the registry instance which this Exchange instance will use\n     * @param tokenAddress Address of the token used for protocol fees\n     */\n    constructor (ProxyRegistry registryAddress, TokenTransferProxy tokenTransferProxyAddress, ERC20 tokenAddress, address protocolFeeAddress) public {\n        registry = registryAddress;\n        tokenTransferProxy = tokenTransferProxyAddress;\n        exchangeToken = tokenAddress;\n        protocolFeeRecipient = protocolFeeAddress;\n        owner = msg.sender;\n    }\n\n}\n",
  "sourcePath": "/workspace/contracts/WyvernExchange.sol",
  "compiler": {
    "name": "solc",
    "version": "0.4.23+commit.124ca40d.Emscripten.clang"
  },
  "schemaVersion": "2.0.0",
  "updatedAt": "2023-04-27T06:47:32.201Z"
}