{
  "contractName": "WyvernExchange",
  "abi": [
    {
      "constant": true,
      "inputs": [],
      "name": "name",
      "outputs": [
        {
          "name": "",
          "type": "string"
        }
      ],
      "payable": false,
      "stateMutability": "view",
      "type": "function"
    },
    {
      "constant": true,
      "inputs": [
        {
          "name": "addrs",
          "type": "address[16]"
        },
        {
          "name": "uints",
          "type": "uint256[18]"
        },
        {
          "name": "feeMethodsSidesKindsHowToCalls",
          "type": "uint8[8]"
        },
        {
          "name": "calldataBuy",
          "type": "bytes"
        },
        {
          "name": "calldataSell",
          "type": "bytes"
        },
        {
          "name": "replacementPatternBuy",
          "type": "bytes"
        },
        {
          "name": "replacementPatternSell",
          "type": "bytes"
        },
        {
          "name": "staticExtradataBuy",
          "type": "bytes"
        },
        {
          "name": "staticExtradataSell",
          "type": "bytes"
        }
      ],
      "name": "calculateMatchPrice_",
      "outputs": [
        {
          "name": "",
          "type": "uint256"
        }
      ],
      "payable": false,
      "stateMutability": "view",
      "type": "function"
    },
    {
      "constant": true,
      "inputs": [],
      "name": "tokenTransferProxy",
      "outputs": [
        {
          "name": "",
          "type": "address"
        }
      ],
      "payable": false,
      "stateMutability": "view",
      "type": "function"
    },
    {
      "constant": true,
      "inputs": [
        {
          "name": "target",
          "type": "address"
        },
        {
          "name": "calldata",
          "type": "bytes"
        },
        {
          "name": "extradata",
          "type": "bytes"
        }
      ],
      "name": "staticCall",
      "outputs": [
        {
          "name": "result",
          "type": "bool"
        }
      ],
      "payable": false,
      "stateMutability": "view",
      "type": "function"
    },
    {
      "constant": false,
      "inputs": [
        {
          "name": "newMinimumMakerProtocolFee",
          "type": "uint256"
        }
      ],
      "name": "changeMinimumMakerProtocolFee",
      "outputs": [],
      "payable": false,
      "stateMutability": "nonpayable",
      "type": "function"
    },
    {
      "constant": true,
      "inputs": [
        {
          "name": "addrs",
          "type": "address[8]"
        },
        {
          "name": "uints",
          "type": "uint256[9]"
        },
        {
          "name": "feeMethod",
          "type": "uint8"
        },
        {
          "name": "side",
          "type": "uint8"
        },
        {
          "name": "saleKind",
          "type": "uint8"
        },
        {
          "name": "howToCall",
          "type": "uint8"
        },
        {
          "name": "calldata",
          "type": "bytes"
        },
        {
          "name": "replacementPattern",
          "type": "bytes"
        },
        {
          "name": "staticExtradata",
          "type": "bytes"
        },
        {
          "name": "v",
          "type": "uint8"
        },
        {
          "name": "r",
          "type": "bytes32"
        },
        {
          "name": "s",
          "type": "bytes32"
        }
      ],
      "name": "validateOrder_",
      "outputs": [
        {
          "name": "",
          "type": "bool"
        }
      ],
      "payable": false,
      "stateMutability": "view",
      "type": "function"
    },
    {
      "constant": false,
      "inputs": [
        {
          "name": "newMinimumTakerProtocolFee",
          "type": "uint256"
        }
      ],
      "name": "changeMinimumTakerProtocolFee",
      "outputs": [],
      "payable": false,
      "stateMutability": "nonpayable",
      "type": "function"
    },
    {
      "constant": false,
      "inputs": [
        {
          "name": "addrs",
          "type": "address[8]"
        },
        {
          "name": "uints",
          "type": "uint256[9]"
        },
        {
          "name": "feeMethod",
          "type": "uint8"
        },
        {
          "name": "side",
          "type": "uint8"
        },
        {
          "name": "saleKind",
          "type": "uint8"
        },
        {
          "name": "howToCall",
          "type": "uint8"
        },
        {
          "name": "calldata",
          "type": "bytes"
        },
        {
          "name": "replacementPattern",
          "type": "bytes"
        },
        {
          "name": "staticExtradata",
          "type": "bytes"
        },
        {
          "name": "orderbookInclusionDesired",
          "type": "bool"
        }
      ],
      "name": "approveOrder_",
      "outputs": [],
      "payable": false,
      "stateMutability": "nonpayable",
      "type": "function"
    },
    {
      "constant": true,
      "inputs": [
        {
          "name": "array",
          "type": "bytes"
        },
        {
          "name": "desired",
          "type": "bytes"
        },
        {
          "name": "mask",
          "type": "bytes"
        }
      ],
      "name": "guardedArrayReplace",
      "outputs": [
        {
          "name": "",
          "type": "bytes"
        }
      ],
      "payable": false,
      "stateMutability": "pure",
      "type": "function"
    },
    {
      "constant": true,
      "inputs": [
        {
          "name": "addrs",
          "type": "address[8]"
        },
        {
          "name": "uints",
          "type": "uint256[9]"
        },
        {
          "name": "feeMethod",
          "type": "uint8"
        },
        {
          "name": "side",
          "type": "uint8"
        },
        {
          "name": "saleKind",
          "type": "uint8"
        },
        {
          "name": "howToCall",
          "type": "uint8"
        },
        {
          "name": "calldata",
          "type": "bytes"
        },
        {
          "name": "replacementPattern",
          "type": "bytes"
        },
        {
          "name": "staticExtradata",
          "type": "bytes"
        }
      ],
      "name": "hashOrder_",
      "outputs": [
        {
          "name": "",
          "type": "bytes32"
        }
      ],
      "payable": false,
      "stateMutability": "pure",
      "type": "function"
    },
    {
      "constant": true,
      "inputs": [],
      "name": "minimumTakerProtocolFee",
      "outputs": [
        {
          "name": "",
          "type": "uint256"
        }
      ],
      "payable": false,
      "stateMutability": "view",
      "type": "function"
    },
    {
      "constant": false,
      "inputs": [
        {
          "name": "addrs",
          "type": "address[16]"
        },
        {
          "name": "uints",
          "type": "uint256[18]"
        },
        {
          "name": "feeMethodsSidesKindsHowToCalls",
          "type": "uint8[8]"
        },
        {
          "name": "calldataBuy",
          "type": "bytes"
        },
        {
          "name": "calldataSell",
          "type": "bytes"
        },
        {
          "name": "replacementPatternBuy",
          "type": "bytes"
        },
        {
          "name": "replacementPatternSell",
          "type": "bytes"
        },
        {
          "name": "staticExtradataBuy",
          "type": "bytes"
        },
        {
          "name": "staticExtradataSell",
          "type": "bytes"
        },
        {
          "name": "vs",
          "type": "uint8[2]"
        },
        {
          "name": "rssMetadata",
          "type": "bytes32[5]"
        }
      ],
      "name": "atomicMatch_",
      "outputs": [],
      "payable": true,
      "stateMutability": "payable",
      "type": "function"
    },
    {
      "constant": true,
      "inputs": [],
      "name": "codename",
      "outputs": [
        {
          "name": "",
          "type": "string"
        }
      ],
      "payable": false,
      "stateMutability": "view",
      "type": "function"
    },
    {
      "constant": true,
      "inputs": [
        {
          "name": "addr",
          "type": "address"
        }
      ],
      "name": "testCopyAddress",
      "outputs": [
        {
          "name": "",
          "type": "bytes"
        }
      ],
      "payable": false,
      "stateMutability": "pure",
      "type": "function"
    },
    {
      "constant": true,
      "inputs": [
        {
          "name": "arrToCopy",
          "type": "bytes"
        }
      ],
      "name": "testCopy",
      "outputs": [
        {
          "name": "",
          "type": "bytes"
        }
      ],
      "payable": false,
      "stateMutability": "pure",
      "type": "function"
    },
    {
      "constant": true,
      "inputs": [
        {
          "name": "addrs",
          "type": "address[16]"
        },
        {
          "name": "uints",
          "type": "uint256[18]"
        },
        {
          "name": "feeMethodsSidesKindsHowToCalls",
          "type": "uint8[8]"
        },
        {
          "name": "calldataBuy",
          "type": "bytes"
        },
        {
          "name": "calldataSell",
          "type": "bytes"
        },
        {
          "name": "replacementPatternBuy",
          "type": "bytes"
        },
        {
          "name": "replacementPatternSell",
          "type": "bytes"
        },
        {
          "name": "staticExtradataBuy",
          "type": "bytes"
        },
        {
          "name": "staticExtradataSell",
          "type": "bytes"
        }
      ],
      "name": "ordersCanMatch_",
      "outputs": [
        {
          "name": "",
          "type": "bool"
        }
      ],
      "payable": false,
      "stateMutability": "view",
      "type": "function"
    },
    {
      "constant": false,
      "inputs": [
        {
          "name": "newProtocolFeeRecipient",
          "type": "address"
        }
      ],
      "name": "changeProtocolFeeRecipient",
      "outputs": [],
      "payable": false,
      "stateMutability": "nonpayable",
      "type": "function"
    },
    {
      "constant": true,
      "inputs": [],
      "name": "version",
      "outputs": [
        {
          "name": "",
          "type": "string"
        }
      ],
      "payable": false,
      "stateMutability": "view",
      "type": "function"
    },
    {
      "constant": true,
      "inputs": [
        {
          "name": "buyCalldata",
          "type": "bytes"
        },
        {
          "name": "buyReplacementPattern",
          "type": "bytes"
        },
        {
          "name": "sellCalldata",
          "type": "bytes"
        },
        {
          "name": "sellReplacementPattern",
          "type": "bytes"
        }
      ],
      "name": "orderCalldataCanMatch",
      "outputs": [
        {
          "name": "",
          "type": "bool"
        }
      ],
      "payable": false,
      "stateMutability": "pure",
      "type": "function"
    },
    {
      "constant": true,
      "inputs": [
        {
          "name": "side",
          "type": "uint8"
        },
        {
          "name": "saleKind",
          "type": "uint8"
        },
        {
          "name": "basePrice",
          "type": "uint256"
        },
        {
          "name": "extra",
          "type": "uint256"
        },
        {
          "name": "listingTime",
          "type": "uint256"
        },
        {
          "name": "expirationTime",
          "type": "uint256"
        }
      ],
      "name": "calculateFinalPrice",
      "outputs": [
        {
          "name": "",
          "type": "uint256"
        }
      ],
      "payable": false,
      "stateMutability": "view",
      "type": "function"
    },
    {
      "constant": true,
      "inputs": [],
      "name": "protocolFeeRecipient",
      "outputs": [
        {
          "name": "",
          "type": "address"
        }
      ],
      "payable": false,
      "stateMutability": "view",
      "type": "function"
    },
    {
      "constant": false,
      "inputs": [
        {
          "name": "addrs",
          "type": "address[8]"
        },
        {
          "name": "uints",
          "type": "uint256[9]"
        },
        {
          "name": "feeMethod",
          "type": "uint8"
        },
        {
          "name": "side",
          "type": "uint8"
        },
        {
          "name": "saleKind",
          "type": "uint8"
        },
        {
          "name": "howToCall",
          "type": "uint8"
        },
        {
          "name": "calldata",
          "type": "bytes"
        },
        {
          "name": "replacementPattern",
          "type": "bytes"
        },
        {
          "name": "staticExtradata",
          "type": "bytes"
        },
        {
          "name": "v",
          "type": "uint8"
        },
        {
          "name": "r",
          "type": "bytes32"
        },
        {
          "name": "s",
          "type": "bytes32"
        }
      ],
      "name": "cancelOrder_",
      "outputs": [],
      "payable": false,
      "stateMutability": "nonpayable",
      "type": "function"
    },
    {
      "constant": false,
      "inputs": [],
      "name": "renounceOwnership",
      "outputs": [],
      "payable": false,
      "stateMutability": "nonpayable",
      "type": "function"
    },
    {
      "constant": true,
      "inputs": [],
      "name": "registry",
      "outputs": [
        {
          "name": "",
          "type": "address"
        }
      ],
      "payable": false,
      "stateMutability": "view",
      "type": "function"
    },
    {
      "constant": true,
      "inputs": [],
      "name": "minimumMakerProtocolFee",
      "outputs": [
        {
          "name": "",
          "type": "uint256"
        }
      ],
      "payable": false,
      "stateMutability": "view",
      "type": "function"
    },
    {
      "constant": true,
      "inputs": [
        {
          "name": "",
          "type": "bytes32"
        }
      ],
      "name": "cancelledOrFinalized",
      "outputs": [
        {
          "name": "",
          "type": "bool"
        }
      ],
      "payable": false,
      "stateMutability": "view",
      "type": "function"
    },
    {
      "constant": true,
      "inputs": [
        {
          "name": "addrs",
          "type": "address[8]"
        },
        {
          "name": "uints",
          "type": "uint256[9]"
        },
        {
          "name": "feeMethod",
          "type": "uint8"
        },
        {
          "name": "side",
          "type": "uint8"
        },
        {
          "name": "saleKind",
          "type": "uint8"
        },
        {
          "name": "howToCall",
          "type": "uint8"
        },
        {
          "name": "calldata",
          "type": "bytes"
        },
        {
          "name": "replacementPattern",
          "type": "bytes"
        },
        {
          "name": "staticExtradata",
          "type": "bytes"
        }
      ],
      "name": "validateOrderParameters_",
      "outputs": [
        {
          "name": "",
          "type": "bool"
        }
      ],
      "payable": false,
      "stateMutability": "view",
      "type": "function"
    },
    {
      "constant": true,
      "inputs": [],
      "name": "owner",
      "outputs": [
        {
          "name": "",
          "type": "address"
        }
      ],
      "payable": false,
      "stateMutability": "view",
      "type": "function"
    },
    {
      "constant": true,
      "inputs": [],
      "name": "exchangeToken",
      "outputs": [
        {
          "name": "",
          "type": "address"
        }
      ],
      "payable": false,
      "stateMutability": "view",
      "type": "function"
    },
    {
      "constant": true,
      "inputs": [
        {
          "name": "addrs",
          "type": "address[8]"
        },
        {
          "name": "uints",
          "type": "uint256[9]"
        },
        {
          "name": "feeMethod",
          "type": "uint8"
        },
        {
          "name": "side",
          "type": "uint8"
        },
        {
          "name": "saleKind",
          "type": "uint8"
        },
        {
          "name": "howToCall",
          "type": "uint8"
        },
        {
          "name": "calldata",
          "type": "bytes"
        },
        {
          "name": "replacementPattern",
          "type": "bytes"
        },
        {
          "name": "staticExtradata",
          "type": "bytes"
        }
      ],
      "name": "calculateCurrentPrice_",
      "outputs": [
        {
          "name": "",
          "type": "uint256"
        }
      ],
      "payable": false,
      "stateMutability": "view",
      "type": "function"
    },
    {
      "constant": true,
      "inputs": [
        {
          "name": "addrs",
          "type": "address[8]"
        },
        {
          "name": "uints",
          "type": "uint256[9]"
        },
        {
          "name": "feeMethod",
          "type": "uint8"
        },
        {
          "name": "side",
          "type": "uint8"
        },
        {
          "name": "saleKind",
          "type": "uint8"
        },
        {
          "name": "howToCall",
          "type": "uint8"
        },
        {
          "name": "calldata",
          "type": "bytes"
        },
        {
          "name": "replacementPattern",
          "type": "bytes"
        },
        {
          "name": "staticExtradata",
          "type": "bytes"
        }
      ],
      "name": "hashToSign_",
      "outputs": [
        {
          "name": "",
          "type": "bytes32"
        }
      ],
      "payable": false,
      "stateMutability": "pure",
      "type": "function"
    },
    {
      "constant": true,
      "inputs": [],
      "name": "INVERSE_BASIS_POINT",
      "outputs": [
        {
          "name": "",
          "type": "uint256"
        }
      ],
      "payable": false,
      "stateMutability": "view",
      "type": "function"
    },
    {
      "constant": true,
      "inputs": [
        {
          "name": "",
          "type": "bytes32"
        }
      ],
      "name": "approvedOrders",
      "outputs": [
        {
          "name": "",
          "type": "bool"
        }
      ],
      "payable": false,
      "stateMutability": "view",
      "type": "function"
    },
    {
      "constant": false,
      "inputs": [
        {
          "name": "newOwner",
          "type": "address"
        }
      ],
      "name": "transferOwnership",
      "outputs": [],
      "payable": false,
      "stateMutability": "nonpayable",
      "type": "function"
    },
    {
      "inputs": [
        {
          "name": "registryAddress",
          "type": "address"
        },
        {
          "name": "tokenTransferProxyAddress",
          "type": "address"
        },
        {
          "name": "tokenAddress",
          "type": "address"
        },
        {
          "name": "protocolFeeAddress",
          "type": "address"
        }
      ],
      "payable": false,
      "stateMutability": "nonpayable",
      "type": "constructor"
    },
    {
      "anonymous": false,
      "inputs": [
        {
          "indexed": true,
          "name": "hash",
          "type": "bytes32"
        },
        {
          "indexed": false,
          "name": "exchange",
          "type": "address"
        },
        {
          "indexed": true,
          "name": "maker",
          "type": "address"
        },
        {
          "indexed": false,
          "name": "taker",
          "type": "address"
        },
        {
          "indexed": false,
          "name": "paymentRecipient",
          "type": "address"
        },
        {
          "indexed": false,
          "name": "makerRelayerFee",
          "type": "uint256"
        },
        {
          "indexed": false,
          "name": "takerRelayerFee",
          "type": "uint256"
        },
        {
          "indexed": false,
          "name": "makerProtocolFee",
          "type": "uint256"
        },
        {
          "indexed": false,
          "name": "takerProtocolFee",
          "type": "uint256"
        },
        {
          "indexed": true,
          "name": "feeRecipient",
          "type": "address"
        },
        {
          "indexed": false,
          "name": "feeMethod",
          "type": "uint8"
        },
        {
          "indexed": false,
          "name": "side",
          "type": "uint8"
        },
        {
          "indexed": false,
          "name": "saleKind",
          "type": "uint8"
        },
        {
          "indexed": false,
          "name": "target",
          "type": "address"
        }
      ],
      "name": "OrderApprovedPartOne",
      "type": "event"
    },
    {
      "anonymous": false,
      "inputs": [
        {
          "indexed": true,
          "name": "hash",
          "type": "bytes32"
        },
        {
          "indexed": false,
          "name": "howToCall",
          "type": "uint8"
        },
        {
          "indexed": false,
          "name": "calldata",
          "type": "bytes"
        },
        {
          "indexed": false,
          "name": "replacementPattern",
          "type": "bytes"
        },
        {
          "indexed": false,
          "name": "staticTarget",
          "type": "address"
        },
        {
          "indexed": false,
          "name": "staticExtradata",
          "type": "bytes"
        },
        {
          "indexed": false,
          "name": "paymentToken",
          "type": "address"
        },
        {
          "indexed": false,
          "name": "basePrice",
          "type": "uint256"
        },
        {
          "indexed": false,
          "name": "extra",
          "type": "uint256"
        },
        {
          "indexed": false,
          "name": "listingTime",
          "type": "uint256"
        },
        {
          "indexed": false,
          "name": "expirationTime",
          "type": "uint256"
        },
        {
          "indexed": false,
          "name": "salt",
          "type": "uint256"
        },
        {
          "indexed": false,
          "name": "orderbookInclusionDesired",
          "type": "bool"
        }
      ],
      "name": "OrderApprovedPartTwo",
      "type": "event"
    },
    {
      "anonymous": false,
      "inputs": [
        {
          "indexed": true,
          "name": "hash",
          "type": "bytes32"
        }
      ],
      "name": "OrderCancelled",
      "type": "event"
    },
    {
      "anonymous": false,
      "inputs": [
        {
          "indexed": false,
          "name": "buyHash",
          "type": "bytes32"
        },
        {
          "indexed": false,
          "name": "sellHash",
          "type": "bytes32"
        },
        {
          "indexed": true,
          "name": "maker",
          "type": "address"
        },
        {
          "indexed": true,
          "name": "taker",
          "type": "address"
        },
        {
          "indexed": false,
          "name": "paymentRecipient",
          "type": "address"
        },
        {
          "indexed": false,
          "name": "price",
          "type": "uint256"
        },
        {
          "indexed": true,
          "name": "metadata",
          "type": "bytes32"
        }
      ],
      "name": "OrdersMatched",
      "type": "event"
    },
    {
      "anonymous": false,
      "inputs": [
        {
          "indexed": true,
          "name": "previousOwner",
          "type": "address"
        }
      ],
      "name": "OwnershipRenounced",
      "type": "event"
    },
    {
      "anonymous": false,
      "inputs": [
        {
          "indexed": true,
          "name": "previousOwner",
          "type": "address"
        },
        {
          "indexed": true,
          "name": "newOwner",
          "type": "address"
        }
      ],
      "name": "OwnershipTransferred",
      "type": "event"
    }
  ],
  "bytecode": "0x60806040526000805460ff19168155600681905560075534801561002257600080fd5b5060405160808061500183398101604090815281516020830151918301516060909301516000805460028054600160a060020a03958616600160a060020a0319918216179091556003805496861696821696909617909555600180549685169686169690961790955560088054928416929094169190911790925533166101000261010060a860020a031992831681179092169091179055614f38806100c96000396000f3006080604052600436106101925763ffffffff60e060020a60003504166306fdde0381146101975780630789d1c7146102215780630eefdbad1461043a57806310796a471461046b57806314350c2414610524578063156d6f571461053e5780631a6b13e21461069457806321bee27c146106ac578063239e83df146107f757806323c13720146108cc57806328a8ee6814610a135780632cb5734e14610a2857806331e6319914610c6b5780633464af6a14610c805780633e1e292a14610ca157806344a86e6214610cfa578063514f033014610f0157806354fd4d5014610f22578063562b2ebc14610f3757806363d36c0b1461104a57806364df049e146110775780637085816b1461108c578063715018a6146111e25780637b103999146111f75780637ccefc521461120c5780638076f005146112215780638be95fed146112395780638da5cb5b14611380578063a25eb5d914611395578063bc24e8f9146113aa578063bea7889b146114f1578063cae6047f14611638578063e57d4adb1461164d578063f2fde38b14611665575b600080fd5b3480156101a357600080fd5b506101ac611686565b6040805160208082528351818301528351919283929083019185019080838360005b838110156101e65781810151838201526020016101ce565b50505050905090810190601f1680156102135780820380516001836020036101000a031916815260200191505b509250505060405180910390f35b34801561022d57600080fd5b50604080516102008181019092526104289136916004916102049190839060109083908390808284375050604080516102408181019092529497969581810195945092506012915083908390808284375050604080516101008181019092529497969581810195945092506008915083908390808284375050604080516020601f88358a0180359182018390048302840183019094528083529699989781019691955091820193509150819084018382808284375050604080516020601f89358b018035918201839004830284018301909452808352979a99988101979196509182019450925082915084018382808284375050604080516020601f89358b018035918201839004830284018301909452808352979a99988101979196509182019450925082915084018382808284375050604080516020601f89358b018035918201839004830284018301909452808352979a99988101979196509182019450925082915084018382808284375050604080516020601f89358b018035918201839004830284018301909452808352979a99988101979196509182019450925082915084018382808284375050604080516020601f89358b018035918201839004830284018301909452808352979a9998810197919650918201945092508291508401838280828437509497506116bd9650505050505050565b60408051918252519081900360200190f35b34801561044657600080fd5b5061044f611adc565b60408051600160a060020a039092168252519081900360200190f35b34801561047757600080fd5b5060408051602060046024803582810135601f8101859004850286018501909652858552610510958335600160a060020a031695369560449491939091019190819084018382808284375050604080516020601f89358b018035918201839004830284018301909452808352979a999881019791965091820194509250829150840183828082843750949750611aeb9650505050505050565b604080519115158252519081900360200190f35b34801561053057600080fd5b5061053c600435611b5a565b005b34801561054a57600080fd5b50604080516101008181019092526105109136916004916101049190839060089083908390808284375050604080516101208181019092529497969581810195945092506009915083908390808284375050604080516020601f60808901358a0180359182018390048302840183018552818452979a60ff8a3581169b848c013582169b9687013582169a6060880135909216995091975090955060a090940193820191819084018382808284375050604080516020601f89358b018035918201839004830284018301909452808352979a99988101979196509182019450925082915084018382808284375050604080516020601f89358b018035918201839004830284018301909452808352979a9998810197919650918201945092508291508401838280828437509497505050833560ff1694505050602082013591604001359050611b7f565b3480156106a057600080fd5b5061053c600435611d87565b3480156106b857600080fd5b506040805161010081810190925261053c9136916004916101049190839060089083908390808284375050604080516101208181019092529497969581810195945092506009915083908390808284375050604080516020601f60808901358a0180359182018390048302840183018552818452979a60ff8a3581169b848c013582169b9687013582169a6060880135909216995091975090955060a090940193820191819084018382808284375050604080516020601f89358b018035918201839004830284018301909452808352979a99988101979196509182019450925082915084018382808284375050604080516020601f89358b018035918201839004830284018301909452808352979a999881019791965091820194509250829150840183828082843750949750505050913515159250611dac915050565b34801561080357600080fd5b506040805160206004803580820135601f81018490048402850184019095528484526101ac94369492936024939284019190819084018382808284375050604080516020601f89358b018035918201839004830284018301909452808352979a99988101979196509182019450925082915084018382808284375050604080516020601f89358b018035918201839004830284018301909452808352979a999881019791965091820194509250829150840183828082843750949750611f629650505050505050565b3480156108d857600080fd5b50604080516101008181019092526104289136916004916101049190839060089083908390808284375050604080516101208181019092529497969581810195945092506009915083908390808284375050604080516020601f60808901358a0180359182018390048302840183018552818452979a60ff8a3581169b848c013582169b9687013582169a6060880135909216995091975090955060a090940193820191819084018382808284375050604080516020601f89358b018035918201839004830284018301909452808352979a99988101979196509182019450925082915084018382808284375050604080516020601f89358b018035918201839004830284018301909452808352979a999881019791965091820194509250829150840183828082843750949750611f799650505050505050565b348015610a1f57600080fd5b506104286120d5565b6040805161020081810190925261053c9136916004916102049190839060109083908390808284375050604080516102408181019092529497969581810195945092506012915083908390808284375050604080516101008181019092529497969581810195945092506008915083908390808284375050604080516020601f88358a0180359182018390048302840183019094528083529699989781019691955091820193509150819084018382808284375050604080516020601f89358b018035918201839004830284018301909452808352979a99988101979196509182019450925082915084018382808284375050604080516020601f89358b018035918201839004830284018301909452808352979a99988101979196509182019450925082915084018382808284375050604080516020601f89358b018035918201839004830284018301909452808352979a99988101979196509182019450925082915084018382808284375050604080516020601f89358b018035918201839004830284018301909452808352979a99988101979196509182019450925082915084018382808284375050604080516020601f89358b018035918201839004830284018301909452808352979a999881019791965091820194509250829150840183828082843750506040805180820182529598979681810196955093506002925084915083908082843750506040805160a0818101909252949796958181019594509250600591508390839080828437509396506120db95505050505050565b348015610c7757600080fd5b506101ac612572565b348015610c8c57600080fd5b506101ac600160a060020a03600435166125a9565b348015610cad57600080fd5b506040805160206004803580820135601f81018490048402850184019095528484526101ac9436949293602493928401919081908401838280828437509497506125e99650505050505050565b348015610d0657600080fd5b50604080516102008181019092526105109136916004916102049190839060109083908390808284375050604080516102408181019092529497969581810195945092506012915083908390808284375050604080516101008181019092529497969581810195945092506008915083908390808284375050604080516020601f88358a0180359182018390048302840183019094528083529699989781019691955091820193509150819084018382808284375050604080516020601f89358b018035918201839004830284018301909452808352979a99988101979196509182019450925082915084018382808284375050604080516020601f89358b018035918201839004830284018301909452808352979a99988101979196509182019450925082915084018382808284375050604080516020601f89358b018035918201839004830284018301909452808352979a99988101979196509182019450925082915084018382808284375050604080516020601f89358b018035918201839004830284018301909452808352979a99988101979196509182019450925082915084018382808284375050604080516020601f89358b018035918201839004830284018301909452808352979a99988101979196509182019450925082915084018382808284375094975061262f9650505050505050565b348015610f0d57600080fd5b5061053c600160a060020a0360043516612a3e565b348015610f2e57600080fd5b506101ac612a8d565b348015610f4357600080fd5b506040805160206004803580820135601f810184900484028501840190955284845261051094369492936024939284019190819084018382808284375050604080516020601f89358b018035918201839004830284018301909452808352979a99988101979196509182019450925082915084018382808284375050604080516020601f89358b018035918201839004830284018301909452808352979a99988101979196509182019450925082915084018382808284375050604080516020601f89358b018035918201839004830284018301909452808352979a999881019791965091820194509250829150840183828082843750949750612ac49650505050505050565b34801561105657600080fd5b5061042860ff6004358116906024351660443560643560843560a435612b02565b34801561108357600080fd5b5061044f612b1d565b34801561109857600080fd5b506040805161010081810190925261053c9136916004916101049190839060089083908390808284375050604080516101208181019092529497969581810195945092506009915083908390808284375050604080516020601f60808901358a0180359182018390048302840183018552818452979a60ff8a3581169b848c013582169b9687013582169a6060880135909216995091975090955060a090940193820191819084018382808284375050604080516020601f89358b018035918201839004830284018301909452808352979a99988101979196509182019450925082915084018382808284375050604080516020601f89358b018035918201839004830284018301909452808352979a9998810197919650918201945092508291508401838280828437509497505050833560ff1694505050602082013591604001359050612b2c565b3480156111ee57600080fd5b5061053c612d0d565b34801561120357600080fd5b5061044f612d87565b34801561121857600080fd5b50610428612d96565b34801561122d57600080fd5b50610510600435612d9c565b34801561124557600080fd5b50604080516101008181019092526105109136916004916101049190839060089083908390808284375050604080516101208181019092529497969581810195945092506009915083908390808284375050604080516020601f60808901358a0180359182018390048302840183018552818452979a60ff8a3581169b848c013582169b9687013582169a6060880135909216995091975090955060a090940193820191819084018382808284375050604080516020601f89358b018035918201839004830284018301909452808352979a99988101979196509182019450925082915084018382808284375050604080516020601f89358b018035918201839004830284018301909452808352979a999881019791965091820194509250829150840183828082843750949750612db19650505050505050565b34801561138c57600080fd5b5061044f612f6a565b3480156113a157600080fd5b5061044f612f7e565b3480156113b657600080fd5b50604080516101008181019092526104289136916004916101049190839060089083908390808284375050604080516101208181019092529497969581810195945092506009915083908390808284375050604080516020601f60808901358a0180359182018390048302840183018552818452979a60ff8a3581169b848c013582169b9687013582169a6060880135909216995091975090955060a090940193820191819084018382808284375050604080516020601f89358b018035918201839004830284018301909452808352979a99988101979196509182019450925082915084018382808284375050604080516020601f89358b018035918201839004830284018301909452808352979a999881019791965091820194509250829150840183828082843750949750612f8d9650505050505050565b3480156114fd57600080fd5b50604080516101008181019092526104289136916004916101049190839060089083908390808284375050604080516101208181019092529497969581810195945092506009915083908390808284375050604080516020601f60808901358a0180359182018390048302840183018552818452979a60ff8a3581169b848c013582169b9687013582169a6060880135909216995091975090955060a090940193820191819084018382808284375050604080516020601f89358b018035918201839004830284018301909452808352979a99988101979196509182019450925082915084018382808284375050604080516020601f89358b018035918201839004830284018301909452808352979a9998810197919650918201945092508291508401838280828437509497506130db9650505050505050565b34801561164457600080fd5b50610428613229565b34801561165957600080fd5b5061051060043561322f565b34801561167157600080fd5b5061053c600160a060020a0360043516613244565b60408051808201909152601781527f50726f6a6563742057797665726e2045786368616e6765000000000000000000602082015281565b60006116c7614e40565b6116cf614e40565b604080516103008101909152808d600060209081029190910151600160a060020a03168252018d600160209081029190910151600160a060020a03168252018d600260209081029190910151600160a060020a03168252018d600360209081029190910151600160a060020a03168252018c6000602090810291909101518252018c6001602090810291909101518252018c6002602090810291909101518252018c6003602090810291909101518252018d600460209081029190910151600160a060020a03168252018b6000602002015160ff1660018111156117af57fe5b60018111156117ba57fe5b81526020018b6001602002015160ff1660018111156117d557fe5b60018111156117e057fe5b81526020018b6002602002015160ff1660018111156117fb57fe5b600181111561180657fe5b815260a08e0151600160a060020a0316602082015260608c015160409091019060ff16600181111561183457fe5b600181111561183f57fe5b8152602081018b90526040810189905260c08e0151600160a060020a031660608201526080810187905260a0018d600760209081029190910151600160a060020a03168252018c6004602090810291909101518252018c6005602090810291909101518252018c6006602090810291909101518252018c6007602090810291909101518252018c600860200201519052604080516103008101909152909250808d600860209081029190910151600160a060020a03168252018d600960209081029190910151600160a060020a03168252018d600a60209081029190910151600160a060020a03168252018d600b60209081029190910151600160a060020a03168252018c6009602090810291909101518252018c600a602090810291909101518252018c600b602090810291909101518252018c600c602090810291909101518252018d600c60209081029190910151600160a060020a03168252018b6004602002015160ff1660018111156119b257fe5b60018111156119bd57fe5b81526020018b6005602002015160ff1660018111156119d857fe5b60018111156119e357fe5b81526020018b6006602002015160ff1660018111156119fe57fe5b6001811115611a0957fe5b81526101a08e0151600160a060020a0316602082015260e08c015160409091019060ff166001811115611a3857fe5b6001811115611a4357fe5b8152602081018a9052604081018890526101c08e0151600160a060020a031660608201526080810186905260a0018d600f60209081029190910151600160a060020a031682526101a08e0151908201526101c08d015160408201526101e08d015160608201526102008d015160808201526102208d015160a0909101529050611acc82826132ec565b9c9b505050505050505050505050565b600354600160a060020a031681565b60006060600083518551016040519080825280601f01601f191660200182016040528015611b23578160200160208202803883390190505b5091505060208101611b35818561337d565b9050611b41818661337d565b506000604051835160208501895afa9695505050505050565b60005433600160a060020a039081166101009092041614611b7a57600080fd5b600655565b6000611b89614e40565b604080516103008101909152808f600060209081029190910151600160a060020a03168252018f600160209081029190910151600160a060020a03168252018f600260209081029190910151600160a060020a03168252018f600360209081029190910151600160a060020a03168252018e6000602090810291909101518252018e6001602090810291909101518252018e6002602090810291909101518252018e6003602090810291909101518252018f60046020020151600160a060020a031681526020018d6001811115611c5c57fe5b81526020018c6001811115611c6d57fe5b81526020018b6001811115611c7e57fe5b81526020018f60056020020151600160a060020a031681526020018a6001811115611ca557fe5b8152602081018a9052604081018990526060018f60066020020151600160a060020a031681526020018781526020018f6007600881101515611ce357fe5b60209081029190910151600160a060020a03168252018e6004602090810291909101518252018e6005602090810291909101518252018e6006602090810291909101518252018e6007602090810291909101518252018e6008602002015190529050611d75611d51826133c3565b6040805160608101825260ff8916815260208101889052908101869052839061340f565b9e9d5050505050505050505050505050565b60005433600160a060020a039081166101009092041614611da757600080fd5b600755565b611db4614e40565b604080516103008101909152808c600060209081029190910151600160a060020a03168252018c600160209081029190910151600160a060020a03168252018c600260209081029190910151600160a060020a03168252018c600360209081029190910151600160a060020a03168252018b6000602090810291909101518252018b6001602090810291909101518252018b6002602090810291909101518252018b6003602090810291909101518252018c60046020020151600160a060020a031681526020018a6001811115611e8757fe5b8152602001896001811115611e9857fe5b8152602001886001811115611ea957fe5b815260a08d0151600160a060020a03166020820152604001876001811115611ecd57fe5b8152602081018790526040810186905260c08d0151600160a060020a031660608201526080810185905260a0018c600760209081029190910151600160a060020a031682526080808e01519183019190915260a0808e0151604084015260c08e0151606084015260e08e0151918301919091526101008d01519101529050611f558183613504565b5050505050505050505050565b6060611f6f84848461357b565b50825b9392505050565b60408051610300810182528a51600160a060020a0390811682526020808d01518216818401528c8401518216838501526060808e01518316818501528c51608080860191909152918d015160a0850152938c015160c0840152928b015160e0830152918b01519091166101008201526000906120c79061012081018a600181111561200057fe5b815260200189600181111561201157fe5b815260200188600181111561202257fe5b815260a08d0151600160a060020a0316602082015260400187600181111561204657fe5b8152602081018790526040810186905260c08d0151600160a060020a031660608201526080810185905260a0018c600760209081029190910151600160a060020a031682526080808e01519183019190915260a0808e0151604084015260c08e0151606084015260e08e0151918301919091526101008d0151910152613702565b9a9950505050505050505050565b60075481565b604080516103008101909152611f5590808d600060209081029190910151600160a060020a03168252018d600160209081029190910151600160a060020a03168252018d600260209081029190910151600160a060020a03168252018d600360209081029190910151600160a060020a03168252018c6000602090810291909101518252018c6001602090810291909101518252018c6002602090810291909101518252018c6003602090810291909101518252018d600460209081029190910151600160a060020a03168252018b6000602002015160ff1660018111156121bf57fe5b60018111156121ca57fe5b81526020018b6001602002015160ff1660018111156121e557fe5b60018111156121f057fe5b81526020018b6002602002015160ff16600181111561220b57fe5b600181111561221657fe5b815260a08e0151600160a060020a0316602082015260608c015160409091019060ff16600181111561224457fe5b600181111561224f57fe5b8152602081018b90526040810189905260c08e0151600160a060020a031660608201526080810187905260a0018d600760209081029190910151600160a060020a03168252018c6004602090810291909101518252018c6005602090810291909101518252018c6006602090810291909101518252018c6007602090810291909101518252018c6008602002015190526040805160608101909152808560006020908102919091015160ff168252018460006020908102919091015182520184600160200201519052604080516103008101909152808f600860209081029190910151600160a060020a03168252018f600960209081029190910151600160a060020a03168252018f600a60209081029190910151600160a060020a03168252018f600b60209081029190910151600160a060020a03168252018e6009602090810291909101518252018e600a602090810291909101518252018e600b602090810291909101518252018e600c602090810291909101518252018f600c60209081029190910151600160a060020a03168252018d6004602002015160ff1660018111156123f857fe5b600181111561240357fe5b81526020018d6005602002015160ff16600181111561241e57fe5b600181111561242957fe5b81526020018d6006602002015160ff16600181111561244457fe5b600181111561244f57fe5b81526020018f600d60209081029190910151600160a060020a03168252018d6007602002015160ff16600181111561248357fe5b600181111561248e57fe5b8152602081018c9052604081018a90526060018f600e6020020151600160a060020a031681526020018781526020018f600f6010811015156124cc57fe5b60209081029190910151600160a060020a03168252018e600d602090810291909101518252018e600e602090810291909101518252018e600f602090810291909101518252018e6010602090810291909101518252018e6011602002015190526040805160608101909152808760016020908102919091015160ff1682520186600260209081029190910151825201866003602002015190528560046020020151613902565b60408051808201909152600c81527f4c616d62746f6e20576f726d0000000000000000000000000000000000000000602082015281565b6040805160148082528183019092526060918291600091602082016102808038833901905050915050602081016125e08185613eee565b50909392505050565b606080600083516040519080825280601f01601f19166020018201604052801561261d578160200160208202803883390190505b50915050602081016125e0818561337d565b6000612639614e40565b612641614e40565b604080516103008101909152808d600060209081029190910151600160a060020a03168252018d600160209081029190910151600160a060020a03168252018d600260209081029190910151600160a060020a03168252018d600360209081029190910151600160a060020a03168252018c6000602090810291909101518252018c6001602090810291909101518252018c6002602090810291909101518252018c6003602090810291909101518252018d600460209081029190910151600160a060020a03168252018b6000602002015160ff16600181111561272157fe5b600181111561272c57fe5b81526020018b6001602002015160ff16600181111561274757fe5b600181111561275257fe5b81526020018b6002602002015160ff16600181111561276d57fe5b600181111561277857fe5b815260a08e0151600160a060020a0316602082015260608c015160409091019060ff1660018111156127a657fe5b60018111156127b157fe5b8152602081018b90526040810189905260c08e0151600160a060020a031660608201526080810187905260a0018d600760209081029190910151600160a060020a03168252018c6004602090810291909101518252018c6005602090810291909101518252018c6006602090810291909101518252018c6007602090810291909101518252018c600860200201519052604080516103008101909152909250808d600860209081029190910151600160a060020a03168252018d600960209081029190910151600160a060020a03168252018d600a60209081029190910151600160a060020a03168252018d600b60209081029190910151600160a060020a03168252018c6009602090810291909101518252018c600a602090810291909101518252018c600b602090810291909101518252018c600c602090810291909101518252018d600c60209081029190910151600160a060020a03168252018b6004602002015160ff16600181111561292457fe5b600181111561292f57fe5b81526020018b6005602002015160ff16600181111561294a57fe5b600181111561295557fe5b81526020018b6006602002015160ff16600181111561297057fe5b600181111561297b57fe5b81526101a08e0151600160a060020a0316602082015260e08c015160409091019060ff1660018111156129aa57fe5b60018111156129b557fe5b8152602081018a9052604081018890526101c08e0151600160a060020a031660608201526080810186905260a0018d600f60209081029190910151600160a060020a031682526101a08e0151908201526101c08d015160408201526101e08d015160608201526102008d015160808201526102208d015160a0909101529050611acc8282613f0e565b60005433600160a060020a039081166101009092041614612a5e57600080fd5b6008805473ffffffffffffffffffffffffffffffffffffffff1916600160a060020a0392909216919091179055565b60408051808201909152600381527f322e320000000000000000000000000000000000000000000000000000000000602082015281565b60008084511115612ada57612ada85848661357b565b600082511115612aef57612aef83868461357b565b612af985846140ec565b95945050505050565b6000612b12878787878787614150565b979650505050505050565b600854600160a060020a031681565b604080516103008101909152612cff90808e600060209081029190910151600160a060020a03168252018e600160209081029190910151600160a060020a03168252018e600260209081029190910151600160a060020a03168252018e600360209081029190910151600160a060020a03168252018d6000602090810291909101518252018d6001602090810291909101518252018d6002602090810291909101518252018d6003602090810291909101518252018e60046020020151600160a060020a031681526020018c6001811115612c0357fe5b81526020018b6001811115612c1457fe5b81526020018a6001811115612c2557fe5b815260a08f0151600160a060020a03166020820152604001896001811115612c4957fe5b8152602081018990526040810188905260c08f0151600160a060020a031660608201526080810187905260a0018e600760209081029190910151600160a060020a03168252018d6004602090810291909101518252018d6005602090810291909101518252018d6006602090810291909101518252018d6007602090810291909101518252018d6008602090810291909101519091526040805160608101825260ff8816815291820186905281018490526141e3565b505050505050505050505050565b60005433600160a060020a039081166101009092041614612d2d57600080fd5b60008054604051610100909104600160a060020a0316917ff8df31144d9c2f0f6b59d69b8b98abd5459d07f2742c4df920b25aae33c6482091a26000805474ffffffffffffffffffffffffffffffffffffffff0019169055565b600254600160a060020a031681565b60065481565b60046020526000908152604090205460ff1681565b6000612dbb614e40565b604080516103008101909152808c600060209081029190910151600160a060020a03168252018c600160209081029190910151600160a060020a03168252018c600260209081029190910151600160a060020a03168252018c600360209081029190910151600160a060020a03168252018b6000602090810291909101518252018b6001602090810291909101518252018b6002602090810291909101518252018b6003602090810291909101518252018c60046020020151600160a060020a031681526020018a6001811115612e8e57fe5b8152602001896001811115612e9f57fe5b8152602001886001811115612eb057fe5b815260a08d0151600160a060020a03166020820152604001876001811115612ed457fe5b8152602081018790526040810186905260c08d0151600160a060020a031660608201526080810185905260a0018c600760209081029190910151600160a060020a031682526080808e01519183019190915260a0808e0151604084015260c08e0151606084015260e08e0151918301919091526101008d01519101529050612f5b8161425a565b9b9a5050505050505050505050565b6000546101009004600160a060020a031681565b600154600160a060020a031681565b60408051610300810182528a51600160a060020a0390811682526020808d01518216818401528c8401518216838501526060808e01518316818501528c51608080860191909152918d015160a0850152938c015160c0840152928b015160e0830152918b01519091166101008201526000906120c79061012081018a600181111561301457fe5b815260200189600181111561302557fe5b815260200188600181111561303657fe5b815260a08d0151600160a060020a0316602082015260400187600181111561305a57fe5b8152602081018790526040810186905260c08d0151600160a060020a031660608201526080810185905260a0018c600760209081029190910151600160a060020a031682526080808e01519183019190915260a0808e0151604084015260c08e0151606084015260e08e0151918301919091526101008d01519101526142ee565b60408051610300810182528a51600160a060020a0390811682526020808d01518216818401528c8401518216838501526060808e01518316818501528c51608080860191909152918d015160a0850152938c015160c0840152928b015160e0830152918b01519091166101008201526000906120c79061012081018a600181111561316257fe5b815260200189600181111561317357fe5b815260200188600181111561318457fe5b815260a08d0151600160a060020a031660208201526040018760018111156131a857fe5b8152602081018790526040810186905260c08d0151600160a060020a031660608201526080810185905260a0018c600760209081029190910151600160a060020a031682526080808e01519183019190915260a0808e0151604084015260c08e0151606084015260e08e0151918301919091526101008d01519101526133c3565b61271081565b60056020526000908152604090205460ff1681565b60005433600160a060020a03908116610100909204161461326457600080fd5b600160a060020a038116151561327957600080fd5b60008054604051600160a060020a038085169361010090930416917f8be0079c531659141344cd1fd0a4f28419497f9722a3daafe3b4186f6b6457e091a360008054600160a060020a039092166101000274ffffffffffffffffffffffffffffffffffffffff0019909216919091179055565b600080600061331d846101400151856101600151866102600151876102800151886102a00151896102c00151614150565b915061334b856101400151866101600151876102600151886102800151896102a001518a6102c00151614150565b90508181101561335a57600080fd5b610100840151600160a060020a031615156133755780612af9565b509392505050565b600080825111156133ba57815180602001830160208401855b600183831014156133b1578151815260209182019101613396565b50505092909201915b50815b92915050565b60006133ce82613702565b604080517f19457468657265756d205369676e6564204d6573736167653a0a3332000000008152601c8101929092525190819003603c01902090505b919050565b600061341a8361425a565b151561342857506000611f72565b60008481526004602052604090205460ff161561344757506000611f72565b60008481526005602052604090205460ff161561346657506001611f72565b602080840151835184830151604080870151815160008082528188018085528c905260ff909516818401526060810193909352608083015251600160a060020a039093169360019360a0808401949293601f19830193908390039091019190865af11580156134d9573d6000803e3d6000fd5b50505060206040510351600160a060020a031614156134fa57506001611f72565b5060009392505050565b60008260200151600160a060020a031633600160a060020a031614151561352a57600080fd5b613533836133c3565b60008181526005602052604090205490915060ff161561355257600080fd5b6000818152600560205260409020805460ff1916600117905561357681848461431c565b505050565b60008060008451865114151561359057600080fd5b835186511461359e57600080fd5b85516020900492506020808402925083908304146135b857fe5b5060005b828110156135e857600101602081028481015186820151918801805192821691199092161790526135bc565b600083111561361857829050806001016020028085015181870151811682890151821916178289015250506136fa565b50805b85518110156136fa57848181518110151561363257fe5b90602001015160f860020a900460f860020a02848281518110151561365357fe5b90602001015160f860020a900460f860020a0216868281518110151561367557fe5b90602001015160f860020a900460f860020a02858381518110151561369657fe5b90602001015160f860020a900460f860020a0260ff60f860020a0218161786828151811015156136c257fe5b9060200101907effffffffffffffffffffffffffffffffffffffffffffffffffffffffffffff1916908160001a90535060010161361b565b505050505050565b6000806060600061371285614687565b9250826040519080825280601f01601f191660200182016040528015613742578160200160208202803883390190505b509150602082019050613759818660000151613eee565b9050613769818660200151613eee565b9050613779818660400151613eee565b9050613789818660600151613eee565b90506137998186608001516146a7565b90506137a9818660a001516146a7565b90506137b9818660c001516146a7565b90506137c9818660e001516146a7565b90506137da81866101000151613eee565b90506137f68186610120015160018111156137f157fe5b6146af565b905061380d8186610140015160018111156137f157fe5b90506138248186610160015160018111156137f157fe5b905061383581866101800151613eee565b905061384c81866101a0015160018111156137f157fe5b905061385d81866101c0015161337d565b905061386e81866101e0015161337d565b905061387f81866102000151613eee565b90506138908186610220015161337d565b90506138a181866102400151613eee565b90506138b2818661026001516146a7565b90506138c3818661028001516146a7565b90506138d481866102a001516146a7565b90506138e581866102c001516146a7565b90506138f681866102e001516146a7565b50506020012092915050565b6000805481908190819081908190819060ff161561391f57600080fd5b6000805460ff1916600117905560208c0151600160a060020a0390811633919091161415613960576139508c61425a565b151561395b57600080fd5b61396d565b61396a8c8c6146bc565b96505b33600160a060020a03168a60200151600160a060020a031614156139a4576139948a61425a565b151561399f57600080fd5b6139b1565b6139ae8a8a6146bc565b95505b6139bb8c8b613f0e565b15156139c657600080fd5b6101808a0151803b95509350600085116139df57600080fd5b60008c6101e00151511115613a0857613a088c6101c001518b6101c001518e6101e0015161357b565b60008a6101e00151511115613a3157613a318a6101c001518d6101c001518c6101e0015161357b565b613a458c6101c001518b6101c001516140ec565b1515613a5057600080fd5b6002546020808c0151604080517fc4552791000000000000000000000000000000000000000000000000000000008152600160a060020a0392831660048201529051919093169263c45527919260248083019391928290030181600087803b158015613abb57600080fd5b505af1158015613acf573d6000803e3d6000fd5b505050506040513d6020811015613ae557600080fd5b50519250600160a060020a0383161515613afe57600080fd5b600260009054906101000a9004600160a060020a0316600160a060020a03166397204d8e6040518163ffffffff1660e060020a028152600401602060405180830381600087803b158015613b5157600080fd5b505af1158015613b65573d6000803e3d6000fd5b505050506040513d6020811015613b7b57600080fd5b5051604080517f5c60da1b0000000000000000000000000000000000000000000000000000000081529051600160a060020a0392831692861691635c60da1b9160048083019260209291908290030181600087803b158015613bdc57600080fd5b505af1158015613bf0573d6000803e3d6000fd5b505050506040513d6020811015613c0657600080fd5b5051600160a060020a031614613c1b57600080fd5b8291508b60200151600160a060020a031633600160a060020a0316141515613c57576000878152600460205260409020805460ff191660011790555b8960200151600160a060020a031633600160a060020a0316141515613c90576000868152600460205260409020805460ff191660011790555b613c9a8c8b6146e0565b905081600160a060020a0316631b0f7ba98b61018001518c6101a001518d6101c001516040518463ffffffff1660e060020a0281526004018084600160a060020a0316600160a060020a03168152602001836001811115613cf757fe5b60ff16815260200180602001828103825283818151815260200191508051906020019080838360005b83811015613d38578181015183820152602001613d20565b50505050905090810190601f168015613d655780820380516001836020036101000a031916815260200191505b50945050505050602060405180830381600087803b158015613d8657600080fd5b505af1158015613d9a573d6000803e3d6000fd5b505050506040513d6020811015613db057600080fd5b50511515613dbd57600080fd5b6102008c0151600160a060020a031615613df657613deb8c61020001518b6101c001518e6102200151611aeb565b1515613df657600080fd5b6102008a0151600160a060020a031615613e2f57613e248a61020001518b6101c001518c6102200151611aeb565b1515613e2f57600080fd5b6101008a01518890600160a060020a03161515613e50578a60200151613e56565b8c602001515b6101008c0151600160a060020a0391821691161515613e79578d60200151613e7f565b8b602001515b6060808e0151604080518d8152602081018d9052600160a060020a0392831681830152928301879052519216917fdb77b519bead271b959f1e56721e822436efe1d7341c6a32ce4a5e3948c49def9181900360800190a450506000805460ff1916905550505050505050505050565b600160a060020a03166c0100000000000000000000000002815260140190565b6000808361014001516001811115613f2257fe5b148015613f3f575060018261014001516001811115613f3d57fe5b145b8015613f6a57508161012001516001811115613f5757fe5b8361012001516001811115613f6857fe5b145b8015613f915750816102400151600160a060020a0316836102400151600160a060020a0316145b8015613fcb57506040820151600160a060020a03161580613fcb57508260200151600160a060020a03168260400151600160a060020a0316145b801561400557506040830151600160a060020a0316158061400557508160200151600160a060020a03168360400151600160a060020a0316145b80156140645750610100820151600160a060020a03161580156140355750610100830151600160a060020a031615155b806140645750610100820151600160a060020a0316158015906140645750610100830151600160a060020a0316155b801561408b5750816101800151600160a060020a0316836101800151600160a060020a0316145b80156140b65750816101a0015160018111156140a357fe5b836101a0015160018111156140b457fe5b145b80156140d157506140d1836102a00151846102c00151614ccb565b8015611f725750611f72826102a00151836102c00151614ccb565b8151815160009160019181148083146141085760009250614146565b600160208701838101602088015b6002848385100114156141415780518351146141355760009650600093505b60209283019201614116565b505050505b5090949350505050565b6000808087600181111561416057fe5b141561416e578591506141d8565b600187600181111561417c57fe5b14156141d8576141a7614198866141934288614ce7565b614cf9565b6141a28587614ce7565b614d22565b905060018860018111156141b757fe5b14156141ce576141c78682614ce7565b91506141d8565b6141c78682614d37565b509695505050505050565b60006141ef83836146bc565b90508260200151600160a060020a031633600160a060020a031614151561421557600080fd5b600081815260046020526040808220805460ff191660011790555182917f5152abf959f6564662358c2e52b702259b78bac5ee7842a0f01937e670efcc7d91a2505050565b600030600160a060020a03168260000151600160a060020a03161415156142835750600061340a565b614297826101600151836102c00151614d44565b15156142a55750600061340a565b600182610120015160018111156142b857fe5b1480156142d957506006548260c0015110806142d957506007548260e00151105b156142e65750600061340a565b506001919050565b60006133bd826101400151836101600151846102600151856102800151866102a00151876102c00151614150565b816101000151600160a060020a03168260200151600160a060020a031684600019167fef8d1dda8668b1fc00006f34d1d9ca05f7e3e39bb4ec3a457371726a6856299285600001518660400151876060015188608001518960a001518a60c001518b60e001518c61012001518d61014001518e61016001518f6101800151604051808c600160a060020a0316600160a060020a031681526020018b600160a060020a0316600160a060020a031681526020018a600160a060020a0316600160a060020a0316815260200189815260200188815260200187815260200186815260200185600181111561440a57fe5b60ff16815260200184600181111561441e57fe5b60ff16815260200183600181111561443257fe5b60ff168152600160a060020a039092166020830152506040805191829003019a5098505050505050505050a482600019167fe55393c778364e440d958b39ac1debd99dcfae3775a8a04d1e79124adf6a2d08836101a00151846101c00151856101e001518661020001518761022001518861024001518961026001518a61028001518b6102a001518c6102c001518d6102e001518d604051808d60018111156144d757fe5b60ff16815260200180602001806020018c600160a060020a0316600160a060020a03168152602001806020018b600160a060020a0316600160a060020a031681526020018a81526020018981526020018881526020018781526020018681526020018515151515815260200184810384528f818151815260200191508051906020019080838360005b83811015614578578181015183820152602001614560565b50505050905090810190601f1680156145a55780820380516001836020036101000a031916815260200191505b5084810383528e818151815260200191508051906020019080838360005b838110156145db5781810151838201526020016145c3565b50505050905090810190601f1680156146085780820380516001836020036101000a031916815260200191505b5084810382528c5181528c516020918201918e019080838360005b8381101561463b578181015183820152602001614623565b50505050905090810190601f1680156146685780820380516001836020036101000a031916815260200191505b509f5050505050505050505050505050505060405180910390a2505050565b610220810151516101e0820151516101c08301515101016101b001919050565b815260200190565b6000818353505060010190565b6000806146c8846133c3565b90506146d581858561340f565b1515611f7257600080fd5b600080600080600080600080600080600160a060020a03168a6102400151600160a060020a031614151561471957341561471957600080fd5b6147238b8b6132ec565b975060008811801561474257506102408a0151600160a060020a031615155b15614760576147608a61024001518c602001518c602001518b614d63565b6101008a0151889750879650600160a060020a031615614a835760a0808c0151908b0151111561478f57600080fd5b60018a610120015160018111156147a257fe5b1415614a4e5760e0808c0151908b015111156147bd57600080fd5b60008a608001511115614863576147e36147db8b608001518a614cf9565b612710614d22565b6102408b0151909550600160a060020a03161515614849576148058786614ce7565b6101008b0151604051919850600160a060020a03169086156108fc029087906000818181858888f19350505050158015614843573d6000803e3d6000fd5b50614863565b6148638a61024001518b602001518c610100015188614d63565b60008a60a001511115614901576148816147db8b60a001518a614cf9565b6102408b0151909450600160a060020a031615156148e7576148a38685614d37565b6101008b0151604051919750600160a060020a03169085156108fc029086906000818181858888f193505050501580156148e1573d6000803e3d6000fd5b50614901565b6149018a61024001518c602001518c610100015187614d63565b60008a60c0015111156149a55761491f6147db8b60c001518a614cf9565b6102408b0151909350600160a060020a03161515614982576149418784614ce7565b600854604051919850600160a060020a03169084156108fc029085906000818181858888f1935050505015801561497c573d6000803e3d6000fd5b506149a5565b6102408a015160208b01516008546149a5929190600160a060020a031686614d63565b60008a60e001511115614a49576149c36147db8b60e001518a614cf9565b6102408b0151909250600160a060020a03161515614a26576149e58683614d37565b600854604051919750600160a060020a03169083156108fc029084906000818181858888f19350505050158015614a20573d6000803e3d6000fd5b50614a49565b6102408a015160208c0151600854614a49929190600160a060020a031685614d63565b614a7e565b614a668a602001518b61010001518c60800151614e28565b614a7e8b602001518b61010001518c60a00151614e28565b614c08565b60a0808b0151908c01511115614a9857600080fd5b60018a61012001516001811115614aab57fe5b1415614bd8576102408a0151600160a060020a03161515614acb57600080fd5b60e0808b0151908c01511115614ae057600080fd5b60008b608001511115614b1a57614afe6147db8c608001518a614cf9565b9450614b1a8a61024001518c602001518d610100015188614d63565b60008b60a001511115614b5457614b386147db8c60a001518a614cf9565b9350614b548a61024001518b602001518d610100015187614d63565b60008b60c001511115614b9657614b726147db8c60c001518a614cf9565b6102408b015160208d0151600854929550614b9692600160a060020a031686614d63565b60008b60e001511115614a7e57614bb46147db8c60e001518a614cf9565b6102408b015160208c0151600854929450614a7e92600160a060020a031685614d63565b614bf08b602001518c61010001518d60800151614e28565b614c088a602001518c61010001518d60a00151614e28565b6102408a0151600160a060020a03161515614cbc5734861115614c2a57600080fd5b8960200151600160a060020a03166108fc889081150290604051600060405180830381858888f19350505050158015614c67573d6000803e3d6000fd5b50614c723487614ce7565b90506000811115614cbc578a60200151600160a060020a03166108fc829081150290604051600060405180830381858888f19350505050158015614cba573d6000803e3d6000fd5b505b50959998505050505050505050565b60004283108015611f725750811580611f725750504210919050565b600082821115614cf357fe5b50900390565b6000821515614d0a575060006133bd565b50818102818382811515614d1a57fe5b04146133bd57fe5b60008183811515614d2f57fe5b049392505050565b818101828110156133bd57fe5b600080836001811115614d5357fe5b1480611f72575050600010919050565b6000811115614e2257600354604080517f15dacbea000000000000000000000000000000000000000000000000000000008152600160a060020a0387811660048301528681166024830152858116604483015260648201859052915191909216916315dacbea9160848083019260209291908290030181600087803b158015614deb57600080fd5b505af1158015614dff573d6000803e3d6000fd5b505050506040513d6020811015614e1557600080fd5b50511515614e2257600080fd5b50505050565b60015461357690600160a060020a0316848484614d63565b6040805161030081018252600080825260208201819052918101829052606081018290526080810182905260a0810182905260c0810182905260e0810182905261010081018290529061012082019081526020016000815260200160008152600060208201819052604090910190815260200160608152602001606081526020016000600160a060020a03168152602001606081526020016000600160a060020a03168152602001600081526020016000815260200160008152602001600081526020016000815250905600a165627a7a72305820f5e275727ac6a3d21b4645e0e4d1f13b71d89a624e2581d313b8cbd181b0d2d80029",
  "source": "/*\n\n  << Project Wyvern Exchange >>\n\n*/\n\npragma solidity 0.4.23;\n\nimport \"./exchange/Exchange.sol\";\n\n/**\n * @title WyvernExchange\n * @author Project Wyvern Developers\n */\ncontract WyvernExchange is Exchange {\n\n    string public constant name = \"Project Wyvern Exchange\";\n\n    string public constant version = \"2.2\";\n\n    string public constant codename = \"Lambton Worm\";\n\n    /**\n     * @dev Initialize a WyvernExchange instance\n     * @param registryAddress Address of the registry instance which this Exchange instance will use\n     * @param tokenAddress Address of the token used for protocol fees\n     */\n    constructor (ProxyRegistry registryAddress, TokenTransferProxy tokenTransferProxyAddress, ERC20 tokenAddress, address protocolFeeAddress) public {\n        registry = registryAddress;\n        tokenTransferProxy = tokenTransferProxyAddress;\n        exchangeToken = tokenAddress;\n        protocolFeeRecipient = protocolFeeAddress;\n        owner = msg.sender;\n    }\n\n}\n",
  "sourcePath": "/workspace/contracts/WyvernExchange.sol",
  "compiler": {
    "name": "solc",
    "version": "0.4.23+commit.124ca40d.Emscripten.clang"
  },
  "schemaVersion": "2.0.0",
  "updatedAt": "2023-04-11T05:39:40.724Z"
}